{
	"wasser/staking.sol": {
		"Staking": {
			"abi": [
				{
					"inputs": [
						{
							"internalType": "address",
							"name": "target",
							"type": "address"
						}
					],
					"name": "AddressEmptyCode",
					"type": "error"
				},
				{
					"inputs": [
						{
							"internalType": "address",
							"name": "account",
							"type": "address"
						}
					],
					"name": "AddressInsufficientBalance",
					"type": "error"
				},
				{
					"inputs": [],
					"name": "FailedInnerCall",
					"type": "error"
				},
				{
					"inputs": [],
					"name": "InvalidInitialization",
					"type": "error"
				},
				{
					"inputs": [],
					"name": "NotInitializing",
					"type": "error"
				},
				{
					"inputs": [
						{
							"internalType": "address",
							"name": "token",
							"type": "address"
						}
					],
					"name": "SafeERC20FailedOperation",
					"type": "error"
				},
				{
					"anonymous": false,
					"inputs": [
						{
							"indexed": false,
							"internalType": "uint64",
							"name": "version",
							"type": "uint64"
						}
					],
					"name": "Initialized",
					"type": "event"
				},
				{
					"anonymous": false,
					"inputs": [
						{
							"indexed": false,
							"internalType": "address",
							"name": "account",
							"type": "address"
						}
					],
					"name": "Paused",
					"type": "event"
				},
				{
					"anonymous": false,
					"inputs": [
						{
							"indexed": false,
							"internalType": "address",
							"name": "account",
							"type": "address"
						}
					],
					"name": "Unpaused",
					"type": "event"
				},
				{
					"inputs": [
						{
							"internalType": "uint256",
							"name": "_amount",
							"type": "uint256"
						},
						{
							"internalType": "uint256",
							"name": "_interestRate",
							"type": "uint256"
						},
						{
							"internalType": "uint256",
							"name": "_month",
							"type": "uint256"
						}
					],
					"name": "calculateReward",
					"outputs": [
						{
							"internalType": "uint256",
							"name": "",
							"type": "uint256"
						}
					],
					"stateMutability": "pure",
					"type": "function"
				},
				{
					"inputs": [],
					"name": "initialize",
					"outputs": [],
					"stateMutability": "nonpayable",
					"type": "function"
				},
				{
					"inputs": [],
					"name": "maxStakeAmount",
					"outputs": [
						{
							"internalType": "uint256",
							"name": "",
							"type": "uint256"
						}
					],
					"stateMutability": "view",
					"type": "function"
				},
				{
					"inputs": [],
					"name": "minStakeAmount",
					"outputs": [
						{
							"internalType": "uint256",
							"name": "",
							"type": "uint256"
						}
					],
					"stateMutability": "view",
					"type": "function"
				},
				{
					"inputs": [
						{
							"internalType": "uint256",
							"name": "",
							"type": "uint256"
						}
					],
					"name": "monthToInterestRate",
					"outputs": [
						{
							"internalType": "uint256",
							"name": "",
							"type": "uint256"
						}
					],
					"stateMutability": "view",
					"type": "function"
				},
				{
					"inputs": [],
					"name": "owner",
					"outputs": [
						{
							"internalType": "address",
							"name": "",
							"type": "address"
						}
					],
					"stateMutability": "view",
					"type": "function"
				},
				{
					"inputs": [],
					"name": "pause",
					"outputs": [],
					"stateMutability": "nonpayable",
					"type": "function"
				},
				{
					"inputs": [],
					"name": "paused",
					"outputs": [
						{
							"internalType": "bool",
							"name": "",
							"type": "bool"
						}
					],
					"stateMutability": "view",
					"type": "function"
				},
				{
					"inputs": [
						{
							"internalType": "address",
							"name": "_address",
							"type": "address"
						}
					],
					"name": "setAddress",
					"outputs": [],
					"stateMutability": "nonpayable",
					"type": "function"
				},
				{
					"inputs": [
						{
							"internalType": "uint256",
							"name": "_month",
							"type": "uint256"
						},
						{
							"internalType": "uint256",
							"name": "_interestRate",
							"type": "uint256"
						}
					],
					"name": "setMonthInterestRate",
					"outputs": [],
					"stateMutability": "nonpayable",
					"type": "function"
				},
				{
					"inputs": [
						{
							"internalType": "uint256",
							"name": "_amount",
							"type": "uint256"
						},
						{
							"internalType": "uint256",
							"name": "_month",
							"type": "uint256"
						}
					],
					"name": "stake",
					"outputs": [],
					"stateMutability": "nonpayable",
					"type": "function"
				},
				{
					"inputs": [],
					"name": "token",
					"outputs": [
						{
							"internalType": "contract IERC20",
							"name": "",
							"type": "address"
						}
					],
					"stateMutability": "view",
					"type": "function"
				},
				{
					"inputs": [
						{
							"internalType": "address",
							"name": "_address",
							"type": "address"
						}
					],
					"name": "transferOwnership",
					"outputs": [],
					"stateMutability": "nonpayable",
					"type": "function"
				},
				{
					"inputs": [],
					"name": "unpause",
					"outputs": [],
					"stateMutability": "nonpayable",
					"type": "function"
				},
				{
					"inputs": [
						{
							"internalType": "uint256",
							"name": "_month",
							"type": "uint256"
						}
					],
					"name": "unstake",
					"outputs": [],
					"stateMutability": "nonpayable",
					"type": "function"
				},
				{
					"inputs": [
						{
							"internalType": "uint256",
							"name": "_maxAmount",
							"type": "uint256"
						}
					],
					"name": "updateMaxAmount",
					"outputs": [],
					"stateMutability": "nonpayable",
					"type": "function"
				},
				{
					"inputs": [
						{
							"internalType": "uint256",
							"name": "_minAmount",
							"type": "uint256"
						}
					],
					"name": "updateMinAmount",
					"outputs": [],
					"stateMutability": "nonpayable",
					"type": "function"
				},
				{
					"inputs": [
						{
							"internalType": "address",
							"name": "",
							"type": "address"
						},
						{
							"internalType": "uint256",
							"name": "",
							"type": "uint256"
						}
					],
					"name": "userMonthToAmount",
					"outputs": [
						{
							"internalType": "uint256",
							"name": "amount",
							"type": "uint256"
						},
						{
							"internalType": "uint256",
							"name": "deadline",
							"type": "uint256"
						}
					],
					"stateMutability": "view",
					"type": "function"
				},
				{
					"inputs": [
						{
							"internalType": "uint256",
							"name": "_amount",
							"type": "uint256"
						}
					],
					"name": "withdraw",
					"outputs": [],
					"stateMutability": "nonpayable",
					"type": "function"
				}
			],
			"devdoc": {
				"errors": {
					"AddressEmptyCode(address)": [
						{
							"details": "There's no code at `target` (it is not a contract)."
						}
					],
					"AddressInsufficientBalance(address)": [
						{
							"details": "The ETH balance of the account is not enough to perform the operation."
						}
					],
					"FailedInnerCall()": [
						{
							"details": "A call to an address target failed. The target may have reverted."
						}
					],
					"InvalidInitialization()": [
						{
							"details": "The contract is already initialized."
						}
					],
					"NotInitializing()": [
						{
							"details": "The contract is not initializing."
						}
					],
					"SafeERC20FailedOperation(address)": [
						{
							"details": "An operation with an ERC20 token failed."
						}
					]
				},
				"events": {
					"Initialized(uint64)": {
						"details": "Triggered when the contract has been initialized or reinitialized."
					},
					"Paused(address)": {
						"details": "Emitted when the pause is triggered by `account`."
					},
					"Unpaused(address)": {
						"details": "Emitted when the pause is lifted by `account`."
					}
				},
				"kind": "dev",
				"methods": {
					"paused()": {
						"details": "Returns true if the contract is paused, and false otherwise."
					}
				},
				"version": 1
			},
			"evm": {
				"assembly": "    /* \"wasser/staking.sol\":410:3271  contract Staking is Pausable, ReentrancyGuard, Initializable {... */\n  mstore(0x40, 0x80)\n  callvalue\n  dup1\n  iszero\n  tag_1\n  jumpi\n  0x00\n  dup1\n  revert\ntag_1:\n  pop\n    /* \"@openzeppelin/contracts/security/Pausable.sol\":1006:1011  false */\n  0x00\n    /* \"@openzeppelin/contracts/security/Pausable.sol\":996:1003  _paused */\n  dup1\n  0x00\n    /* \"@openzeppelin/contracts/security/Pausable.sol\":996:1011  _paused = false */\n  0x0100\n  exp\n  dup2\n  sload\n  dup2\n  0xff\n  mul\n  not\n  and\n  swap1\n  dup4\n  iszero\n  iszero\n  mul\n  or\n  swap1\n  sstore\n  pop\n    /* \"@openzeppelin/contracts/security/ReentrancyGuard.sol\":1716:1717  1 */\n  0x01\n    /* \"@openzeppelin/contracts/security/ReentrancyGuard.sol\":1821:1828  _status */\n  dup1\n    /* \"@openzeppelin/contracts/security/ReentrancyGuard.sol\":1821:1843  _status = _NOT_ENTERED */\n  dup2\n  swap1\n  sstore\n  pop\n    /* \"wasser/staking.sol\":410:3271  contract Staking is Pausable, ReentrancyGuard, Initializable {... */\n  dataSize(sub_0)\n  dup1\n  dataOffset(sub_0)\n  0x00\n  codecopy\n  0x00\n  return\nstop\n\nsub_0: assembly {\n        /* \"wasser/staking.sol\":410:3271  contract Staking is Pausable, ReentrancyGuard, Initializable {... */\n      mstore(0x40, 0x80)\n      callvalue\n      dup1\n      iszero\n      tag_1\n      jumpi\n      0x00\n      dup1\n      revert\n    tag_1:\n      pop\n      jumpi(tag_2, lt(calldatasize, 0x04))\n      shr(0xe0, calldataload(0x00))\n      dup1\n      0x8456cb59\n      gt\n      tag_22\n      jumpi\n      dup1\n      0xe30081a0\n      gt\n      tag_23\n      jumpi\n      dup1\n      0xe30081a0\n      eq\n      tag_17\n      jumpi\n      dup1\n      0xf1887684\n      eq\n      tag_18\n      jumpi\n      dup1\n      0xf2fde38b\n      eq\n      tag_19\n      jumpi\n      dup1\n      0xfc0c546a\n      eq\n      tag_20\n      jumpi\n      dup1\n      0xff897dbd\n      eq\n      tag_21\n      jumpi\n      jump(tag_2)\n    tag_23:\n      dup1\n      0x8456cb59\n      eq\n      tag_12\n      jumpi\n      dup1\n      0x8da5cb5b\n      eq\n      tag_13\n      jumpi\n      dup1\n      0x97378b1a\n      eq\n      tag_14\n      jumpi\n      dup1\n      0x9fa828ac\n      eq\n      tag_15\n      jumpi\n      dup1\n      0xa8e62b97\n      eq\n      tag_16\n      jumpi\n      jump(tag_2)\n    tag_22:\n      dup1\n      0x5c975abb\n      gt\n      tag_24\n      jumpi\n      dup1\n      0x5c975abb\n      eq\n      tag_7\n      jumpi\n      dup1\n      0x5d80ca32\n      eq\n      tag_8\n      jumpi\n      dup1\n      0x6cee0131\n      eq\n      tag_9\n      jumpi\n      dup1\n      0x7b0472f0\n      eq\n      tag_10\n      jumpi\n      dup1\n      0x8129fc1c\n      eq\n      tag_11\n      jumpi\n      jump(tag_2)\n    tag_24:\n      dup1\n      0x106b5da1\n      eq\n      tag_3\n      jumpi\n      dup1\n      0x2e17de78\n      eq\n      tag_4\n      jumpi\n      dup1\n      0x2e1a7d4d\n      eq\n      tag_5\n      jumpi\n      dup1\n      0x3f4ba83a\n      eq\n      tag_6\n      jumpi\n    tag_2:\n      0x00\n      dup1\n      revert\n        /* \"wasser/staking.sol\":2537:2637  function updateMaxAmount(uint256 _maxAmount) external onlyOwner {... */\n    tag_3:\n      tag_25\n      0x04\n      dup1\n      calldatasize\n      sub\n      dup2\n      add\n      swap1\n      tag_26\n      swap2\n      swap1\n      tag_27\n      jump\t// in\n    tag_26:\n      tag_28\n      jump\t// in\n    tag_25:\n      stop\n        /* \"wasser/staking.sol\":1711:2205  function unstake(uint256 _month) external nonReentrant {... */\n    tag_4:\n      tag_29\n      0x04\n      dup1\n      calldatasize\n      sub\n      dup2\n      add\n      swap1\n      tag_30\n      swap2\n      swap1\n      tag_27\n      jump\t// in\n    tag_30:\n      tag_31\n      jump\t// in\n    tag_29:\n      stop\n        /* \"wasser/staking.sol\":2642:2904  function withdraw(uint256 _amount) external onlyOwner {... */\n    tag_5:\n      tag_32\n      0x04\n      dup1\n      calldatasize\n      sub\n      dup2\n      add\n      swap1\n      tag_33\n      swap2\n      swap1\n      tag_27\n      jump\t// in\n    tag_33:\n      tag_34\n      jump\t// in\n    tag_32:\n      stop\n        /* \"wasser/staking.sol\":3116:3171  function unpause() public onlyOwner {... */\n    tag_6:\n      tag_35\n      tag_36\n      jump\t// in\n    tag_35:\n      stop\n        /* \"@openzeppelin/contracts/security/Pausable.sol\":1615:1699  function paused() public view virtual returns (bool) {... */\n    tag_7:\n      tag_37\n      tag_38\n      jump\t// in\n    tag_37:\n      mload(0x40)\n      tag_39\n      swap2\n      swap1\n      tag_40\n      jump\t// in\n    tag_39:\n      mload(0x40)\n      dup1\n      swap2\n      sub\n      swap1\n      return\n        /* \"wasser/staking.sol\":570:599  uint256 public maxStakeAmount */\n    tag_8:\n      tag_41\n      tag_42\n      jump\t// in\n    tag_41:\n      mload(0x40)\n      tag_43\n      swap2\n      swap1\n      tag_44\n      jump\t// in\n    tag_43:\n      mload(0x40)\n      dup1\n      swap2\n      sub\n      swap1\n      return\n        /* \"wasser/staking.sol\":2909:3055  function setMonthInterestRate(uint256 _month, uint256 _interestRate)... */\n    tag_9:\n      tag_45\n      0x04\n      dup1\n      calldatasize\n      sub\n      dup2\n      add\n      swap1\n      tag_46\n      swap2\n      swap1\n      tag_47\n      jump\t// in\n    tag_46:\n      tag_48\n      jump\t// in\n    tag_45:\n      stop\n        /* \"wasser/staking.sol\":1106:1706  function stake(uint256 _amount, uint256 _month)... */\n    tag_10:\n      tag_49\n      0x04\n      dup1\n      calldatasize\n      sub\n      dup2\n      add\n      swap1\n      tag_50\n      swap2\n      swap1\n      tag_47\n      jump\t// in\n    tag_50:\n      tag_51\n      jump\t// in\n    tag_49:\n      stop\n        /* \"wasser/staking.sol\":685:753  function initialize() public initializer {... */\n    tag_11:\n      tag_52\n      tag_53\n      jump\t// in\n    tag_52:\n      stop\n        /* \"wasser/staking.sol\":3060:3111  function pause() public onlyOwner {... */\n    tag_12:\n      tag_54\n      tag_55\n      jump\t// in\n    tag_54:\n      stop\n        /* \"wasser/staking.sol\":603:623  address public owner */\n    tag_13:\n      tag_56\n      tag_57\n      jump\t// in\n    tag_56:\n      mload(0x40)\n      tag_58\n      swap2\n      swap1\n      tag_59\n      jump\t// in\n    tag_58:\n      mload(0x40)\n      dup1\n      swap2\n      sub\n      swap1\n      return\n        /* \"wasser/staking.sol\":926:980  mapping(uint256 => uint256) public monthToInterestRate */\n    tag_14:\n      tag_60\n      0x04\n      dup1\n      calldatasize\n      sub\n      dup2\n      add\n      swap1\n      tag_61\n      swap2\n      swap1\n      tag_27\n      jump\t// in\n    tag_61:\n      tag_62\n      jump\t// in\n    tag_60:\n      mload(0x40)\n      tag_63\n      swap2\n      swap1\n      tag_44\n      jump\t// in\n    tag_63:\n      mload(0x40)\n      dup1\n      swap2\n      sub\n      swap1\n      return\n        /* \"wasser/staking.sol\":853:922  mapping(address => mapping(uint256 => User)) public userMonthToAmount */\n    tag_15:\n      tag_64\n      0x04\n      dup1\n      calldatasize\n      sub\n      dup2\n      add\n      swap1\n      tag_65\n      swap2\n      swap1\n      tag_66\n      jump\t// in\n    tag_65:\n      tag_67\n      jump\t// in\n    tag_64:\n      mload(0x40)\n      tag_68\n      swap3\n      swap2\n      swap1\n      tag_69\n      jump\t// in\n    tag_68:\n      mload(0x40)\n      dup1\n      swap2\n      sub\n      swap1\n      return\n        /* \"wasser/staking.sol\":2210:2427  function calculateReward(... */\n    tag_16:\n      tag_70\n      0x04\n      dup1\n      calldatasize\n      sub\n      dup2\n      add\n      swap1\n      tag_71\n      swap2\n      swap1\n      tag_72\n      jump\t// in\n    tag_71:\n      tag_73\n      jump\t// in\n    tag_70:\n      mload(0x40)\n      tag_74\n      swap2\n      swap1\n      tag_44\n      jump\t// in\n    tag_74:\n      mload(0x40)\n      dup1\n      swap2\n      sub\n      swap1\n      return\n        /* \"wasser/staking.sol\":1011:1101  function setAddress(address _address) external onlyOwner {... */\n    tag_17:\n      tag_75\n      0x04\n      dup1\n      calldatasize\n      sub\n      dup2\n      add\n      swap1\n      tag_76\n      swap2\n      swap1\n      tag_77\n      jump\t// in\n    tag_76:\n      tag_78\n      jump\t// in\n    tag_75:\n      stop\n        /* \"wasser/staking.sol\":537:566  uint256 public minStakeAmount */\n    tag_18:\n      tag_79\n      tag_80\n      jump\t// in\n    tag_79:\n      mload(0x40)\n      tag_81\n      swap2\n      swap1\n      tag_44\n      jump\t// in\n    tag_81:\n      mload(0x40)\n      dup1\n      swap2\n      sub\n      swap1\n      return\n        /* \"wasser/staking.sol\":3176:3264  function transferOwnership(address _address) external onlyOwner{... */\n    tag_19:\n      tag_82\n      0x04\n      dup1\n      calldatasize\n      sub\n      dup2\n      add\n      swap1\n      tag_83\n      swap2\n      swap1\n      tag_77\n      jump\t// in\n    tag_83:\n      tag_84\n      jump\t// in\n    tag_82:\n      stop\n        /* \"wasser/staking.sol\":986:1005  IERC20 public token */\n    tag_20:\n      tag_85\n      tag_86\n      jump\t// in\n    tag_85:\n      mload(0x40)\n      tag_87\n      swap2\n      swap1\n      tag_88\n      jump\t// in\n    tag_87:\n      mload(0x40)\n      dup1\n      swap2\n      sub\n      swap1\n      return\n        /* \"wasser/staking.sol\":2432:2532  function updateMinAmount(uint256 _minAmount) external onlyOwner {... */\n    tag_21:\n      tag_89\n      0x04\n      dup1\n      calldatasize\n      sub\n      dup2\n      add\n      swap1\n      tag_90\n      swap2\n      swap1\n      tag_27\n      jump\t// in\n    tag_90:\n      tag_91\n      jump\t// in\n    tag_89:\n      stop\n        /* \"wasser/staking.sol\":2537:2637  function updateMaxAmount(uint256 _maxAmount) external onlyOwner {... */\n    tag_28:\n        /* \"wasser/staking.sol\":805:810  owner */\n      0x04\n      0x00\n      swap1\n      sload\n      swap1\n      0x0100\n      exp\n      swap1\n      div\n      0xffffffffffffffffffffffffffffffffffffffff\n      and\n        /* \"wasser/staking.sol\":791:810  msg.sender == owner */\n      0xffffffffffffffffffffffffffffffffffffffff\n      and\n        /* \"wasser/staking.sol\":791:801  msg.sender */\n      caller\n        /* \"wasser/staking.sol\":791:810  msg.sender == owner */\n      0xffffffffffffffffffffffffffffffffffffffff\n      and\n      eq\n        /* \"wasser/staking.sol\":783:838  require(msg.sender == owner, \"only admins are allowed\") */\n      tag_93\n      jumpi\n      mload(0x40)\n      0x08c379a000000000000000000000000000000000000000000000000000000000\n      dup2\n      mstore\n      0x04\n      add\n      tag_94\n      swap1\n      tag_95\n      jump\t// in\n    tag_94:\n      mload(0x40)\n      dup1\n      swap2\n      sub\n      swap1\n      revert\n    tag_93:\n        /* \"wasser/staking.sol\":2622:2632  _maxAmount */\n      dup1\n        /* \"wasser/staking.sol\":2605:2619  maxStakeAmount */\n      0x03\n        /* \"wasser/staking.sol\":2605:2632  maxStakeAmount = _maxAmount */\n      dup2\n      swap1\n      sstore\n      pop\n        /* \"wasser/staking.sol\":2537:2637  function updateMaxAmount(uint256 _maxAmount) external onlyOwner {... */\n      pop\n      jump\t// out\n        /* \"wasser/staking.sol\":1711:2205  function unstake(uint256 _month) external nonReentrant {... */\n    tag_31:\n        /* \"@openzeppelin/contracts/security/ReentrancyGuard.sol\":2261:2282  _nonReentrantBefore() */\n      tag_98\n        /* \"@openzeppelin/contracts/security/ReentrancyGuard.sol\":2261:2280  _nonReentrantBefore */\n      tag_99\n        /* \"@openzeppelin/contracts/security/ReentrancyGuard.sol\":2261:2282  _nonReentrantBefore() */\n      jump\t// in\n    tag_98:\n        /* \"wasser/staking.sol\":1770:1787  User storage user */\n      0x00\n        /* \"wasser/staking.sol\":1790:1807  userMonthToAmount */\n      0x05\n        /* \"wasser/staking.sol\":1790:1819  userMonthToAmount[msg.sender] */\n      0x00\n        /* \"wasser/staking.sol\":1808:1818  msg.sender */\n      caller\n        /* \"wasser/staking.sol\":1790:1819  userMonthToAmount[msg.sender] */\n      0xffffffffffffffffffffffffffffffffffffffff\n      and\n      0xffffffffffffffffffffffffffffffffffffffff\n      and\n      dup2\n      mstore\n      0x20\n      add\n      swap1\n      dup2\n      mstore\n      0x20\n      add\n      0x00\n      keccak256\n        /* \"wasser/staking.sol\":1790:1827  userMonthToAmount[msg.sender][_month] */\n      0x00\n        /* \"wasser/staking.sol\":1820:1826  _month */\n      dup4\n        /* \"wasser/staking.sol\":1790:1827  userMonthToAmount[msg.sender][_month] */\n      dup2\n      mstore\n      0x20\n      add\n      swap1\n      dup2\n      mstore\n      0x20\n      add\n      0x00\n      keccak256\n        /* \"wasser/staking.sol\":1770:1827  User storage user = userMonthToAmount[msg.sender][_month] */\n      swap1\n      pop\n        /* \"wasser/staking.sol\":1831:1845  uint256 amount */\n      0x00\n        /* \"wasser/staking.sol\":1848:1852  user */\n      dup2\n        /* \"wasser/staking.sol\":1848:1859  user.amount */\n      0x00\n      add\n      sload\n        /* \"wasser/staking.sol\":1831:1859  uint256 amount = user.amount */\n      swap1\n      pop\n        /* \"wasser/staking.sol\":1880:1881  0 */\n      0x00\n        /* \"wasser/staking.sol\":1871:1877  amount */\n      dup2\n        /* \"wasser/staking.sol\":1871:1881  amount > 0 */\n      gt\n        /* \"wasser/staking.sol\":1863:1907  require(amount > 0, \"no unstake data found\") */\n      tag_101\n      jumpi\n      mload(0x40)\n      0x08c379a000000000000000000000000000000000000000000000000000000000\n      dup2\n      mstore\n      0x04\n      add\n      tag_102\n      swap1\n      tag_103\n      jump\t// in\n    tag_102:\n      mload(0x40)\n      dup1\n      swap2\n      sub\n      swap1\n      revert\n    tag_101:\n        /* \"wasser/staking.sol\":1937:1941  user */\n      dup2\n        /* \"wasser/staking.sol\":1937:1950  user.deadline */\n      0x01\n      add\n      sload\n        /* \"wasser/staking.sol\":1919:1934  block.timestamp */\n      timestamp\n        /* \"wasser/staking.sol\":1919:1950  block.timestamp > user.deadline */\n      gt\n        /* \"wasser/staking.sol\":1911:1976  require(block.timestamp > user.deadline, \"period is not expired\") */\n      tag_104\n      jumpi\n      mload(0x40)\n      0x08c379a000000000000000000000000000000000000000000000000000000000\n      dup2\n      mstore\n      0x04\n      add\n      tag_105\n      swap1\n      tag_106\n      jump\t// in\n    tag_105:\n      mload(0x40)\n      dup1\n      swap2\n      sub\n      swap1\n      revert\n    tag_104:\n        /* \"wasser/staking.sol\":1980:2000  uint256 interestRate */\n      0x00\n        /* \"wasser/staking.sol\":2003:2022  monthToInterestRate */\n      0x06\n        /* \"wasser/staking.sol\":2003:2030  monthToInterestRate[_month] */\n      0x00\n        /* \"wasser/staking.sol\":2023:2029  _month */\n      dup6\n        /* \"wasser/staking.sol\":2003:2030  monthToInterestRate[_month] */\n      dup2\n      mstore\n      0x20\n      add\n      swap1\n      dup2\n      mstore\n      0x20\n      add\n      0x00\n      keccak256\n      sload\n        /* \"wasser/staking.sol\":1980:2030  uint256 interestRate = monthToInterestRate[_month] */\n      swap1\n      pop\n        /* \"wasser/staking.sol\":2034:2048  uint256 reward */\n      0x00\n        /* \"wasser/staking.sol\":2051:2096  calculateReward(amount, interestRate, _month) */\n      tag_107\n        /* \"wasser/staking.sol\":2067:2073  amount */\n      dup4\n        /* \"wasser/staking.sol\":2075:2087  interestRate */\n      dup4\n        /* \"wasser/staking.sol\":2089:2095  _month */\n      dup8\n        /* \"wasser/staking.sol\":2051:2066  calculateReward */\n      tag_73\n        /* \"wasser/staking.sol\":2051:2096  calculateReward(amount, interestRate, _month) */\n      jump\t// in\n    tag_107:\n        /* \"wasser/staking.sol\":2034:2096  uint256 reward = calculateReward(amount, interestRate, _month) */\n      swap1\n      pop\n        /* \"wasser/staking.sol\":2102:2152  token.safeTransfer(msg.sender, amount.add(reward)) */\n      tag_108\n        /* \"wasser/staking.sol\":2121:2131  msg.sender */\n      caller\n        /* \"wasser/staking.sol\":2133:2151  amount.add(reward) */\n      tag_109\n        /* \"wasser/staking.sol\":2144:2150  reward */\n      dup4\n        /* \"wasser/staking.sol\":2133:2139  amount */\n      dup7\n        /* \"wasser/staking.sol\":2133:2143  amount.add */\n      tag_110\n      swap1\n        /* \"wasser/staking.sol\":2133:2151  amount.add(reward) */\n      swap2\n      swap1\n      0xffffffff\n      and\n      jump\t// in\n    tag_109:\n        /* \"wasser/staking.sol\":2102:2107  token */\n      0x07\n      0x00\n      swap1\n      sload\n      swap1\n      0x0100\n      exp\n      swap1\n      div\n      0xffffffffffffffffffffffffffffffffffffffff\n      and\n        /* \"wasser/staking.sol\":2102:2120  token.safeTransfer */\n      0xffffffffffffffffffffffffffffffffffffffff\n      and\n      tag_111\n      swap1\n        /* \"wasser/staking.sol\":2102:2152  token.safeTransfer(msg.sender, amount.add(reward)) */\n      swap3\n      swap2\n      swap1\n      0xffffffff\n      and\n      jump\t// in\n    tag_108:\n        /* \"wasser/staking.sol\":2163:2180  userMonthToAmount */\n      0x05\n        /* \"wasser/staking.sol\":2163:2192  userMonthToAmount[msg.sender] */\n      0x00\n        /* \"wasser/staking.sol\":2181:2191  msg.sender */\n      caller\n        /* \"wasser/staking.sol\":2163:2192  userMonthToAmount[msg.sender] */\n      0xffffffffffffffffffffffffffffffffffffffff\n      and\n      0xffffffffffffffffffffffffffffffffffffffff\n      and\n      dup2\n      mstore\n      0x20\n      add\n      swap1\n      dup2\n      mstore\n      0x20\n      add\n      0x00\n      keccak256\n        /* \"wasser/staking.sol\":2163:2200  userMonthToAmount[msg.sender][_month] */\n      0x00\n        /* \"wasser/staking.sol\":2193:2199  _month */\n      dup7\n        /* \"wasser/staking.sol\":2163:2200  userMonthToAmount[msg.sender][_month] */\n      dup2\n      mstore\n      0x20\n      add\n      swap1\n      dup2\n      mstore\n      0x20\n      add\n      0x00\n      keccak256\n      0x00\n        /* \"wasser/staking.sol\":2156:2200  delete userMonthToAmount[msg.sender][_month] */\n      dup1\n      dup3\n      add\n      0x00\n      swap1\n      sstore\n      0x01\n      dup3\n      add\n      0x00\n      swap1\n      sstore\n      pop\n      pop\n        /* \"wasser/staking.sol\":1766:2205  {... */\n      pop\n      pop\n      pop\n      pop\n        /* \"@openzeppelin/contracts/security/ReentrancyGuard.sol\":2303:2323  _nonReentrantAfter() */\n      tag_112\n        /* \"@openzeppelin/contracts/security/ReentrancyGuard.sol\":2303:2321  _nonReentrantAfter */\n      tag_113\n        /* \"@openzeppelin/contracts/security/ReentrancyGuard.sol\":2303:2323  _nonReentrantAfter() */\n      jump\t// in\n    tag_112:\n        /* \"wasser/staking.sol\":1711:2205  function unstake(uint256 _month) external nonReentrant {... */\n      pop\n      jump\t// out\n        /* \"wasser/staking.sol\":2642:2904  function withdraw(uint256 _amount) external onlyOwner {... */\n    tag_34:\n        /* \"wasser/staking.sol\":805:810  owner */\n      0x04\n      0x00\n      swap1\n      sload\n      swap1\n      0x0100\n      exp\n      swap1\n      div\n      0xffffffffffffffffffffffffffffffffffffffff\n      and\n        /* \"wasser/staking.sol\":791:810  msg.sender == owner */\n      0xffffffffffffffffffffffffffffffffffffffff\n      and\n        /* \"wasser/staking.sol\":791:801  msg.sender */\n      caller\n        /* \"wasser/staking.sol\":791:810  msg.sender == owner */\n      0xffffffffffffffffffffffffffffffffffffffff\n      and\n      eq\n        /* \"wasser/staking.sol\":783:838  require(msg.sender == owner, \"only admins are allowed\") */\n      tag_115\n      jumpi\n      mload(0x40)\n      0x08c379a000000000000000000000000000000000000000000000000000000000\n      dup2\n      mstore\n      0x04\n      add\n      tag_116\n      swap1\n      tag_95\n      jump\t// in\n    tag_116:\n      mload(0x40)\n      dup1\n      swap2\n      sub\n      swap1\n      revert\n    tag_115:\n        /* \"wasser/staking.sol\":2700:2723  uint256 contractBalance */\n      0x00\n        /* \"wasser/staking.sol\":2726:2731  token */\n      0x07\n      0x00\n      swap1\n      sload\n      swap1\n      0x0100\n      exp\n      swap1\n      div\n      0xffffffffffffffffffffffffffffffffffffffff\n      and\n        /* \"wasser/staking.sol\":2726:2741  token.balanceOf */\n      0xffffffffffffffffffffffffffffffffffffffff\n      and\n      0x70a08231\n        /* \"wasser/staking.sol\":2750:2754  this */\n      address\n        /* \"wasser/staking.sol\":2726:2756  token.balanceOf(address(this)) */\n      mload(0x40)\n      dup3\n      0xffffffff\n      and\n      0xe0\n      shl\n      dup2\n      mstore\n      0x04\n      add\n      tag_118\n      swap2\n      swap1\n      tag_59\n      jump\t// in\n    tag_118:\n      0x20\n      mload(0x40)\n      dup1\n      dup4\n      sub\n      dup2\n      dup7\n      gas\n      staticcall\n      iszero\n      dup1\n      iszero\n      tag_120\n      jumpi\n      returndatasize\n      0x00\n      dup1\n      returndatacopy\n      revert(0x00, returndatasize)\n    tag_120:\n      pop\n      pop\n      pop\n      pop\n      mload(0x40)\n      returndatasize\n      not(0x1f)\n      0x1f\n      dup3\n      add\n      and\n      dup3\n      add\n      dup1\n      0x40\n      mstore\n      pop\n      dup2\n      add\n      swap1\n      tag_121\n      swap2\n      swap1\n      tag_122\n      jump\t// in\n    tag_121:\n        /* \"wasser/staking.sol\":2700:2756  uint256 contractBalance = token.balanceOf(address(this)) */\n      swap1\n      pop\n        /* \"wasser/staking.sol\":2790:2797  _amount */\n      dup2\n        /* \"wasser/staking.sol\":2771:2786  contractBalance */\n      dup2\n        /* \"wasser/staking.sol\":2771:2797  contractBalance >= _amount */\n      lt\n      iszero\n        /* \"wasser/staking.sol\":2760:2856  require(... */\n      tag_123\n      jumpi\n      mload(0x40)\n      0x08c379a000000000000000000000000000000000000000000000000000000000\n      dup2\n      mstore\n      0x04\n      add\n      tag_124\n      swap1\n      tag_125\n      jump\t// in\n    tag_124:\n      mload(0x40)\n      dup1\n      swap2\n      sub\n      swap1\n      revert\n    tag_123:\n        /* \"wasser/staking.sol\":2860:2899  token.safeTransfer(msg.sender, _amount) */\n      tag_126\n        /* \"wasser/staking.sol\":2879:2889  msg.sender */\n      caller\n        /* \"wasser/staking.sol\":2891:2898  _amount */\n      dup4\n        /* \"wasser/staking.sol\":2860:2865  token */\n      0x07\n      0x00\n      swap1\n      sload\n      swap1\n      0x0100\n      exp\n      swap1\n      div\n      0xffffffffffffffffffffffffffffffffffffffff\n      and\n        /* \"wasser/staking.sol\":2860:2878  token.safeTransfer */\n      0xffffffffffffffffffffffffffffffffffffffff\n      and\n      tag_111\n      swap1\n        /* \"wasser/staking.sol\":2860:2899  token.safeTransfer(msg.sender, _amount) */\n      swap3\n      swap2\n      swap1\n      0xffffffff\n      and\n      jump\t// in\n    tag_126:\n        /* \"wasser/staking.sol\":2696:2904  {... */\n      pop\n        /* \"wasser/staking.sol\":2642:2904  function withdraw(uint256 _amount) external onlyOwner {... */\n      pop\n      jump\t// out\n        /* \"wasser/staking.sol\":3116:3171  function unpause() public onlyOwner {... */\n    tag_36:\n        /* \"wasser/staking.sol\":805:810  owner */\n      0x04\n      0x00\n      swap1\n      sload\n      swap1\n      0x0100\n      exp\n      swap1\n      div\n      0xffffffffffffffffffffffffffffffffffffffff\n      and\n        /* \"wasser/staking.sol\":791:810  msg.sender == owner */\n      0xffffffffffffffffffffffffffffffffffffffff\n      and\n        /* \"wasser/staking.sol\":791:801  msg.sender */\n      caller\n        /* \"wasser/staking.sol\":791:810  msg.sender == owner */\n      0xffffffffffffffffffffffffffffffffffffffff\n      and\n      eq\n        /* \"wasser/staking.sol\":783:838  require(msg.sender == owner, \"only admins are allowed\") */\n      tag_128\n      jumpi\n      mload(0x40)\n      0x08c379a000000000000000000000000000000000000000000000000000000000\n      dup2\n      mstore\n      0x04\n      add\n      tag_129\n      swap1\n      tag_95\n      jump\t// in\n    tag_129:\n      mload(0x40)\n      dup1\n      swap2\n      sub\n      swap1\n      revert\n    tag_128:\n        /* \"wasser/staking.sol\":3156:3166  _unpause() */\n      tag_131\n        /* \"wasser/staking.sol\":3156:3164  _unpause */\n      tag_132\n        /* \"wasser/staking.sol\":3156:3166  _unpause() */\n      jump\t// in\n    tag_131:\n        /* \"wasser/staking.sol\":3116:3171  function unpause() public onlyOwner {... */\n      jump\t// out\n        /* \"@openzeppelin/contracts/security/Pausable.sol\":1615:1699  function paused() public view virtual returns (bool) {... */\n    tag_38:\n        /* \"@openzeppelin/contracts/security/Pausable.sol\":1662:1666  bool */\n      0x00\n        /* \"@openzeppelin/contracts/security/Pausable.sol\":1685:1692  _paused */\n      dup1\n      0x00\n      swap1\n      sload\n      swap1\n      0x0100\n      exp\n      swap1\n      div\n      0xff\n      and\n        /* \"@openzeppelin/contracts/security/Pausable.sol\":1678:1692  return _paused */\n      swap1\n      pop\n        /* \"@openzeppelin/contracts/security/Pausable.sol\":1615:1699  function paused() public view virtual returns (bool) {... */\n      swap1\n      jump\t// out\n        /* \"wasser/staking.sol\":570:599  uint256 public maxStakeAmount */\n    tag_42:\n      sload(0x03)\n      dup2\n      jump\t// out\n        /* \"wasser/staking.sol\":2909:3055  function setMonthInterestRate(uint256 _month, uint256 _interestRate)... */\n    tag_48:\n        /* \"wasser/staking.sol\":805:810  owner */\n      0x04\n      0x00\n      swap1\n      sload\n      swap1\n      0x0100\n      exp\n      swap1\n      div\n      0xffffffffffffffffffffffffffffffffffffffff\n      and\n        /* \"wasser/staking.sol\":791:810  msg.sender == owner */\n      0xffffffffffffffffffffffffffffffffffffffff\n      and\n        /* \"wasser/staking.sol\":791:801  msg.sender */\n      caller\n        /* \"wasser/staking.sol\":791:810  msg.sender == owner */\n      0xffffffffffffffffffffffffffffffffffffffff\n      and\n      eq\n        /* \"wasser/staking.sol\":783:838  require(msg.sender == owner, \"only admins are allowed\") */\n      tag_135\n      jumpi\n      mload(0x40)\n      0x08c379a000000000000000000000000000000000000000000000000000000000\n      dup2\n      mstore\n      0x04\n      add\n      tag_136\n      swap1\n      tag_95\n      jump\t// in\n    tag_136:\n      mload(0x40)\n      dup1\n      swap2\n      sub\n      swap1\n      revert\n    tag_135:\n        /* \"wasser/staking.sol\":3037:3050  _interestRate */\n      dup1\n        /* \"wasser/staking.sol\":3007:3026  monthToInterestRate */\n      0x06\n        /* \"wasser/staking.sol\":3007:3034  monthToInterestRate[_month] */\n      0x00\n        /* \"wasser/staking.sol\":3027:3033  _month */\n      dup5\n        /* \"wasser/staking.sol\":3007:3034  monthToInterestRate[_month] */\n      dup2\n      mstore\n      0x20\n      add\n      swap1\n      dup2\n      mstore\n      0x20\n      add\n      0x00\n      keccak256\n        /* \"wasser/staking.sol\":3007:3050  monthToInterestRate[_month] = _interestRate */\n      dup2\n      swap1\n      sstore\n      pop\n        /* \"wasser/staking.sol\":2909:3055  function setMonthInterestRate(uint256 _month, uint256 _interestRate)... */\n      pop\n      pop\n      jump\t// out\n        /* \"wasser/staking.sol\":1106:1706  function stake(uint256 _amount, uint256 _month)... */\n    tag_51:\n        /* \"@openzeppelin/contracts/security/Pausable.sol\":1239:1258  _requireNotPaused() */\n      tag_139\n        /* \"@openzeppelin/contracts/security/Pausable.sol\":1239:1256  _requireNotPaused */\n      tag_140\n        /* \"@openzeppelin/contracts/security/Pausable.sol\":1239:1258  _requireNotPaused() */\n      jump\t// in\n    tag_139:\n        /* \"@openzeppelin/contracts/security/ReentrancyGuard.sol\":2261:2282  _nonReentrantBefore() */\n      tag_142\n        /* \"@openzeppelin/contracts/security/ReentrancyGuard.sol\":2261:2280  _nonReentrantBefore */\n      tag_99\n        /* \"@openzeppelin/contracts/security/ReentrancyGuard.sol\":2261:2282  _nonReentrantBefore() */\n      jump\t// in\n    tag_142:\n        /* \"wasser/staking.sol\":1221:1235  minStakeAmount */\n      sload(0x02)\n        /* \"wasser/staking.sol\":1210:1217  _amount */\n      dup3\n        /* \"wasser/staking.sol\":1210:1235  _amount >= minStakeAmount */\n      lt\n      iszero\n        /* \"wasser/staking.sol\":1202:1255  require(_amount >= minStakeAmount, \"add more amount\") */\n      tag_144\n      jumpi\n      mload(0x40)\n      0x08c379a000000000000000000000000000000000000000000000000000000000\n      dup2\n      mstore\n      0x04\n      add\n      tag_145\n      swap1\n      tag_146\n      jump\t// in\n    tag_145:\n      mload(0x40)\n      dup1\n      swap2\n      sub\n      swap1\n      revert\n    tag_144:\n        /* \"wasser/staking.sol\":1278:1292  maxStakeAmount */\n      sload(0x03)\n        /* \"wasser/staking.sol\":1267:1274  _amount */\n      dup3\n        /* \"wasser/staking.sol\":1267:1292  _amount <= maxStakeAmount */\n      gt\n      iszero\n        /* \"wasser/staking.sol\":1259:1312  require(_amount <= maxStakeAmount, \"add less amount\") */\n      tag_147\n      jumpi\n      mload(0x40)\n      0x08c379a000000000000000000000000000000000000000000000000000000000\n      dup2\n      mstore\n      0x04\n      add\n      tag_148\n      swap1\n      tag_149\n      jump\t// in\n    tag_148:\n      mload(0x40)\n      dup1\n      swap2\n      sub\n      swap1\n      revert\n    tag_147:\n        /* \"wasser/staking.sol\":1316:1336  uint256 interestRate */\n      0x00\n        /* \"wasser/staking.sol\":1339:1358  monthToInterestRate */\n      0x06\n        /* \"wasser/staking.sol\":1339:1366  monthToInterestRate[_month] */\n      0x00\n        /* \"wasser/staking.sol\":1359:1365  _month */\n      dup4\n        /* \"wasser/staking.sol\":1339:1366  monthToInterestRate[_month] */\n      dup2\n      mstore\n      0x20\n      add\n      swap1\n      dup2\n      mstore\n      0x20\n      add\n      0x00\n      keccak256\n      sload\n        /* \"wasser/staking.sol\":1316:1366  uint256 interestRate = monthToInterestRate[_month] */\n      swap1\n      pop\n        /* \"wasser/staking.sol\":1393:1394  0 */\n      0x00\n        /* \"wasser/staking.sol\":1378:1390  interestRate */\n      dup2\n        /* \"wasser/staking.sol\":1378:1394  interestRate > 0 */\n      gt\n        /* \"wasser/staking.sol\":1370:1412  require(interestRate > 0, \"invalid month\") */\n      tag_150\n      jumpi\n      mload(0x40)\n      0x08c379a000000000000000000000000000000000000000000000000000000000\n      dup2\n      mstore\n      0x04\n      add\n      tag_151\n      swap1\n      tag_152\n      jump\t// in\n    tag_151:\n      mload(0x40)\n      dup1\n      swap2\n      sub\n      swap1\n      revert\n    tag_150:\n        /* \"wasser/staking.sol\":1418:1435  User storage user */\n      0x00\n        /* \"wasser/staking.sol\":1438:1455  userMonthToAmount */\n      0x05\n        /* \"wasser/staking.sol\":1438:1467  userMonthToAmount[msg.sender] */\n      0x00\n        /* \"wasser/staking.sol\":1456:1466  msg.sender */\n      caller\n        /* \"wasser/staking.sol\":1438:1467  userMonthToAmount[msg.sender] */\n      0xffffffffffffffffffffffffffffffffffffffff\n      and\n      0xffffffffffffffffffffffffffffffffffffffff\n      and\n      dup2\n      mstore\n      0x20\n      add\n      swap1\n      dup2\n      mstore\n      0x20\n      add\n      0x00\n      keccak256\n        /* \"wasser/staking.sol\":1438:1475  userMonthToAmount[msg.sender][_month] */\n      0x00\n        /* \"wasser/staking.sol\":1468:1474  _month */\n      dup5\n        /* \"wasser/staking.sol\":1438:1475  userMonthToAmount[msg.sender][_month] */\n      dup2\n      mstore\n      0x20\n      add\n      swap1\n      dup2\n      mstore\n      0x20\n      add\n      0x00\n      keccak256\n        /* \"wasser/staking.sol\":1418:1475  User storage user = userMonthToAmount[msg.sender][_month] */\n      swap1\n      pop\n        /* \"wasser/staking.sol\":1502:1503  0 */\n      0x00\n        /* \"wasser/staking.sol\":1487:1491  user */\n      dup2\n        /* \"wasser/staking.sol\":1487:1498  user.amount */\n      0x00\n      add\n      sload\n        /* \"wasser/staking.sol\":1487:1503  user.amount == 0 */\n      eq\n        /* \"wasser/staking.sol\":1479:1522  require(user.amount == 0, \"already staked\") */\n      tag_153\n      jumpi\n      mload(0x40)\n      0x08c379a000000000000000000000000000000000000000000000000000000000\n      dup2\n      mstore\n      0x04\n      add\n      tag_154\n      swap1\n      tag_155\n      jump\t// in\n    tag_154:\n      mload(0x40)\n      dup1\n      swap2\n      sub\n      swap1\n      revert\n    tag_153:\n        /* \"wasser/staking.sol\":1528:1586  token.safeTransferFrom(msg.sender, address(this), _amount) */\n      tag_156\n        /* \"wasser/staking.sol\":1551:1561  msg.sender */\n      caller\n        /* \"wasser/staking.sol\":1571:1575  this */\n      address\n        /* \"wasser/staking.sol\":1578:1585  _amount */\n      dup7\n        /* \"wasser/staking.sol\":1528:1533  token */\n      0x07\n      0x00\n      swap1\n      sload\n      swap1\n      0x0100\n      exp\n      swap1\n      div\n      0xffffffffffffffffffffffffffffffffffffffff\n      and\n        /* \"wasser/staking.sol\":1528:1550  token.safeTransferFrom */\n      0xffffffffffffffffffffffffffffffffffffffff\n      and\n      tag_157\n      swap1\n        /* \"wasser/staking.sol\":1528:1586  token.safeTransferFrom(msg.sender, address(this), _amount) */\n      swap4\n      swap3\n      swap2\n      swap1\n      0xffffffff\n      and\n      jump\t// in\n    tag_156:\n        /* \"wasser/staking.sol\":1604:1611  _amount */\n      dup4\n        /* \"wasser/staking.sol\":1590:1594  user */\n      dup2\n        /* \"wasser/staking.sol\":1590:1601  user.amount */\n      0x00\n      add\n        /* \"wasser/staking.sol\":1590:1611  user.amount = _amount */\n      dup2\n      swap1\n      sstore\n      pop\n        /* \"wasser/staking.sol\":1631:1663  block.timestamp.add(_month * 60) */\n      tag_158\n        /* \"wasser/staking.sol\":1660:1662  60 */\n      0x3c\n        /* \"wasser/staking.sol\":1651:1657  _month */\n      dup5\n        /* \"wasser/staking.sol\":1651:1662  _month * 60 */\n      tag_159\n      swap2\n      swap1\n      tag_160\n      jump\t// in\n    tag_159:\n        /* \"wasser/staking.sol\":1631:1646  block.timestamp */\n      timestamp\n        /* \"wasser/staking.sol\":1631:1650  block.timestamp.add */\n      tag_110\n      swap1\n        /* \"wasser/staking.sol\":1631:1663  block.timestamp.add(_month * 60) */\n      swap2\n      swap1\n      0xffffffff\n      and\n      jump\t// in\n    tag_158:\n        /* \"wasser/staking.sol\":1615:1619  user */\n      dup2\n        /* \"wasser/staking.sol\":1615:1628  user.deadline */\n      0x01\n      add\n        /* \"wasser/staking.sol\":1615:1663  user.deadline = block.timestamp.add(_month * 60) */\n      dup2\n      swap1\n      sstore\n      pop\n        /* \"wasser/staking.sol\":1198:1706  {... */\n      pop\n      pop\n        /* \"@openzeppelin/contracts/security/ReentrancyGuard.sol\":2303:2323  _nonReentrantAfter() */\n      tag_161\n        /* \"@openzeppelin/contracts/security/ReentrancyGuard.sol\":2303:2321  _nonReentrantAfter */\n      tag_113\n        /* \"@openzeppelin/contracts/security/ReentrancyGuard.sol\":2303:2323  _nonReentrantAfter() */\n      jump\t// in\n    tag_161:\n        /* \"wasser/staking.sol\":1106:1706  function stake(uint256 _amount, uint256 _month)... */\n      pop\n      pop\n      jump\t// out\n        /* \"wasser/staking.sol\":685:753  function initialize() public initializer {... */\n    tag_53:\n        /* \"@openzeppelin/contracts-upgradeable/proxy/utils/Initializable.sol\":4158:4188  InitializableStorage storage $ */\n      0x00\n        /* \"@openzeppelin/contracts-upgradeable/proxy/utils/Initializable.sol\":4191:4217  _getInitializableStorage() */\n      tag_163\n        /* \"@openzeppelin/contracts-upgradeable/proxy/utils/Initializable.sol\":4191:4215  _getInitializableStorage */\n      tag_164\n        /* \"@openzeppelin/contracts-upgradeable/proxy/utils/Initializable.sol\":4191:4217  _getInitializableStorage() */\n      jump\t// in\n    tag_163:\n        /* \"@openzeppelin/contracts-upgradeable/proxy/utils/Initializable.sol\":4158:4217  InitializableStorage storage $ = _getInitializableStorage() */\n      swap1\n      pop\n        /* \"@openzeppelin/contracts-upgradeable/proxy/utils/Initializable.sol\":4279:4298  bool isTopLevelCall */\n      0x00\n        /* \"@openzeppelin/contracts-upgradeable/proxy/utils/Initializable.sol\":4302:4303  $ */\n      dup2\n        /* \"@openzeppelin/contracts-upgradeable/proxy/utils/Initializable.sol\":4302:4317  $._initializing */\n      0x00\n      add\n      0x08\n      swap1\n      sload\n      swap1\n      0x0100\n      exp\n      swap1\n      div\n      0xff\n      and\n        /* \"@openzeppelin/contracts-upgradeable/proxy/utils/Initializable.sol\":4301:4317  !$._initializing */\n      iszero\n        /* \"@openzeppelin/contracts-upgradeable/proxy/utils/Initializable.sol\":4279:4317  bool isTopLevelCall = !$._initializing */\n      swap1\n      pop\n        /* \"@openzeppelin/contracts-upgradeable/proxy/utils/Initializable.sol\":4327:4345  uint64 initialized */\n      0x00\n        /* \"@openzeppelin/contracts-upgradeable/proxy/utils/Initializable.sol\":4348:4349  $ */\n      dup3\n        /* \"@openzeppelin/contracts-upgradeable/proxy/utils/Initializable.sol\":4348:4362  $._initialized */\n      0x00\n      add\n      0x00\n      swap1\n      sload\n      swap1\n      0x0100\n      exp\n      swap1\n      div\n      0xffffffffffffffff\n      and\n        /* \"@openzeppelin/contracts-upgradeable/proxy/utils/Initializable.sol\":4327:4362  uint64 initialized = $._initialized */\n      swap1\n      pop\n        /* \"@openzeppelin/contracts-upgradeable/proxy/utils/Initializable.sol\":4706:4723  bool initialSetup */\n      0x00\n        /* \"@openzeppelin/contracts-upgradeable/proxy/utils/Initializable.sol\":4741:4742  0 */\n      dup1\n        /* \"@openzeppelin/contracts-upgradeable/proxy/utils/Initializable.sol\":4726:4737  initialized */\n      dup3\n        /* \"@openzeppelin/contracts-upgradeable/proxy/utils/Initializable.sol\":4726:4742  initialized == 0 */\n      0xffffffffffffffff\n      and\n      eq\n        /* \"@openzeppelin/contracts-upgradeable/proxy/utils/Initializable.sol\":4726:4760  initialized == 0 && isTopLevelCall */\n      dup1\n      iszero\n      tag_165\n      jumpi\n      pop\n        /* \"@openzeppelin/contracts-upgradeable/proxy/utils/Initializable.sol\":4746:4760  isTopLevelCall */\n      dup3\n        /* \"@openzeppelin/contracts-upgradeable/proxy/utils/Initializable.sol\":4726:4760  initialized == 0 && isTopLevelCall */\n    tag_165:\n        /* \"@openzeppelin/contracts-upgradeable/proxy/utils/Initializable.sol\":4706:4760  bool initialSetup = initialized == 0 && isTopLevelCall */\n      swap1\n      pop\n        /* \"@openzeppelin/contracts-upgradeable/proxy/utils/Initializable.sol\":4770:4787  bool construction */\n      0x00\n        /* \"@openzeppelin/contracts-upgradeable/proxy/utils/Initializable.sol\":4805:4806  1 */\n      0x01\n        /* \"@openzeppelin/contracts-upgradeable/proxy/utils/Initializable.sol\":4790:4801  initialized */\n      dup4\n        /* \"@openzeppelin/contracts-upgradeable/proxy/utils/Initializable.sol\":4790:4806  initialized == 1 */\n      0xffffffffffffffff\n      and\n      eq\n        /* \"@openzeppelin/contracts-upgradeable/proxy/utils/Initializable.sol\":4790:4840  initialized == 1 && address(this).code.length == 0 */\n      dup1\n      iszero\n      tag_166\n      jumpi\n      pop\n        /* \"@openzeppelin/contracts-upgradeable/proxy/utils/Initializable.sol\":4839:4840  0 */\n      0x00\n        /* \"@openzeppelin/contracts-upgradeable/proxy/utils/Initializable.sol\":4818:4822  this */\n      address\n        /* \"@openzeppelin/contracts-upgradeable/proxy/utils/Initializable.sol\":4810:4835  address(this).code.length */\n      0xffffffffffffffffffffffffffffffffffffffff\n      and\n      extcodesize\n        /* \"@openzeppelin/contracts-upgradeable/proxy/utils/Initializable.sol\":4810:4840  address(this).code.length == 0 */\n      eq\n        /* \"@openzeppelin/contracts-upgradeable/proxy/utils/Initializable.sol\":4790:4840  initialized == 1 && address(this).code.length == 0 */\n    tag_166:\n        /* \"@openzeppelin/contracts-upgradeable/proxy/utils/Initializable.sol\":4770:4840  bool construction = initialized == 1 && address(this).code.length == 0 */\n      swap1\n      pop\n        /* \"@openzeppelin/contracts-upgradeable/proxy/utils/Initializable.sol\":4856:4868  initialSetup */\n      dup2\n        /* \"@openzeppelin/contracts-upgradeable/proxy/utils/Initializable.sol\":4855:4868  !initialSetup */\n      iszero\n        /* \"@openzeppelin/contracts-upgradeable/proxy/utils/Initializable.sol\":4855:4885  !initialSetup && !construction */\n      dup1\n      iszero\n      tag_167\n      jumpi\n      pop\n        /* \"@openzeppelin/contracts-upgradeable/proxy/utils/Initializable.sol\":4873:4885  construction */\n      dup1\n        /* \"@openzeppelin/contracts-upgradeable/proxy/utils/Initializable.sol\":4872:4885  !construction */\n      iszero\n        /* \"@openzeppelin/contracts-upgradeable/proxy/utils/Initializable.sol\":4855:4885  !initialSetup && !construction */\n    tag_167:\n        /* \"@openzeppelin/contracts-upgradeable/proxy/utils/Initializable.sol\":4851:4942  if (!initialSetup && !construction) {... */\n      iszero\n      tag_168\n      jumpi\n        /* \"@openzeppelin/contracts-upgradeable/proxy/utils/Initializable.sol\":4908:4931  InvalidInitialization() */\n      mload(0x40)\n      0xf92ee8a900000000000000000000000000000000000000000000000000000000\n      dup2\n      mstore\n      0x04\n      add\n      mload(0x40)\n      dup1\n      swap2\n      sub\n      swap1\n      revert\n        /* \"@openzeppelin/contracts-upgradeable/proxy/utils/Initializable.sol\":4851:4942  if (!initialSetup && !construction) {... */\n    tag_168:\n        /* \"@openzeppelin/contracts-upgradeable/proxy/utils/Initializable.sol\":4968:4969  1 */\n      0x01\n        /* \"@openzeppelin/contracts-upgradeable/proxy/utils/Initializable.sol\":4951:4952  $ */\n      dup6\n        /* \"@openzeppelin/contracts-upgradeable/proxy/utils/Initializable.sol\":4951:4965  $._initialized */\n      0x00\n      add\n      0x00\n        /* \"@openzeppelin/contracts-upgradeable/proxy/utils/Initializable.sol\":4951:4969  $._initialized = 1 */\n      0x0100\n      exp\n      dup2\n      sload\n      dup2\n      0xffffffffffffffff\n      mul\n      not\n      and\n      swap1\n      dup4\n      0xffffffffffffffff\n      and\n      mul\n      or\n      swap1\n      sstore\n      pop\n        /* \"@openzeppelin/contracts-upgradeable/proxy/utils/Initializable.sol\":4983:4997  isTopLevelCall */\n      dup4\n        /* \"@openzeppelin/contracts-upgradeable/proxy/utils/Initializable.sol\":4979:5046  if (isTopLevelCall) {... */\n      iszero\n      tag_169\n      jumpi\n        /* \"@openzeppelin/contracts-upgradeable/proxy/utils/Initializable.sol\":5031:5035  true */\n      0x01\n        /* \"@openzeppelin/contracts-upgradeable/proxy/utils/Initializable.sol\":5013:5014  $ */\n      dup6\n        /* \"@openzeppelin/contracts-upgradeable/proxy/utils/Initializable.sol\":5013:5028  $._initializing */\n      0x00\n      add\n      0x08\n        /* \"@openzeppelin/contracts-upgradeable/proxy/utils/Initializable.sol\":5013:5035  $._initializing = true */\n      0x0100\n      exp\n      dup2\n      sload\n      dup2\n      0xff\n      mul\n      not\n      and\n      swap1\n      dup4\n      iszero\n      iszero\n      mul\n      or\n      swap1\n      sstore\n      pop\n        /* \"@openzeppelin/contracts-upgradeable/proxy/utils/Initializable.sol\":4979:5046  if (isTopLevelCall) {... */\n    tag_169:\n        /* \"wasser/staking.sol\":738:748  msg.sender */\n      caller\n        /* \"wasser/staking.sol\":730:735  owner */\n      0x04\n      0x00\n        /* \"wasser/staking.sol\":730:748  owner = msg.sender */\n      0x0100\n      exp\n      dup2\n      sload\n      dup2\n      0xffffffffffffffffffffffffffffffffffffffff\n      mul\n      not\n      and\n      swap1\n      dup4\n      0xffffffffffffffffffffffffffffffffffffffff\n      and\n      mul\n      or\n      swap1\n      sstore\n      pop\n        /* \"@openzeppelin/contracts-upgradeable/proxy/utils/Initializable.sol\":5070:5084  isTopLevelCall */\n      dup4\n        /* \"@openzeppelin/contracts-upgradeable/proxy/utils/Initializable.sol\":5066:5167  if (isTopLevelCall) {... */\n      iszero\n      tag_171\n      jumpi\n        /* \"@openzeppelin/contracts-upgradeable/proxy/utils/Initializable.sol\":5118:5123  false */\n      0x00\n        /* \"@openzeppelin/contracts-upgradeable/proxy/utils/Initializable.sol\":5100:5101  $ */\n      dup6\n        /* \"@openzeppelin/contracts-upgradeable/proxy/utils/Initializable.sol\":5100:5115  $._initializing */\n      0x00\n      add\n      0x08\n        /* \"@openzeppelin/contracts-upgradeable/proxy/utils/Initializable.sol\":5100:5123  $._initializing = false */\n      0x0100\n      exp\n      dup2\n      sload\n      dup2\n      0xff\n      mul\n      not\n      and\n      swap1\n      dup4\n      iszero\n      iszero\n      mul\n      or\n      swap1\n      sstore\n      pop\n        /* \"@openzeppelin/contracts-upgradeable/proxy/utils/Initializable.sol\":5142:5156  Initialized(1) */\n      0xc7f505b2f371ae2175ee4913f4499e1f2633a7b5936321eed1cdaeb6115181d2\n        /* \"@openzeppelin/contracts-upgradeable/proxy/utils/Initializable.sol\":5154:5155  1 */\n      0x01\n        /* \"@openzeppelin/contracts-upgradeable/proxy/utils/Initializable.sol\":5142:5156  Initialized(1) */\n      mload(0x40)\n      tag_172\n      swap2\n      swap1\n      tag_173\n      jump\t// in\n    tag_172:\n      mload(0x40)\n      dup1\n      swap2\n      sub\n      swap1\n      log1\n        /* \"@openzeppelin/contracts-upgradeable/proxy/utils/Initializable.sol\":5066:5167  if (isTopLevelCall) {... */\n    tag_171:\n        /* \"@openzeppelin/contracts-upgradeable/proxy/utils/Initializable.sol\":4092:5173  {... */\n      pop\n      pop\n      pop\n      pop\n      pop\n        /* \"wasser/staking.sol\":685:753  function initialize() public initializer {... */\n      jump\t// out\n        /* \"wasser/staking.sol\":3060:3111  function pause() public onlyOwner {... */\n    tag_55:\n        /* \"wasser/staking.sol\":805:810  owner */\n      0x04\n      0x00\n      swap1\n      sload\n      swap1\n      0x0100\n      exp\n      swap1\n      div\n      0xffffffffffffffffffffffffffffffffffffffff\n      and\n        /* \"wasser/staking.sol\":791:810  msg.sender == owner */\n      0xffffffffffffffffffffffffffffffffffffffff\n      and\n        /* \"wasser/staking.sol\":791:801  msg.sender */\n      caller\n        /* \"wasser/staking.sol\":791:810  msg.sender == owner */\n      0xffffffffffffffffffffffffffffffffffffffff\n      and\n      eq\n        /* \"wasser/staking.sol\":783:838  require(msg.sender == owner, \"only admins are allowed\") */\n      tag_175\n      jumpi\n      mload(0x40)\n      0x08c379a000000000000000000000000000000000000000000000000000000000\n      dup2\n      mstore\n      0x04\n      add\n      tag_176\n      swap1\n      tag_95\n      jump\t// in\n    tag_176:\n      mload(0x40)\n      dup1\n      swap2\n      sub\n      swap1\n      revert\n    tag_175:\n        /* \"wasser/staking.sol\":3098:3106  _pause() */\n      tag_178\n        /* \"wasser/staking.sol\":3098:3104  _pause */\n      tag_179\n        /* \"wasser/staking.sol\":3098:3106  _pause() */\n      jump\t// in\n    tag_178:\n        /* \"wasser/staking.sol\":3060:3111  function pause() public onlyOwner {... */\n      jump\t// out\n        /* \"wasser/staking.sol\":603:623  address public owner */\n    tag_57:\n      0x04\n      0x00\n      swap1\n      sload\n      swap1\n      0x0100\n      exp\n      swap1\n      div\n      0xffffffffffffffffffffffffffffffffffffffff\n      and\n      dup2\n      jump\t// out\n        /* \"wasser/staking.sol\":926:980  mapping(uint256 => uint256) public monthToInterestRate */\n    tag_62:\n      mstore(0x20, 0x06)\n      dup1\n      0x00\n      mstore\n      keccak256(0x00, 0x40)\n      0x00\n      swap2\n      pop\n      swap1\n      pop\n      sload\n      dup2\n      jump\t// out\n        /* \"wasser/staking.sol\":853:922  mapping(address => mapping(uint256 => User)) public userMonthToAmount */\n    tag_67:\n      mstore(0x20, 0x05)\n      dup2\n      0x00\n      mstore\n      mstore(0x20, keccak256(0x00, 0x40))\n      dup1\n      0x00\n      mstore\n      keccak256(0x00, 0x40)\n      0x00\n      swap2\n      pop\n      swap2\n      pop\n      pop\n      dup1\n      0x00\n      add\n      sload\n      swap1\n      dup1\n      0x01\n      add\n      sload\n      swap1\n      pop\n      dup3\n      jump\t// out\n        /* \"wasser/staking.sol\":2210:2427  function calculateReward(... */\n    tag_73:\n        /* \"wasser/staking.sol\":2322:2329  uint256 */\n      0x00\n        /* \"wasser/staking.sol\":2335:2349  uint256 reward */\n      dup1\n        /* \"wasser/staking.sol\":2352:2405  _amount.mul(_interestRate).mul(_month).div(1000 * 12) */\n      tag_181\n        /* \"wasser/staking.sol\":2395:2404  1000 * 12 */\n      0x2ee0\n        /* \"wasser/staking.sol\":2352:2390  _amount.mul(_interestRate).mul(_month) */\n      tag_182\n        /* \"wasser/staking.sol\":2383:2389  _month */\n      dup6\n        /* \"wasser/staking.sol\":2352:2378  _amount.mul(_interestRate) */\n      tag_183\n        /* \"wasser/staking.sol\":2364:2377  _interestRate */\n      dup9\n        /* \"wasser/staking.sol\":2352:2359  _amount */\n      dup11\n        /* \"wasser/staking.sol\":2352:2363  _amount.mul */\n      tag_184\n      swap1\n        /* \"wasser/staking.sol\":2352:2378  _amount.mul(_interestRate) */\n      swap2\n      swap1\n      0xffffffff\n      and\n      jump\t// in\n    tag_183:\n        /* \"wasser/staking.sol\":2352:2382  _amount.mul(_interestRate).mul */\n      tag_184\n      swap1\n        /* \"wasser/staking.sol\":2352:2390  _amount.mul(_interestRate).mul(_month) */\n      swap2\n      swap1\n      0xffffffff\n      and\n      jump\t// in\n    tag_182:\n        /* \"wasser/staking.sol\":2352:2394  _amount.mul(_interestRate).mul(_month).div */\n      tag_185\n      swap1\n        /* \"wasser/staking.sol\":2352:2405  _amount.mul(_interestRate).mul(_month).div(1000 * 12) */\n      swap2\n      swap1\n      0xffffffff\n      and\n      jump\t// in\n    tag_181:\n        /* \"wasser/staking.sol\":2335:2405  uint256 reward = _amount.mul(_interestRate).mul(_month).div(1000 * 12) */\n      swap1\n      pop\n        /* \"wasser/staking.sol\":2416:2422  reward */\n      dup1\n        /* \"wasser/staking.sol\":2409:2422  return reward */\n      swap2\n      pop\n      pop\n        /* \"wasser/staking.sol\":2210:2427  function calculateReward(... */\n      swap4\n      swap3\n      pop\n      pop\n      pop\n      jump\t// out\n        /* \"wasser/staking.sol\":1011:1101  function setAddress(address _address) external onlyOwner {... */\n    tag_78:\n        /* \"wasser/staking.sol\":805:810  owner */\n      0x04\n      0x00\n      swap1\n      sload\n      swap1\n      0x0100\n      exp\n      swap1\n      div\n      0xffffffffffffffffffffffffffffffffffffffff\n      and\n        /* \"wasser/staking.sol\":791:810  msg.sender == owner */\n      0xffffffffffffffffffffffffffffffffffffffff\n      and\n        /* \"wasser/staking.sol\":791:801  msg.sender */\n      caller\n        /* \"wasser/staking.sol\":791:810  msg.sender == owner */\n      0xffffffffffffffffffffffffffffffffffffffff\n      and\n      eq\n        /* \"wasser/staking.sol\":783:838  require(msg.sender == owner, \"only admins are allowed\") */\n      tag_187\n      jumpi\n      mload(0x40)\n      0x08c379a000000000000000000000000000000000000000000000000000000000\n      dup2\n      mstore\n      0x04\n      add\n      tag_188\n      swap1\n      tag_95\n      jump\t// in\n    tag_188:\n      mload(0x40)\n      dup1\n      swap2\n      sub\n      swap1\n      revert\n    tag_187:\n        /* \"wasser/staking.sol\":1087:1095  _address */\n      dup1\n        /* \"wasser/staking.sol\":1072:1077  token */\n      0x07\n      0x00\n        /* \"wasser/staking.sol\":1072:1096  token = IERC20(_address) */\n      0x0100\n      exp\n      dup2\n      sload\n      dup2\n      0xffffffffffffffffffffffffffffffffffffffff\n      mul\n      not\n      and\n      swap1\n      dup4\n      0xffffffffffffffffffffffffffffffffffffffff\n      and\n      mul\n      or\n      swap1\n      sstore\n      pop\n        /* \"wasser/staking.sol\":1011:1101  function setAddress(address _address) external onlyOwner {... */\n      pop\n      jump\t// out\n        /* \"wasser/staking.sol\":537:566  uint256 public minStakeAmount */\n    tag_80:\n      sload(0x02)\n      dup2\n      jump\t// out\n        /* \"wasser/staking.sol\":3176:3264  function transferOwnership(address _address) external onlyOwner{... */\n    tag_84:\n        /* \"wasser/staking.sol\":805:810  owner */\n      0x04\n      0x00\n      swap1\n      sload\n      swap1\n      0x0100\n      exp\n      swap1\n      div\n      0xffffffffffffffffffffffffffffffffffffffff\n      and\n        /* \"wasser/staking.sol\":791:810  msg.sender == owner */\n      0xffffffffffffffffffffffffffffffffffffffff\n      and\n        /* \"wasser/staking.sol\":791:801  msg.sender */\n      caller\n        /* \"wasser/staking.sol\":791:810  msg.sender == owner */\n      0xffffffffffffffffffffffffffffffffffffffff\n      and\n      eq\n        /* \"wasser/staking.sol\":783:838  require(msg.sender == owner, \"only admins are allowed\") */\n      tag_191\n      jumpi\n      mload(0x40)\n      0x08c379a000000000000000000000000000000000000000000000000000000000\n      dup2\n      mstore\n      0x04\n      add\n      tag_192\n      swap1\n      tag_95\n      jump\t// in\n    tag_192:\n      mload(0x40)\n      dup1\n      swap2\n      sub\n      swap1\n      revert\n    tag_191:\n        /* \"wasser/staking.sol\":3251:3259  _address */\n      dup1\n        /* \"wasser/staking.sol\":3243:3248  owner */\n      0x04\n      0x00\n        /* \"wasser/staking.sol\":3243:3259  owner = _address */\n      0x0100\n      exp\n      dup2\n      sload\n      dup2\n      0xffffffffffffffffffffffffffffffffffffffff\n      mul\n      not\n      and\n      swap1\n      dup4\n      0xffffffffffffffffffffffffffffffffffffffff\n      and\n      mul\n      or\n      swap1\n      sstore\n      pop\n        /* \"wasser/staking.sol\":3176:3264  function transferOwnership(address _address) external onlyOwner{... */\n      pop\n      jump\t// out\n        /* \"wasser/staking.sol\":986:1005  IERC20 public token */\n    tag_86:\n      0x07\n      0x00\n      swap1\n      sload\n      swap1\n      0x0100\n      exp\n      swap1\n      div\n      0xffffffffffffffffffffffffffffffffffffffff\n      and\n      dup2\n      jump\t// out\n        /* \"wasser/staking.sol\":2432:2532  function updateMinAmount(uint256 _minAmount) external onlyOwner {... */\n    tag_91:\n        /* \"wasser/staking.sol\":805:810  owner */\n      0x04\n      0x00\n      swap1\n      sload\n      swap1\n      0x0100\n      exp\n      swap1\n      div\n      0xffffffffffffffffffffffffffffffffffffffff\n      and\n        /* \"wasser/staking.sol\":791:810  msg.sender == owner */\n      0xffffffffffffffffffffffffffffffffffffffff\n      and\n        /* \"wasser/staking.sol\":791:801  msg.sender */\n      caller\n        /* \"wasser/staking.sol\":791:810  msg.sender == owner */\n      0xffffffffffffffffffffffffffffffffffffffff\n      and\n      eq\n        /* \"wasser/staking.sol\":783:838  require(msg.sender == owner, \"only admins are allowed\") */\n      tag_195\n      jumpi\n      mload(0x40)\n      0x08c379a000000000000000000000000000000000000000000000000000000000\n      dup2\n      mstore\n      0x04\n      add\n      tag_196\n      swap1\n      tag_95\n      jump\t// in\n    tag_196:\n      mload(0x40)\n      dup1\n      swap2\n      sub\n      swap1\n      revert\n    tag_195:\n        /* \"wasser/staking.sol\":2517:2527  _minAmount */\n      dup1\n        /* \"wasser/staking.sol\":2500:2514  minStakeAmount */\n      0x02\n        /* \"wasser/staking.sol\":2500:2527  minStakeAmount = _minAmount */\n      dup2\n      swap1\n      sstore\n      pop\n        /* \"wasser/staking.sol\":2432:2532  function updateMinAmount(uint256 _minAmount) external onlyOwner {... */\n      pop\n      jump\t// out\n        /* \"@openzeppelin/contracts/security/ReentrancyGuard.sol\":2336:2623  function _nonReentrantBefore() private {... */\n    tag_99:\n        /* \"@openzeppelin/contracts/security/ReentrancyGuard.sol\":1759:1760  2 */\n      0x02\n        /* \"@openzeppelin/contracts/security/ReentrancyGuard.sol\":2468:2475  _status */\n      sload(0x01)\n        /* \"@openzeppelin/contracts/security/ReentrancyGuard.sol\":2468:2487  _status != _ENTERED */\n      sub\n        /* \"@openzeppelin/contracts/security/ReentrancyGuard.sol\":2460:2523  require(_status != _ENTERED, \"ReentrancyGuard: reentrant call\") */\n      tag_199\n      jumpi\n      mload(0x40)\n      0x08c379a000000000000000000000000000000000000000000000000000000000\n      dup2\n      mstore\n      0x04\n      add\n      tag_200\n      swap1\n      tag_201\n      jump\t// in\n    tag_200:\n      mload(0x40)\n      dup1\n      swap2\n      sub\n      swap1\n      revert\n    tag_199:\n        /* \"@openzeppelin/contracts/security/ReentrancyGuard.sol\":1759:1760  2 */\n      0x02\n        /* \"@openzeppelin/contracts/security/ReentrancyGuard.sol\":2598:2605  _status */\n      0x01\n        /* \"@openzeppelin/contracts/security/ReentrancyGuard.sol\":2598:2616  _status = _ENTERED */\n      dup2\n      swap1\n      sstore\n      pop\n        /* \"@openzeppelin/contracts/security/ReentrancyGuard.sol\":2336:2623  function _nonReentrantBefore() private {... */\n      jump\t// out\n        /* \"@openzeppelin/contracts/utils/math/SafeMath.sol\":2755:2851  function add(uint256 a, uint256 b) internal pure returns (uint256) {... */\n    tag_110:\n        /* \"@openzeppelin/contracts/utils/math/SafeMath.sol\":2813:2820  uint256 */\n      0x00\n        /* \"@openzeppelin/contracts/utils/math/SafeMath.sol\":2843:2844  b */\n      dup2\n        /* \"@openzeppelin/contracts/utils/math/SafeMath.sol\":2839:2840  a */\n      dup4\n        /* \"@openzeppelin/contracts/utils/math/SafeMath.sol\":2839:2844  a + b */\n      tag_203\n      swap2\n      swap1\n      tag_204\n      jump\t// in\n    tag_203:\n        /* \"@openzeppelin/contracts/utils/math/SafeMath.sol\":2832:2844  return a + b */\n      swap1\n      pop\n        /* \"@openzeppelin/contracts/utils/math/SafeMath.sol\":2755:2851  function add(uint256 a, uint256 b) internal pure returns (uint256) {... */\n      swap3\n      swap2\n      pop\n      pop\n      jump\t// out\n        /* \"@openzeppelin/contracts/token/ERC20/utils/SafeERC20.sol\":1303:1463  function safeTransfer(IERC20 token, address to, uint256 value) internal {... */\n    tag_111:\n        /* \"@openzeppelin/contracts/token/ERC20/utils/SafeERC20.sol\":1385:1456  _callOptionalReturn(token, abi.encodeCall(token.transfer, (to, value))) */\n      tag_206\n        /* \"@openzeppelin/contracts/token/ERC20/utils/SafeERC20.sol\":1405:1410  token */\n      dup4\n        /* \"@openzeppelin/contracts/token/ERC20/utils/SafeERC20.sol\":1427:1432  token */\n      dup5\n        /* \"@openzeppelin/contracts/token/ERC20/utils/SafeERC20.sol\":1427:1441  token.transfer */\n      0xffffffffffffffffffffffffffffffffffffffff\n      and\n      0xa9059cbb\n        /* \"@openzeppelin/contracts/token/ERC20/utils/SafeERC20.sol\":1444:1446  to */\n      dup6\n        /* \"@openzeppelin/contracts/token/ERC20/utils/SafeERC20.sol\":1448:1453  value */\n      dup6\n        /* \"@openzeppelin/contracts/token/ERC20/utils/SafeERC20.sol\":1412:1455  abi.encodeCall(token.transfer, (to, value)) */\n      add(0x24, mload(0x40))\n      tag_207\n      swap3\n      swap2\n      swap1\n      tag_208\n      jump\t// in\n    tag_207:\n      mload(0x40)\n      0x20\n      dup2\n      dup4\n      sub\n      sub\n      dup2\n      mstore\n      swap1\n      0x40\n      mstore\n      swap2\n      pop\n      0xe0\n      shl\n      0x20\n      dup3\n      add\n      dup1\n      mload\n      0xffffffffffffffffffffffffffffffffffffffffffffffffffffffff\n      dup4\n      dup2\n      dup4\n      and\n      or\n      dup4\n      mstore\n      pop\n      pop\n      pop\n      pop\n        /* \"@openzeppelin/contracts/token/ERC20/utils/SafeERC20.sol\":1385:1404  _callOptionalReturn */\n      tag_209\n        /* \"@openzeppelin/contracts/token/ERC20/utils/SafeERC20.sol\":1385:1456  _callOptionalReturn(token, abi.encodeCall(token.transfer, (to, value))) */\n      jump\t// in\n    tag_206:\n        /* \"@openzeppelin/contracts/token/ERC20/utils/SafeERC20.sol\":1303:1463  function safeTransfer(IERC20 token, address to, uint256 value) internal {... */\n      pop\n      pop\n      pop\n      jump\t// out\n        /* \"@openzeppelin/contracts/security/ReentrancyGuard.sol\":2629:2838  function _nonReentrantAfter() private {... */\n    tag_113:\n        /* \"@openzeppelin/contracts/security/ReentrancyGuard.sol\":1716:1717  1 */\n      0x01\n        /* \"@openzeppelin/contracts/security/ReentrancyGuard.sol\":2809:2816  _status */\n      dup1\n        /* \"@openzeppelin/contracts/security/ReentrancyGuard.sol\":2809:2831  _status = _NOT_ENTERED */\n      dup2\n      swap1\n      sstore\n      pop\n        /* \"@openzeppelin/contracts/security/ReentrancyGuard.sol\":2629:2838  function _nonReentrantAfter() private {... */\n      jump\t// out\n        /* \"@openzeppelin/contracts/security/Pausable.sol\":2433:2550  function _unpause() internal virtual whenPaused {... */\n    tag_132:\n        /* \"@openzeppelin/contracts/security/Pausable.sol\":1486:1502  _requirePaused() */\n      tag_212\n        /* \"@openzeppelin/contracts/security/Pausable.sol\":1486:1500  _requirePaused */\n      tag_213\n        /* \"@openzeppelin/contracts/security/Pausable.sol\":1486:1502  _requirePaused() */\n      jump\t// in\n    tag_212:\n        /* \"@openzeppelin/contracts/security/Pausable.sol\":2501:2506  false */\n      0x00\n        /* \"@openzeppelin/contracts/security/Pausable.sol\":2491:2498  _paused */\n      dup1\n      0x00\n        /* \"@openzeppelin/contracts/security/Pausable.sol\":2491:2506  _paused = false */\n      0x0100\n      exp\n      dup2\n      sload\n      dup2\n      0xff\n      mul\n      not\n      and\n      swap1\n      dup4\n      iszero\n      iszero\n      mul\n      or\n      swap1\n      sstore\n      pop\n        /* \"@openzeppelin/contracts/security/Pausable.sol\":2521:2543  Unpaused(_msgSender()) */\n      0x5db9ee0a495bf2e6ff9c91a7834c1ba4fdd244a5e8aa4e537bd38aeae4b073aa\n        /* \"@openzeppelin/contracts/security/Pausable.sol\":2530:2542  _msgSender() */\n      tag_215\n        /* \"@openzeppelin/contracts/security/Pausable.sol\":2530:2540  _msgSender */\n      tag_216\n        /* \"@openzeppelin/contracts/security/Pausable.sol\":2530:2542  _msgSender() */\n      jump\t// in\n    tag_215:\n        /* \"@openzeppelin/contracts/security/Pausable.sol\":2521:2543  Unpaused(_msgSender()) */\n      mload(0x40)\n      tag_217\n      swap2\n      swap1\n      tag_59\n      jump\t// in\n    tag_217:\n      mload(0x40)\n      dup1\n      swap2\n      sub\n      swap1\n      log1\n        /* \"@openzeppelin/contracts/security/Pausable.sol\":2433:2550  function _unpause() internal virtual whenPaused {... */\n      jump\t// out\n        /* \"@openzeppelin/contracts/security/Pausable.sol\":1767:1873  function _requireNotPaused() internal view virtual {... */\n    tag_140:\n        /* \"@openzeppelin/contracts/security/Pausable.sol\":1837:1845  paused() */\n      tag_219\n        /* \"@openzeppelin/contracts/security/Pausable.sol\":1837:1843  paused */\n      tag_38\n        /* \"@openzeppelin/contracts/security/Pausable.sol\":1837:1845  paused() */\n      jump\t// in\n    tag_219:\n        /* \"@openzeppelin/contracts/security/Pausable.sol\":1836:1845  !paused() */\n      iszero\n        /* \"@openzeppelin/contracts/security/Pausable.sol\":1828:1866  require(!paused(), \"Pausable: paused\") */\n      tag_220\n      jumpi\n      mload(0x40)\n      0x08c379a000000000000000000000000000000000000000000000000000000000\n      dup2\n      mstore\n      0x04\n      add\n      tag_221\n      swap1\n      tag_222\n      jump\t// in\n    tag_221:\n      mload(0x40)\n      dup1\n      swap2\n      sub\n      swap1\n      revert\n    tag_220:\n        /* \"@openzeppelin/contracts/security/Pausable.sol\":1767:1873  function _requireNotPaused() internal view virtual {... */\n      jump\t// out\n        /* \"@openzeppelin/contracts/token/ERC20/utils/SafeERC20.sol\":1702:1890  function safeTransferFrom(IERC20 token, address from, address to, uint256 value) internal {... */\n    tag_157:\n        /* \"@openzeppelin/contracts/token/ERC20/utils/SafeERC20.sol\":1802:1883  _callOptionalReturn(token, abi.encodeCall(token.transferFrom, (from, to, value))) */\n      tag_224\n        /* \"@openzeppelin/contracts/token/ERC20/utils/SafeERC20.sol\":1822:1827  token */\n      dup5\n        /* \"@openzeppelin/contracts/token/ERC20/utils/SafeERC20.sol\":1844:1849  token */\n      dup6\n        /* \"@openzeppelin/contracts/token/ERC20/utils/SafeERC20.sol\":1844:1862  token.transferFrom */\n      0xffffffffffffffffffffffffffffffffffffffff\n      and\n      0x23b872dd\n        /* \"@openzeppelin/contracts/token/ERC20/utils/SafeERC20.sol\":1865:1869  from */\n      dup7\n        /* \"@openzeppelin/contracts/token/ERC20/utils/SafeERC20.sol\":1871:1873  to */\n      dup7\n        /* \"@openzeppelin/contracts/token/ERC20/utils/SafeERC20.sol\":1875:1880  value */\n      dup7\n        /* \"@openzeppelin/contracts/token/ERC20/utils/SafeERC20.sol\":1829:1882  abi.encodeCall(token.transferFrom, (from, to, value)) */\n      add(0x24, mload(0x40))\n      tag_225\n      swap4\n      swap3\n      swap2\n      swap1\n      tag_226\n      jump\t// in\n    tag_225:\n      mload(0x40)\n      0x20\n      dup2\n      dup4\n      sub\n      sub\n      dup2\n      mstore\n      swap1\n      0x40\n      mstore\n      swap2\n      pop\n      0xe0\n      shl\n      0x20\n      dup3\n      add\n      dup1\n      mload\n      0xffffffffffffffffffffffffffffffffffffffffffffffffffffffff\n      dup4\n      dup2\n      dup4\n      and\n      or\n      dup4\n      mstore\n      pop\n      pop\n      pop\n      pop\n        /* \"@openzeppelin/contracts/token/ERC20/utils/SafeERC20.sol\":1802:1821  _callOptionalReturn */\n      tag_209\n        /* \"@openzeppelin/contracts/token/ERC20/utils/SafeERC20.sol\":1802:1883  _callOptionalReturn(token, abi.encodeCall(token.transferFrom, (from, to, value))) */\n      jump\t// in\n    tag_224:\n        /* \"@openzeppelin/contracts/token/ERC20/utils/SafeERC20.sol\":1702:1890  function safeTransferFrom(IERC20 token, address from, address to, uint256 value) internal {... */\n      pop\n      pop\n      pop\n      pop\n      jump\t// out\n        /* \"@openzeppelin/contracts-upgradeable/proxy/utils/Initializable.sol\":8737:8907  function _getInitializableStorage() private pure returns (InitializableStorage storage $) {... */\n    tag_164:\n        /* \"@openzeppelin/contracts-upgradeable/proxy/utils/Initializable.sol\":8795:8825  InitializableStorage storage $ */\n      0x00\n        /* \"@openzeppelin/contracts-upgradeable/proxy/utils/Initializable.sol\":8870:8891  INITIALIZABLE_STORAGE */\n      0xf0c57e16840df040f15088dc2f81fe391c3923bec73e23a9662efc9c229c6a00\n        /* \"@openzeppelin/contracts-upgradeable/proxy/utils/Initializable.sol\":8860:8891  $.slot := INITIALIZABLE_STORAGE */\n      swap1\n      pop\n        /* \"@openzeppelin/contracts-upgradeable/proxy/utils/Initializable.sol\":8737:8907  function _getInitializableStorage() private pure returns (InitializableStorage storage $) {... */\n      swap1\n      jump\t// out\n        /* \"@openzeppelin/contracts/security/Pausable.sol\":2186:2301  function _pause() internal virtual whenNotPaused {... */\n    tag_179:\n        /* \"@openzeppelin/contracts/security/Pausable.sol\":1239:1258  _requireNotPaused() */\n      tag_229\n        /* \"@openzeppelin/contracts/security/Pausable.sol\":1239:1256  _requireNotPaused */\n      tag_140\n        /* \"@openzeppelin/contracts/security/Pausable.sol\":1239:1258  _requireNotPaused() */\n      jump\t// in\n    tag_229:\n        /* \"@openzeppelin/contracts/security/Pausable.sol\":2255:2259  true */\n      0x01\n        /* \"@openzeppelin/contracts/security/Pausable.sol\":2245:2252  _paused */\n      0x00\n      dup1\n        /* \"@openzeppelin/contracts/security/Pausable.sol\":2245:2259  _paused = true */\n      0x0100\n      exp\n      dup2\n      sload\n      dup2\n      0xff\n      mul\n      not\n      and\n      swap1\n      dup4\n      iszero\n      iszero\n      mul\n      or\n      swap1\n      sstore\n      pop\n        /* \"@openzeppelin/contracts/security/Pausable.sol\":2274:2294  Paused(_msgSender()) */\n      0x62e78cea01bee320cd4e420270b5ea74000d11b0c9f74754ebdbfc544b05a258\n        /* \"@openzeppelin/contracts/security/Pausable.sol\":2281:2293  _msgSender() */\n      tag_231\n        /* \"@openzeppelin/contracts/security/Pausable.sol\":2281:2291  _msgSender */\n      tag_216\n        /* \"@openzeppelin/contracts/security/Pausable.sol\":2281:2293  _msgSender() */\n      jump\t// in\n    tag_231:\n        /* \"@openzeppelin/contracts/security/Pausable.sol\":2274:2294  Paused(_msgSender()) */\n      mload(0x40)\n      tag_232\n      swap2\n      swap1\n      tag_59\n      jump\t// in\n    tag_232:\n      mload(0x40)\n      dup1\n      swap2\n      sub\n      swap1\n      log1\n        /* \"@openzeppelin/contracts/security/Pausable.sol\":2186:2301  function _pause() internal virtual whenNotPaused {... */\n      jump\t// out\n        /* \"@openzeppelin/contracts/utils/math/SafeMath.sol\":3465:3561  function mul(uint256 a, uint256 b) internal pure returns (uint256) {... */\n    tag_184:\n        /* \"@openzeppelin/contracts/utils/math/SafeMath.sol\":3523:3530  uint256 */\n      0x00\n        /* \"@openzeppelin/contracts/utils/math/SafeMath.sol\":3553:3554  b */\n      dup2\n        /* \"@openzeppelin/contracts/utils/math/SafeMath.sol\":3549:3550  a */\n      dup4\n        /* \"@openzeppelin/contracts/utils/math/SafeMath.sol\":3549:3554  a * b */\n      tag_234\n      swap2\n      swap1\n      tag_160\n      jump\t// in\n    tag_234:\n        /* \"@openzeppelin/contracts/utils/math/SafeMath.sol\":3542:3554  return a * b */\n      swap1\n      pop\n        /* \"@openzeppelin/contracts/utils/math/SafeMath.sol\":3465:3561  function mul(uint256 a, uint256 b) internal pure returns (uint256) {... */\n      swap3\n      swap2\n      pop\n      pop\n      jump\t// out\n        /* \"@openzeppelin/contracts/utils/math/SafeMath.sol\":3850:3946  function div(uint256 a, uint256 b) internal pure returns (uint256) {... */\n    tag_185:\n        /* \"@openzeppelin/contracts/utils/math/SafeMath.sol\":3908:3915  uint256 */\n      0x00\n        /* \"@openzeppelin/contracts/utils/math/SafeMath.sol\":3938:3939  b */\n      dup2\n        /* \"@openzeppelin/contracts/utils/math/SafeMath.sol\":3934:3935  a */\n      dup4\n        /* \"@openzeppelin/contracts/utils/math/SafeMath.sol\":3934:3939  a / b */\n      tag_236\n      swap2\n      swap1\n      tag_237\n      jump\t// in\n    tag_236:\n        /* \"@openzeppelin/contracts/utils/math/SafeMath.sol\":3927:3939  return a / b */\n      swap1\n      pop\n        /* \"@openzeppelin/contracts/utils/math/SafeMath.sol\":3850:3946  function div(uint256 a, uint256 b) internal pure returns (uint256) {... */\n      swap3\n      swap2\n      pop\n      pop\n      jump\t// out\n        /* \"@openzeppelin/contracts/token/ERC20/utils/SafeERC20.sol\":4059:4688  function _callOptionalReturn(IERC20 token, bytes memory data) private {... */\n    tag_209:\n        /* \"@openzeppelin/contracts/token/ERC20/utils/SafeERC20.sol\":4478:4501  bytes memory returndata */\n      0x00\n        /* \"@openzeppelin/contracts/token/ERC20/utils/SafeERC20.sol\":4504:4537  address(token).functionCall(data) */\n      tag_239\n        /* \"@openzeppelin/contracts/token/ERC20/utils/SafeERC20.sol\":4532:4536  data */\n      dup3\n        /* \"@openzeppelin/contracts/token/ERC20/utils/SafeERC20.sol\":4512:4517  token */\n      dup5\n        /* \"@openzeppelin/contracts/token/ERC20/utils/SafeERC20.sol\":4504:4531  address(token).functionCall */\n      0xffffffffffffffffffffffffffffffffffffffff\n      and\n      tag_240\n      swap1\n        /* \"@openzeppelin/contracts/token/ERC20/utils/SafeERC20.sol\":4504:4537  address(token).functionCall(data) */\n      swap2\n      swap1\n      0xffffffff\n      and\n      jump\t// in\n    tag_239:\n        /* \"@openzeppelin/contracts/token/ERC20/utils/SafeERC20.sol\":4478:4537  bytes memory returndata = address(token).functionCall(data) */\n      swap1\n      pop\n        /* \"@openzeppelin/contracts/token/ERC20/utils/SafeERC20.sol\":4572:4573  0 */\n      0x00\n        /* \"@openzeppelin/contracts/token/ERC20/utils/SafeERC20.sol\":4551:4561  returndata */\n      dup2\n        /* \"@openzeppelin/contracts/token/ERC20/utils/SafeERC20.sol\":4551:4568  returndata.length */\n      mload\n        /* \"@openzeppelin/contracts/token/ERC20/utils/SafeERC20.sol\":4551:4573  returndata.length != 0 */\n      eq\n      iszero\n        /* \"@openzeppelin/contracts/token/ERC20/utils/SafeERC20.sol\":4551:4608  returndata.length != 0 && !abi.decode(returndata, (bool)) */\n      dup1\n      iszero\n      tag_241\n      jumpi\n      pop\n        /* \"@openzeppelin/contracts/token/ERC20/utils/SafeERC20.sol\":4589:4599  returndata */\n      dup1\n        /* \"@openzeppelin/contracts/token/ERC20/utils/SafeERC20.sol\":4578:4608  abi.decode(returndata, (bool)) */\n      dup1\n      0x20\n      add\n      swap1\n      mload\n      dup2\n      add\n      swap1\n      tag_242\n      swap2\n      swap1\n      tag_243\n      jump\t// in\n    tag_242:\n        /* \"@openzeppelin/contracts/token/ERC20/utils/SafeERC20.sol\":4577:4608  !abi.decode(returndata, (bool)) */\n      iszero\n        /* \"@openzeppelin/contracts/token/ERC20/utils/SafeERC20.sol\":4551:4608  returndata.length != 0 && !abi.decode(returndata, (bool)) */\n    tag_241:\n        /* \"@openzeppelin/contracts/token/ERC20/utils/SafeERC20.sol\":4547:4682  if (returndata.length != 0 && !abi.decode(returndata, (bool))) {... */\n      iszero\n      tag_244\n      jumpi\n        /* \"@openzeppelin/contracts/token/ERC20/utils/SafeERC20.sol\":4664:4669  token */\n      dup3\n        /* \"@openzeppelin/contracts/token/ERC20/utils/SafeERC20.sol\":4631:4671  SafeERC20FailedOperation(address(token)) */\n      mload(0x40)\n      0x5274afe700000000000000000000000000000000000000000000000000000000\n      dup2\n      mstore\n      0x04\n      add\n      tag_245\n      swap2\n      swap1\n      tag_59\n      jump\t// in\n    tag_245:\n      mload(0x40)\n      dup1\n      swap2\n      sub\n      swap1\n      revert\n        /* \"@openzeppelin/contracts/token/ERC20/utils/SafeERC20.sol\":4547:4682  if (returndata.length != 0 && !abi.decode(returndata, (bool))) {... */\n    tag_244:\n        /* \"@openzeppelin/contracts/token/ERC20/utils/SafeERC20.sol\":4129:4688  {... */\n      pop\n        /* \"@openzeppelin/contracts/token/ERC20/utils/SafeERC20.sol\":4059:4688  function _callOptionalReturn(IERC20 token, bytes memory data) private {... */\n      pop\n      pop\n      jump\t// out\n        /* \"@openzeppelin/contracts/security/Pausable.sol\":1945:2051  function _requirePaused() internal view virtual {... */\n    tag_213:\n        /* \"@openzeppelin/contracts/security/Pausable.sol\":2011:2019  paused() */\n      tag_247\n        /* \"@openzeppelin/contracts/security/Pausable.sol\":2011:2017  paused */\n      tag_38\n        /* \"@openzeppelin/contracts/security/Pausable.sol\":2011:2019  paused() */\n      jump\t// in\n    tag_247:\n        /* \"@openzeppelin/contracts/security/Pausable.sol\":2003:2044  require(paused(), \"Pausable: not paused\") */\n      tag_248\n      jumpi\n      mload(0x40)\n      0x08c379a000000000000000000000000000000000000000000000000000000000\n      dup2\n      mstore\n      0x04\n      add\n      tag_249\n      swap1\n      tag_250\n      jump\t// in\n    tag_249:\n      mload(0x40)\n      dup1\n      swap2\n      sub\n      swap1\n      revert\n    tag_248:\n        /* \"@openzeppelin/contracts/security/Pausable.sol\":1945:2051  function _requirePaused() internal view virtual {... */\n      jump\t// out\n        /* \"@openzeppelin/contracts/utils/Context.sol\":656:752  function _msgSender() internal view virtual returns (address) {... */\n    tag_216:\n        /* \"@openzeppelin/contracts/utils/Context.sol\":709:716  address */\n      0x00\n        /* \"@openzeppelin/contracts/utils/Context.sol\":735:745  msg.sender */\n      caller\n        /* \"@openzeppelin/contracts/utils/Context.sol\":728:745  return msg.sender */\n      swap1\n      pop\n        /* \"@openzeppelin/contracts/utils/Context.sol\":656:752  function _msgSender() internal view virtual returns (address) {... */\n      swap1\n      jump\t// out\n        /* \"@openzeppelin/contracts/utils/Address.sol\":2705:2856  function functionCall(address target, bytes memory data) internal returns (bytes memory) {... */\n    tag_240:\n        /* \"@openzeppelin/contracts/utils/Address.sol\":2780:2792  bytes memory */\n      0x60\n        /* \"@openzeppelin/contracts/utils/Address.sol\":2811:2849  functionCallWithValue(target, data, 0) */\n      tag_253\n        /* \"@openzeppelin/contracts/utils/Address.sol\":2833:2839  target */\n      dup4\n        /* \"@openzeppelin/contracts/utils/Address.sol\":2841:2845  data */\n      dup4\n        /* \"@openzeppelin/contracts/utils/Address.sol\":2847:2848  0 */\n      0x00\n        /* \"@openzeppelin/contracts/utils/Address.sol\":2811:2832  functionCallWithValue */\n      tag_254\n        /* \"@openzeppelin/contracts/utils/Address.sol\":2811:2849  functionCallWithValue(target, data, 0) */\n      jump\t// in\n    tag_253:\n        /* \"@openzeppelin/contracts/utils/Address.sol\":2804:2849  return functionCallWithValue(target, data, 0) */\n      swap1\n      pop\n        /* \"@openzeppelin/contracts/utils/Address.sol\":2705:2856  function functionCall(address target, bytes memory data) internal returns (bytes memory) {... */\n      swap3\n      swap2\n      pop\n      pop\n      jump\t// out\n        /* \"@openzeppelin/contracts/utils/Address.sol\":3180:3572  function functionCallWithValue(address target, bytes memory data, uint256 value) internal returns (bytes memory) {... */\n    tag_254:\n        /* \"@openzeppelin/contracts/utils/Address.sol\":3279:3291  bytes memory */\n      0x60\n        /* \"@openzeppelin/contracts/utils/Address.sol\":3331:3336  value */\n      dup2\n        /* \"@openzeppelin/contracts/utils/Address.sol\":3307:3328  address(this).balance */\n      selfbalance\n        /* \"@openzeppelin/contracts/utils/Address.sol\":3307:3336  address(this).balance < value */\n      lt\n        /* \"@openzeppelin/contracts/utils/Address.sol\":3303:3411  if (address(this).balance < value) {... */\n      iszero\n      tag_256\n      jumpi\n        /* \"@openzeppelin/contracts/utils/Address.sol\":3394:3398  this */\n      address\n        /* \"@openzeppelin/contracts/utils/Address.sol\":3359:3400  AddressInsufficientBalance(address(this)) */\n      mload(0x40)\n      0xcd78605900000000000000000000000000000000000000000000000000000000\n      dup2\n      mstore\n      0x04\n      add\n      tag_257\n      swap2\n      swap1\n      tag_59\n      jump\t// in\n    tag_257:\n      mload(0x40)\n      dup1\n      swap2\n      sub\n      swap1\n      revert\n        /* \"@openzeppelin/contracts/utils/Address.sol\":3303:3411  if (address(this).balance < value) {... */\n    tag_256:\n        /* \"@openzeppelin/contracts/utils/Address.sol\":3421:3433  bool success */\n      0x00\n        /* \"@openzeppelin/contracts/utils/Address.sol\":3435:3458  bytes memory returndata */\n      dup1\n        /* \"@openzeppelin/contracts/utils/Address.sol\":3462:3468  target */\n      dup6\n        /* \"@openzeppelin/contracts/utils/Address.sol\":3462:3473  target.call */\n      0xffffffffffffffffffffffffffffffffffffffff\n      and\n        /* \"@openzeppelin/contracts/utils/Address.sol\":3481:3486  value */\n      dup5\n        /* \"@openzeppelin/contracts/utils/Address.sol\":3488:3492  data */\n      dup7\n        /* \"@openzeppelin/contracts/utils/Address.sol\":3462:3493  target.call{value: value}(data) */\n      mload(0x40)\n      tag_258\n      swap2\n      swap1\n      tag_259\n      jump\t// in\n    tag_258:\n      0x00\n      mload(0x40)\n      dup1\n      dup4\n      sub\n      dup2\n      dup6\n      dup8\n      gas\n      call\n      swap3\n      pop\n      pop\n      pop\n      returndatasize\n      dup1\n      0x00\n      dup2\n      eq\n      tag_262\n      jumpi\n      mload(0x40)\n      swap2\n      pop\n      and(add(returndatasize, 0x3f), not(0x1f))\n      dup3\n      add\n      0x40\n      mstore\n      returndatasize\n      dup3\n      mstore\n      returndatasize\n      0x00\n      0x20\n      dup5\n      add\n      returndatacopy\n      jump(tag_261)\n    tag_262:\n      0x60\n      swap2\n      pop\n    tag_261:\n      pop\n        /* \"@openzeppelin/contracts/utils/Address.sol\":3420:3493  (bool success, bytes memory returndata) = target.call{value: value}(data) */\n      swap2\n      pop\n      swap2\n      pop\n        /* \"@openzeppelin/contracts/utils/Address.sol\":3510:3565  verifyCallResultFromTarget(target, success, returndata) */\n      tag_263\n        /* \"@openzeppelin/contracts/utils/Address.sol\":3537:3543  target */\n      dup7\n        /* \"@openzeppelin/contracts/utils/Address.sol\":3545:3552  success */\n      dup4\n        /* \"@openzeppelin/contracts/utils/Address.sol\":3554:3564  returndata */\n      dup4\n        /* \"@openzeppelin/contracts/utils/Address.sol\":3510:3536  verifyCallResultFromTarget */\n      tag_264\n        /* \"@openzeppelin/contracts/utils/Address.sol\":3510:3565  verifyCallResultFromTarget(target, success, returndata) */\n      jump\t// in\n    tag_263:\n        /* \"@openzeppelin/contracts/utils/Address.sol\":3503:3565  return verifyCallResultFromTarget(target, success, returndata) */\n      swap3\n      pop\n      pop\n      pop\n        /* \"@openzeppelin/contracts/utils/Address.sol\":3180:3572  function functionCallWithValue(address target, bytes memory data, uint256 value) internal returns (bytes memory) {... */\n      swap4\n      swap3\n      pop\n      pop\n      pop\n      jump\t// out\n        /* \"@openzeppelin/contracts/utils/Address.sol\":4625:5207  function verifyCallResultFromTarget(... */\n    tag_264:\n        /* \"@openzeppelin/contracts/utils/Address.sol\":4769:4781  bytes memory */\n      0x60\n        /* \"@openzeppelin/contracts/utils/Address.sol\":4798:4805  success */\n      dup3\n        /* \"@openzeppelin/contracts/utils/Address.sol\":4793:5201  if (!success) {... */\n      tag_266\n      jumpi\n        /* \"@openzeppelin/contracts/utils/Address.sol\":4821:4840  _revert(returndata) */\n      tag_267\n        /* \"@openzeppelin/contracts/utils/Address.sol\":4829:4839  returndata */\n      dup3\n        /* \"@openzeppelin/contracts/utils/Address.sol\":4821:4828  _revert */\n      tag_268\n        /* \"@openzeppelin/contracts/utils/Address.sol\":4821:4840  _revert(returndata) */\n      jump\t// in\n    tag_267:\n        /* \"@openzeppelin/contracts/utils/Address.sol\":4793:5201  if (!success) {... */\n      jump(tag_269)\n    tag_266:\n        /* \"@openzeppelin/contracts/utils/Address.sol\":5066:5067  0 */\n      0x00\n        /* \"@openzeppelin/contracts/utils/Address.sol\":5045:5055  returndata */\n      dup3\n        /* \"@openzeppelin/contracts/utils/Address.sol\":5045:5062  returndata.length */\n      mload\n        /* \"@openzeppelin/contracts/utils/Address.sol\":5045:5067  returndata.length == 0 */\n      eq\n        /* \"@openzeppelin/contracts/utils/Address.sol\":5045:5094  returndata.length == 0 && target.code.length == 0 */\n      dup1\n      iszero\n      tag_270\n      jumpi\n      pop\n        /* \"@openzeppelin/contracts/utils/Address.sol\":5093:5094  0 */\n      0x00\n        /* \"@openzeppelin/contracts/utils/Address.sol\":5071:5077  target */\n      dup5\n        /* \"@openzeppelin/contracts/utils/Address.sol\":5071:5089  target.code.length */\n      0xffffffffffffffffffffffffffffffffffffffff\n      and\n      extcodesize\n        /* \"@openzeppelin/contracts/utils/Address.sol\":5071:5094  target.code.length == 0 */\n      eq\n        /* \"@openzeppelin/contracts/utils/Address.sol\":5045:5094  returndata.length == 0 && target.code.length == 0 */\n    tag_270:\n        /* \"@openzeppelin/contracts/utils/Address.sol\":5041:5160  if (returndata.length == 0 && target.code.length == 0) {... */\n      iszero\n      tag_271\n      jumpi\n        /* \"@openzeppelin/contracts/utils/Address.sol\":5138:5144  target */\n      dup4\n        /* \"@openzeppelin/contracts/utils/Address.sol\":5121:5145  AddressEmptyCode(target) */\n      mload(0x40)\n      0x9996b31500000000000000000000000000000000000000000000000000000000\n      dup2\n      mstore\n      0x04\n      add\n      tag_272\n      swap2\n      swap1\n      tag_59\n      jump\t// in\n    tag_272:\n      mload(0x40)\n      dup1\n      swap2\n      sub\n      swap1\n      revert\n        /* \"@openzeppelin/contracts/utils/Address.sol\":5041:5160  if (returndata.length == 0 && target.code.length == 0) {... */\n    tag_271:\n        /* \"@openzeppelin/contracts/utils/Address.sol\":5180:5190  returndata */\n      dup2\n        /* \"@openzeppelin/contracts/utils/Address.sol\":5173:5190  return returndata */\n      swap1\n      pop\n      jump(tag_265)\n        /* \"@openzeppelin/contracts/utils/Address.sol\":4793:5201  if (!success) {... */\n    tag_269:\n        /* \"@openzeppelin/contracts/utils/Address.sol\":4625:5207  function verifyCallResultFromTarget(... */\n    tag_265:\n      swap4\n      swap3\n      pop\n      pop\n      pop\n      jump\t// out\n        /* \"@openzeppelin/contracts/utils/Address.sol\":5743:6259  function _revert(bytes memory returndata) private pure {... */\n    tag_268:\n        /* \"@openzeppelin/contracts/utils/Address.sol\":5894:5895  0 */\n      0x00\n        /* \"@openzeppelin/contracts/utils/Address.sol\":5874:5884  returndata */\n      dup2\n        /* \"@openzeppelin/contracts/utils/Address.sol\":5874:5891  returndata.length */\n      mload\n        /* \"@openzeppelin/contracts/utils/Address.sol\":5874:5895  returndata.length > 0 */\n      gt\n        /* \"@openzeppelin/contracts/utils/Address.sol\":5870:6253  if (returndata.length > 0) {... */\n      iszero\n      tag_274\n      jumpi\n        /* \"@openzeppelin/contracts/utils/Address.sol\":6102:6112  returndata */\n      dup1\n        /* \"@openzeppelin/contracts/utils/Address.sol\":6096:6113  mload(returndata) */\n      mload\n        /* \"@openzeppelin/contracts/utils/Address.sol\":6158:6173  returndata_size */\n      dup1\n        /* \"@openzeppelin/contracts/utils/Address.sol\":6145:6155  returndata */\n      dup3\n        /* \"@openzeppelin/contracts/utils/Address.sol\":6141:6143  32 */\n      0x20\n        /* \"@openzeppelin/contracts/utils/Address.sol\":6137:6156  add(32, returndata) */\n      add\n        /* \"@openzeppelin/contracts/utils/Address.sol\":6130:6174  revert(add(32, returndata), returndata_size) */\n      revert\n        /* \"@openzeppelin/contracts/utils/Address.sol\":5870:6253  if (returndata.length > 0) {... */\n    tag_274:\n        /* \"@openzeppelin/contracts/utils/Address.sol\":6225:6242  FailedInnerCall() */\n      mload(0x40)\n      0x1425ea4200000000000000000000000000000000000000000000000000000000\n      dup2\n      mstore\n      0x04\n      add\n      mload(0x40)\n      dup1\n      swap2\n      sub\n      swap1\n      revert\n        /* \"#utility.yul\":88:205   */\n    tag_277:\n        /* \"#utility.yul\":197:198   */\n      0x00\n        /* \"#utility.yul\":194:195   */\n      dup1\n        /* \"#utility.yul\":187:199   */\n      revert\n        /* \"#utility.yul\":334:411   */\n    tag_279:\n        /* \"#utility.yul\":371:378   */\n      0x00\n        /* \"#utility.yul\":400:405   */\n      dup2\n        /* \"#utility.yul\":389:405   */\n      swap1\n      pop\n        /* \"#utility.yul\":334:411   */\n      swap2\n      swap1\n      pop\n      jump\t// out\n        /* \"#utility.yul\":417:539   */\n    tag_280:\n        /* \"#utility.yul\":490:514   */\n      tag_337\n        /* \"#utility.yul\":508:513   */\n      dup2\n        /* \"#utility.yul\":490:514   */\n      tag_279\n      jump\t// in\n    tag_337:\n        /* \"#utility.yul\":483:488   */\n      dup2\n        /* \"#utility.yul\":480:515   */\n      eq\n        /* \"#utility.yul\":470:533   */\n      tag_338\n      jumpi\n        /* \"#utility.yul\":529:530   */\n      0x00\n        /* \"#utility.yul\":526:527   */\n      dup1\n        /* \"#utility.yul\":519:531   */\n      revert\n        /* \"#utility.yul\":470:533   */\n    tag_338:\n        /* \"#utility.yul\":417:539   */\n      pop\n      jump\t// out\n        /* \"#utility.yul\":545:684   */\n    tag_281:\n        /* \"#utility.yul\":591:596   */\n      0x00\n        /* \"#utility.yul\":629:635   */\n      dup2\n        /* \"#utility.yul\":616:636   */\n      calldataload\n        /* \"#utility.yul\":607:636   */\n      swap1\n      pop\n        /* \"#utility.yul\":645:678   */\n      tag_340\n        /* \"#utility.yul\":672:677   */\n      dup2\n        /* \"#utility.yul\":645:678   */\n      tag_280\n      jump\t// in\n    tag_340:\n        /* \"#utility.yul\":545:684   */\n      swap3\n      swap2\n      pop\n      pop\n      jump\t// out\n        /* \"#utility.yul\":690:1019   */\n    tag_27:\n        /* \"#utility.yul\":749:755   */\n      0x00\n        /* \"#utility.yul\":798:800   */\n      0x20\n        /* \"#utility.yul\":786:795   */\n      dup3\n        /* \"#utility.yul\":777:784   */\n      dup5\n        /* \"#utility.yul\":773:796   */\n      sub\n        /* \"#utility.yul\":769:801   */\n      slt\n        /* \"#utility.yul\":766:885   */\n      iszero\n      tag_342\n      jumpi\n        /* \"#utility.yul\":804:883   */\n      tag_343\n      tag_277\n      jump\t// in\n    tag_343:\n        /* \"#utility.yul\":766:885   */\n    tag_342:\n        /* \"#utility.yul\":924:925   */\n      0x00\n        /* \"#utility.yul\":949:1002   */\n      tag_344\n        /* \"#utility.yul\":994:1001   */\n      dup5\n        /* \"#utility.yul\":985:991   */\n      dup3\n        /* \"#utility.yul\":974:983   */\n      dup6\n        /* \"#utility.yul\":970:992   */\n      add\n        /* \"#utility.yul\":949:1002   */\n      tag_281\n      jump\t// in\n    tag_344:\n        /* \"#utility.yul\":939:1002   */\n      swap2\n      pop\n        /* \"#utility.yul\":895:1012   */\n      pop\n        /* \"#utility.yul\":690:1019   */\n      swap3\n      swap2\n      pop\n      pop\n      jump\t// out\n        /* \"#utility.yul\":1025:1115   */\n    tag_282:\n        /* \"#utility.yul\":1059:1066   */\n      0x00\n        /* \"#utility.yul\":1102:1107   */\n      dup2\n        /* \"#utility.yul\":1095:1108   */\n      iszero\n        /* \"#utility.yul\":1088:1109   */\n      iszero\n        /* \"#utility.yul\":1077:1109   */\n      swap1\n      pop\n        /* \"#utility.yul\":1025:1115   */\n      swap2\n      swap1\n      pop\n      jump\t// out\n        /* \"#utility.yul\":1121:1230   */\n    tag_283:\n        /* \"#utility.yul\":1202:1223   */\n      tag_347\n        /* \"#utility.yul\":1217:1222   */\n      dup2\n        /* \"#utility.yul\":1202:1223   */\n      tag_282\n      jump\t// in\n    tag_347:\n        /* \"#utility.yul\":1197:1200   */\n      dup3\n        /* \"#utility.yul\":1190:1224   */\n      mstore\n        /* \"#utility.yul\":1121:1230   */\n      pop\n      pop\n      jump\t// out\n        /* \"#utility.yul\":1236:1446   */\n    tag_40:\n        /* \"#utility.yul\":1323:1327   */\n      0x00\n        /* \"#utility.yul\":1361:1363   */\n      0x20\n        /* \"#utility.yul\":1350:1359   */\n      dup3\n        /* \"#utility.yul\":1346:1364   */\n      add\n        /* \"#utility.yul\":1338:1364   */\n      swap1\n      pop\n        /* \"#utility.yul\":1374:1439   */\n      tag_349\n        /* \"#utility.yul\":1436:1437   */\n      0x00\n        /* \"#utility.yul\":1425:1434   */\n      dup4\n        /* \"#utility.yul\":1421:1438   */\n      add\n        /* \"#utility.yul\":1412:1418   */\n      dup5\n        /* \"#utility.yul\":1374:1439   */\n      tag_283\n      jump\t// in\n    tag_349:\n        /* \"#utility.yul\":1236:1446   */\n      swap3\n      swap2\n      pop\n      pop\n      jump\t// out\n        /* \"#utility.yul\":1452:1570   */\n    tag_284:\n        /* \"#utility.yul\":1539:1563   */\n      tag_351\n        /* \"#utility.yul\":1557:1562   */\n      dup2\n        /* \"#utility.yul\":1539:1563   */\n      tag_279\n      jump\t// in\n    tag_351:\n        /* \"#utility.yul\":1534:1537   */\n      dup3\n        /* \"#utility.yul\":1527:1564   */\n      mstore\n        /* \"#utility.yul\":1452:1570   */\n      pop\n      pop\n      jump\t// out\n        /* \"#utility.yul\":1576:1798   */\n    tag_44:\n        /* \"#utility.yul\":1669:1673   */\n      0x00\n        /* \"#utility.yul\":1707:1709   */\n      0x20\n        /* \"#utility.yul\":1696:1705   */\n      dup3\n        /* \"#utility.yul\":1692:1710   */\n      add\n        /* \"#utility.yul\":1684:1710   */\n      swap1\n      pop\n        /* \"#utility.yul\":1720:1791   */\n      tag_353\n        /* \"#utility.yul\":1788:1789   */\n      0x00\n        /* \"#utility.yul\":1777:1786   */\n      dup4\n        /* \"#utility.yul\":1773:1790   */\n      add\n        /* \"#utility.yul\":1764:1770   */\n      dup5\n        /* \"#utility.yul\":1720:1791   */\n      tag_284\n      jump\t// in\n    tag_353:\n        /* \"#utility.yul\":1576:1798   */\n      swap3\n      swap2\n      pop\n      pop\n      jump\t// out\n        /* \"#utility.yul\":1804:2278   */\n    tag_47:\n        /* \"#utility.yul\":1872:1878   */\n      0x00\n        /* \"#utility.yul\":1880:1886   */\n      dup1\n        /* \"#utility.yul\":1929:1931   */\n      0x40\n        /* \"#utility.yul\":1917:1926   */\n      dup4\n        /* \"#utility.yul\":1908:1915   */\n      dup6\n        /* \"#utility.yul\":1904:1927   */\n      sub\n        /* \"#utility.yul\":1900:1932   */\n      slt\n        /* \"#utility.yul\":1897:2016   */\n      iszero\n      tag_355\n      jumpi\n        /* \"#utility.yul\":1935:2014   */\n      tag_356\n      tag_277\n      jump\t// in\n    tag_356:\n        /* \"#utility.yul\":1897:2016   */\n    tag_355:\n        /* \"#utility.yul\":2055:2056   */\n      0x00\n        /* \"#utility.yul\":2080:2133   */\n      tag_357\n        /* \"#utility.yul\":2125:2132   */\n      dup6\n        /* \"#utility.yul\":2116:2122   */\n      dup3\n        /* \"#utility.yul\":2105:2114   */\n      dup7\n        /* \"#utility.yul\":2101:2123   */\n      add\n        /* \"#utility.yul\":2080:2133   */\n      tag_281\n      jump\t// in\n    tag_357:\n        /* \"#utility.yul\":2070:2133   */\n      swap3\n      pop\n        /* \"#utility.yul\":2026:2143   */\n      pop\n        /* \"#utility.yul\":2182:2184   */\n      0x20\n        /* \"#utility.yul\":2208:2261   */\n      tag_358\n        /* \"#utility.yul\":2253:2260   */\n      dup6\n        /* \"#utility.yul\":2244:2250   */\n      dup3\n        /* \"#utility.yul\":2233:2242   */\n      dup7\n        /* \"#utility.yul\":2229:2251   */\n      add\n        /* \"#utility.yul\":2208:2261   */\n      tag_281\n      jump\t// in\n    tag_358:\n        /* \"#utility.yul\":2198:2261   */\n      swap2\n      pop\n        /* \"#utility.yul\":2153:2271   */\n      pop\n        /* \"#utility.yul\":1804:2278   */\n      swap3\n      pop\n      swap3\n      swap1\n      pop\n      jump\t// out\n        /* \"#utility.yul\":2284:2410   */\n    tag_285:\n        /* \"#utility.yul\":2321:2328   */\n      0x00\n        /* \"#utility.yul\":2361:2403   */\n      0xffffffffffffffffffffffffffffffffffffffff\n        /* \"#utility.yul\":2354:2359   */\n      dup3\n        /* \"#utility.yul\":2350:2404   */\n      and\n        /* \"#utility.yul\":2339:2404   */\n      swap1\n      pop\n        /* \"#utility.yul\":2284:2410   */\n      swap2\n      swap1\n      pop\n      jump\t// out\n        /* \"#utility.yul\":2416:2512   */\n    tag_286:\n        /* \"#utility.yul\":2453:2460   */\n      0x00\n        /* \"#utility.yul\":2482:2506   */\n      tag_361\n        /* \"#utility.yul\":2500:2505   */\n      dup3\n        /* \"#utility.yul\":2482:2506   */\n      tag_285\n      jump\t// in\n    tag_361:\n        /* \"#utility.yul\":2471:2506   */\n      swap1\n      pop\n        /* \"#utility.yul\":2416:2512   */\n      swap2\n      swap1\n      pop\n      jump\t// out\n        /* \"#utility.yul\":2518:2636   */\n    tag_287:\n        /* \"#utility.yul\":2605:2629   */\n      tag_363\n        /* \"#utility.yul\":2623:2628   */\n      dup2\n        /* \"#utility.yul\":2605:2629   */\n      tag_286\n      jump\t// in\n    tag_363:\n        /* \"#utility.yul\":2600:2603   */\n      dup3\n        /* \"#utility.yul\":2593:2630   */\n      mstore\n        /* \"#utility.yul\":2518:2636   */\n      pop\n      pop\n      jump\t// out\n        /* \"#utility.yul\":2642:2864   */\n    tag_59:\n        /* \"#utility.yul\":2735:2739   */\n      0x00\n        /* \"#utility.yul\":2773:2775   */\n      0x20\n        /* \"#utility.yul\":2762:2771   */\n      dup3\n        /* \"#utility.yul\":2758:2776   */\n      add\n        /* \"#utility.yul\":2750:2776   */\n      swap1\n      pop\n        /* \"#utility.yul\":2786:2857   */\n      tag_365\n        /* \"#utility.yul\":2854:2855   */\n      0x00\n        /* \"#utility.yul\":2843:2852   */\n      dup4\n        /* \"#utility.yul\":2839:2856   */\n      add\n        /* \"#utility.yul\":2830:2836   */\n      dup5\n        /* \"#utility.yul\":2786:2857   */\n      tag_287\n      jump\t// in\n    tag_365:\n        /* \"#utility.yul\":2642:2864   */\n      swap3\n      swap2\n      pop\n      pop\n      jump\t// out\n        /* \"#utility.yul\":2870:2992   */\n    tag_288:\n        /* \"#utility.yul\":2943:2967   */\n      tag_367\n        /* \"#utility.yul\":2961:2966   */\n      dup2\n        /* \"#utility.yul\":2943:2967   */\n      tag_286\n      jump\t// in\n    tag_367:\n        /* \"#utility.yul\":2936:2941   */\n      dup2\n        /* \"#utility.yul\":2933:2968   */\n      eq\n        /* \"#utility.yul\":2923:2986   */\n      tag_368\n      jumpi\n        /* \"#utility.yul\":2982:2983   */\n      0x00\n        /* \"#utility.yul\":2979:2980   */\n      dup1\n        /* \"#utility.yul\":2972:2984   */\n      revert\n        /* \"#utility.yul\":2923:2986   */\n    tag_368:\n        /* \"#utility.yul\":2870:2992   */\n      pop\n      jump\t// out\n        /* \"#utility.yul\":2998:3137   */\n    tag_289:\n        /* \"#utility.yul\":3044:3049   */\n      0x00\n        /* \"#utility.yul\":3082:3088   */\n      dup2\n        /* \"#utility.yul\":3069:3089   */\n      calldataload\n        /* \"#utility.yul\":3060:3089   */\n      swap1\n      pop\n        /* \"#utility.yul\":3098:3131   */\n      tag_370\n        /* \"#utility.yul\":3125:3130   */\n      dup2\n        /* \"#utility.yul\":3098:3131   */\n      tag_288\n      jump\t// in\n    tag_370:\n        /* \"#utility.yul\":2998:3137   */\n      swap3\n      swap2\n      pop\n      pop\n      jump\t// out\n        /* \"#utility.yul\":3143:3617   */\n    tag_66:\n        /* \"#utility.yul\":3211:3217   */\n      0x00\n        /* \"#utility.yul\":3219:3225   */\n      dup1\n        /* \"#utility.yul\":3268:3270   */\n      0x40\n        /* \"#utility.yul\":3256:3265   */\n      dup4\n        /* \"#utility.yul\":3247:3254   */\n      dup6\n        /* \"#utility.yul\":3243:3266   */\n      sub\n        /* \"#utility.yul\":3239:3271   */\n      slt\n        /* \"#utility.yul\":3236:3355   */\n      iszero\n      tag_372\n      jumpi\n        /* \"#utility.yul\":3274:3353   */\n      tag_373\n      tag_277\n      jump\t// in\n    tag_373:\n        /* \"#utility.yul\":3236:3355   */\n    tag_372:\n        /* \"#utility.yul\":3394:3395   */\n      0x00\n        /* \"#utility.yul\":3419:3472   */\n      tag_374\n        /* \"#utility.yul\":3464:3471   */\n      dup6\n        /* \"#utility.yul\":3455:3461   */\n      dup3\n        /* \"#utility.yul\":3444:3453   */\n      dup7\n        /* \"#utility.yul\":3440:3462   */\n      add\n        /* \"#utility.yul\":3419:3472   */\n      tag_289\n      jump\t// in\n    tag_374:\n        /* \"#utility.yul\":3409:3472   */\n      swap3\n      pop\n        /* \"#utility.yul\":3365:3482   */\n      pop\n        /* \"#utility.yul\":3521:3523   */\n      0x20\n        /* \"#utility.yul\":3547:3600   */\n      tag_375\n        /* \"#utility.yul\":3592:3599   */\n      dup6\n        /* \"#utility.yul\":3583:3589   */\n      dup3\n        /* \"#utility.yul\":3572:3581   */\n      dup7\n        /* \"#utility.yul\":3568:3590   */\n      add\n        /* \"#utility.yul\":3547:3600   */\n      tag_281\n      jump\t// in\n    tag_375:\n        /* \"#utility.yul\":3537:3600   */\n      swap2\n      pop\n        /* \"#utility.yul\":3492:3610   */\n      pop\n        /* \"#utility.yul\":3143:3617   */\n      swap3\n      pop\n      swap3\n      swap1\n      pop\n      jump\t// out\n        /* \"#utility.yul\":3623:3955   */\n    tag_69:\n        /* \"#utility.yul\":3744:3748   */\n      0x00\n        /* \"#utility.yul\":3782:3784   */\n      0x40\n        /* \"#utility.yul\":3771:3780   */\n      dup3\n        /* \"#utility.yul\":3767:3785   */\n      add\n        /* \"#utility.yul\":3759:3785   */\n      swap1\n      pop\n        /* \"#utility.yul\":3795:3866   */\n      tag_377\n        /* \"#utility.yul\":3863:3864   */\n      0x00\n        /* \"#utility.yul\":3852:3861   */\n      dup4\n        /* \"#utility.yul\":3848:3865   */\n      add\n        /* \"#utility.yul\":3839:3845   */\n      dup6\n        /* \"#utility.yul\":3795:3866   */\n      tag_284\n      jump\t// in\n    tag_377:\n        /* \"#utility.yul\":3876:3948   */\n      tag_378\n        /* \"#utility.yul\":3944:3946   */\n      0x20\n        /* \"#utility.yul\":3933:3942   */\n      dup4\n        /* \"#utility.yul\":3929:3947   */\n      add\n        /* \"#utility.yul\":3920:3926   */\n      dup5\n        /* \"#utility.yul\":3876:3948   */\n      tag_284\n      jump\t// in\n    tag_378:\n        /* \"#utility.yul\":3623:3955   */\n      swap4\n      swap3\n      pop\n      pop\n      pop\n      jump\t// out\n        /* \"#utility.yul\":3961:4580   */\n    tag_72:\n        /* \"#utility.yul\":4038:4044   */\n      0x00\n        /* \"#utility.yul\":4046:4052   */\n      dup1\n        /* \"#utility.yul\":4054:4060   */\n      0x00\n        /* \"#utility.yul\":4103:4105   */\n      0x60\n        /* \"#utility.yul\":4091:4100   */\n      dup5\n        /* \"#utility.yul\":4082:4089   */\n      dup7\n        /* \"#utility.yul\":4078:4101   */\n      sub\n        /* \"#utility.yul\":4074:4106   */\n      slt\n        /* \"#utility.yul\":4071:4190   */\n      iszero\n      tag_380\n      jumpi\n        /* \"#utility.yul\":4109:4188   */\n      tag_381\n      tag_277\n      jump\t// in\n    tag_381:\n        /* \"#utility.yul\":4071:4190   */\n    tag_380:\n        /* \"#utility.yul\":4229:4230   */\n      0x00\n        /* \"#utility.yul\":4254:4307   */\n      tag_382\n        /* \"#utility.yul\":4299:4306   */\n      dup7\n        /* \"#utility.yul\":4290:4296   */\n      dup3\n        /* \"#utility.yul\":4279:4288   */\n      dup8\n        /* \"#utility.yul\":4275:4297   */\n      add\n        /* \"#utility.yul\":4254:4307   */\n      tag_281\n      jump\t// in\n    tag_382:\n        /* \"#utility.yul\":4244:4307   */\n      swap4\n      pop\n        /* \"#utility.yul\":4200:4317   */\n      pop\n        /* \"#utility.yul\":4356:4358   */\n      0x20\n        /* \"#utility.yul\":4382:4435   */\n      tag_383\n        /* \"#utility.yul\":4427:4434   */\n      dup7\n        /* \"#utility.yul\":4418:4424   */\n      dup3\n        /* \"#utility.yul\":4407:4416   */\n      dup8\n        /* \"#utility.yul\":4403:4425   */\n      add\n        /* \"#utility.yul\":4382:4435   */\n      tag_281\n      jump\t// in\n    tag_383:\n        /* \"#utility.yul\":4372:4435   */\n      swap3\n      pop\n        /* \"#utility.yul\":4327:4445   */\n      pop\n        /* \"#utility.yul\":4484:4486   */\n      0x40\n        /* \"#utility.yul\":4510:4563   */\n      tag_384\n        /* \"#utility.yul\":4555:4562   */\n      dup7\n        /* \"#utility.yul\":4546:4552   */\n      dup3\n        /* \"#utility.yul\":4535:4544   */\n      dup8\n        /* \"#utility.yul\":4531:4553   */\n      add\n        /* \"#utility.yul\":4510:4563   */\n      tag_281\n      jump\t// in\n    tag_384:\n        /* \"#utility.yul\":4500:4563   */\n      swap2\n      pop\n        /* \"#utility.yul\":4455:4573   */\n      pop\n        /* \"#utility.yul\":3961:4580   */\n      swap3\n      pop\n      swap3\n      pop\n      swap3\n      jump\t// out\n        /* \"#utility.yul\":4586:4915   */\n    tag_77:\n        /* \"#utility.yul\":4645:4651   */\n      0x00\n        /* \"#utility.yul\":4694:4696   */\n      0x20\n        /* \"#utility.yul\":4682:4691   */\n      dup3\n        /* \"#utility.yul\":4673:4680   */\n      dup5\n        /* \"#utility.yul\":4669:4692   */\n      sub\n        /* \"#utility.yul\":4665:4697   */\n      slt\n        /* \"#utility.yul\":4662:4781   */\n      iszero\n      tag_386\n      jumpi\n        /* \"#utility.yul\":4700:4779   */\n      tag_387\n      tag_277\n      jump\t// in\n    tag_387:\n        /* \"#utility.yul\":4662:4781   */\n    tag_386:\n        /* \"#utility.yul\":4820:4821   */\n      0x00\n        /* \"#utility.yul\":4845:4898   */\n      tag_388\n        /* \"#utility.yul\":4890:4897   */\n      dup5\n        /* \"#utility.yul\":4881:4887   */\n      dup3\n        /* \"#utility.yul\":4870:4879   */\n      dup6\n        /* \"#utility.yul\":4866:4888   */\n      add\n        /* \"#utility.yul\":4845:4898   */\n      tag_289\n      jump\t// in\n    tag_388:\n        /* \"#utility.yul\":4835:4898   */\n      swap2\n      pop\n        /* \"#utility.yul\":4791:4908   */\n      pop\n        /* \"#utility.yul\":4586:4915   */\n      swap3\n      swap2\n      pop\n      pop\n      jump\t// out\n        /* \"#utility.yul\":4921:4981   */\n    tag_290:\n        /* \"#utility.yul\":4949:4952   */\n      0x00\n        /* \"#utility.yul\":4970:4975   */\n      dup2\n        /* \"#utility.yul\":4963:4975   */\n      swap1\n      pop\n        /* \"#utility.yul\":4921:4981   */\n      swap2\n      swap1\n      pop\n      jump\t// out\n        /* \"#utility.yul\":4987:5129   */\n    tag_291:\n        /* \"#utility.yul\":5037:5046   */\n      0x00\n        /* \"#utility.yul\":5070:5123   */\n      tag_391\n        /* \"#utility.yul\":5088:5122   */\n      tag_392\n        /* \"#utility.yul\":5097:5121   */\n      tag_393\n        /* \"#utility.yul\":5115:5120   */\n      dup5\n        /* \"#utility.yul\":5097:5121   */\n      tag_285\n      jump\t// in\n    tag_393:\n        /* \"#utility.yul\":5088:5122   */\n      tag_290\n      jump\t// in\n    tag_392:\n        /* \"#utility.yul\":5070:5123   */\n      tag_285\n      jump\t// in\n    tag_391:\n        /* \"#utility.yul\":5057:5123   */\n      swap1\n      pop\n        /* \"#utility.yul\":4987:5129   */\n      swap2\n      swap1\n      pop\n      jump\t// out\n        /* \"#utility.yul\":5135:5261   */\n    tag_292:\n        /* \"#utility.yul\":5185:5194   */\n      0x00\n        /* \"#utility.yul\":5218:5255   */\n      tag_395\n        /* \"#utility.yul\":5249:5254   */\n      dup3\n        /* \"#utility.yul\":5218:5255   */\n      tag_291\n      jump\t// in\n    tag_395:\n        /* \"#utility.yul\":5205:5255   */\n      swap1\n      pop\n        /* \"#utility.yul\":5135:5261   */\n      swap2\n      swap1\n      pop\n      jump\t// out\n        /* \"#utility.yul\":5267:5407   */\n    tag_293:\n        /* \"#utility.yul\":5331:5340   */\n      0x00\n        /* \"#utility.yul\":5364:5401   */\n      tag_397\n        /* \"#utility.yul\":5395:5400   */\n      dup3\n        /* \"#utility.yul\":5364:5401   */\n      tag_292\n      jump\t// in\n    tag_397:\n        /* \"#utility.yul\":5351:5401   */\n      swap1\n      pop\n        /* \"#utility.yul\":5267:5407   */\n      swap2\n      swap1\n      pop\n      jump\t// out\n        /* \"#utility.yul\":5413:5572   */\n    tag_294:\n        /* \"#utility.yul\":5514:5565   */\n      tag_399\n        /* \"#utility.yul\":5559:5564   */\n      dup2\n        /* \"#utility.yul\":5514:5565   */\n      tag_293\n      jump\t// in\n    tag_399:\n        /* \"#utility.yul\":5509:5512   */\n      dup3\n        /* \"#utility.yul\":5502:5566   */\n      mstore\n        /* \"#utility.yul\":5413:5572   */\n      pop\n      pop\n      jump\t// out\n        /* \"#utility.yul\":5578:5828   */\n    tag_88:\n        /* \"#utility.yul\":5685:5689   */\n      0x00\n        /* \"#utility.yul\":5723:5725   */\n      0x20\n        /* \"#utility.yul\":5712:5721   */\n      dup3\n        /* \"#utility.yul\":5708:5726   */\n      add\n        /* \"#utility.yul\":5700:5726   */\n      swap1\n      pop\n        /* \"#utility.yul\":5736:5821   */\n      tag_401\n        /* \"#utility.yul\":5818:5819   */\n      0x00\n        /* \"#utility.yul\":5807:5816   */\n      dup4\n        /* \"#utility.yul\":5803:5820   */\n      add\n        /* \"#utility.yul\":5794:5800   */\n      dup5\n        /* \"#utility.yul\":5736:5821   */\n      tag_294\n      jump\t// in\n    tag_401:\n        /* \"#utility.yul\":5578:5828   */\n      swap3\n      swap2\n      pop\n      pop\n      jump\t// out\n        /* \"#utility.yul\":5834:6003   */\n    tag_295:\n        /* \"#utility.yul\":5918:5929   */\n      0x00\n        /* \"#utility.yul\":5952:5958   */\n      dup3\n        /* \"#utility.yul\":5947:5950   */\n      dup3\n        /* \"#utility.yul\":5940:5959   */\n      mstore\n        /* \"#utility.yul\":5992:5996   */\n      0x20\n        /* \"#utility.yul\":5987:5990   */\n      dup3\n        /* \"#utility.yul\":5983:5997   */\n      add\n        /* \"#utility.yul\":5968:5997   */\n      swap1\n      pop\n        /* \"#utility.yul\":5834:6003   */\n      swap3\n      swap2\n      pop\n      pop\n      jump\t// out\n        /* \"#utility.yul\":6009:6182   */\n    tag_296:\n        /* \"#utility.yul\":6149:6174   */\n      0x6f6e6c792061646d696e732061726520616c6c6f776564000000000000000000\n        /* \"#utility.yul\":6145:6146   */\n      0x00\n        /* \"#utility.yul\":6137:6143   */\n      dup3\n        /* \"#utility.yul\":6133:6147   */\n      add\n        /* \"#utility.yul\":6126:6175   */\n      mstore\n        /* \"#utility.yul\":6009:6182   */\n      pop\n      jump\t// out\n        /* \"#utility.yul\":6188:6554   */\n    tag_297:\n        /* \"#utility.yul\":6330:6333   */\n      0x00\n        /* \"#utility.yul\":6351:6418   */\n      tag_405\n        /* \"#utility.yul\":6415:6417   */\n      0x17\n        /* \"#utility.yul\":6410:6413   */\n      dup4\n        /* \"#utility.yul\":6351:6418   */\n      tag_295\n      jump\t// in\n    tag_405:\n        /* \"#utility.yul\":6344:6418   */\n      swap2\n      pop\n        /* \"#utility.yul\":6427:6520   */\n      tag_406\n        /* \"#utility.yul\":6516:6519   */\n      dup3\n        /* \"#utility.yul\":6427:6520   */\n      tag_296\n      jump\t// in\n    tag_406:\n        /* \"#utility.yul\":6545:6547   */\n      0x20\n        /* \"#utility.yul\":6540:6543   */\n      dup3\n        /* \"#utility.yul\":6536:6548   */\n      add\n        /* \"#utility.yul\":6529:6548   */\n      swap1\n      pop\n        /* \"#utility.yul\":6188:6554   */\n      swap2\n      swap1\n      pop\n      jump\t// out\n        /* \"#utility.yul\":6560:6979   */\n    tag_95:\n        /* \"#utility.yul\":6726:6730   */\n      0x00\n        /* \"#utility.yul\":6764:6766   */\n      0x20\n        /* \"#utility.yul\":6753:6762   */\n      dup3\n        /* \"#utility.yul\":6749:6767   */\n      add\n        /* \"#utility.yul\":6741:6767   */\n      swap1\n      pop\n        /* \"#utility.yul\":6813:6822   */\n      dup2\n        /* \"#utility.yul\":6807:6811   */\n      dup2\n        /* \"#utility.yul\":6803:6823   */\n      sub\n        /* \"#utility.yul\":6799:6800   */\n      0x00\n        /* \"#utility.yul\":6788:6797   */\n      dup4\n        /* \"#utility.yul\":6784:6801   */\n      add\n        /* \"#utility.yul\":6777:6824   */\n      mstore\n        /* \"#utility.yul\":6841:6972   */\n      tag_408\n        /* \"#utility.yul\":6967:6971   */\n      dup2\n        /* \"#utility.yul\":6841:6972   */\n      tag_297\n      jump\t// in\n    tag_408:\n        /* \"#utility.yul\":6833:6972   */\n      swap1\n      pop\n        /* \"#utility.yul\":6560:6979   */\n      swap2\n      swap1\n      pop\n      jump\t// out\n        /* \"#utility.yul\":6985:7156   */\n    tag_298:\n        /* \"#utility.yul\":7125:7148   */\n      0x6e6f20756e7374616b65206461746120666f756e640000000000000000000000\n        /* \"#utility.yul\":7121:7122   */\n      0x00\n        /* \"#utility.yul\":7113:7119   */\n      dup3\n        /* \"#utility.yul\":7109:7123   */\n      add\n        /* \"#utility.yul\":7102:7149   */\n      mstore\n        /* \"#utility.yul\":6985:7156   */\n      pop\n      jump\t// out\n        /* \"#utility.yul\":7162:7528   */\n    tag_299:\n        /* \"#utility.yul\":7304:7307   */\n      0x00\n        /* \"#utility.yul\":7325:7392   */\n      tag_411\n        /* \"#utility.yul\":7389:7391   */\n      0x15\n        /* \"#utility.yul\":7384:7387   */\n      dup4\n        /* \"#utility.yul\":7325:7392   */\n      tag_295\n      jump\t// in\n    tag_411:\n        /* \"#utility.yul\":7318:7392   */\n      swap2\n      pop\n        /* \"#utility.yul\":7401:7494   */\n      tag_412\n        /* \"#utility.yul\":7490:7493   */\n      dup3\n        /* \"#utility.yul\":7401:7494   */\n      tag_298\n      jump\t// in\n    tag_412:\n        /* \"#utility.yul\":7519:7521   */\n      0x20\n        /* \"#utility.yul\":7514:7517   */\n      dup3\n        /* \"#utility.yul\":7510:7522   */\n      add\n        /* \"#utility.yul\":7503:7522   */\n      swap1\n      pop\n        /* \"#utility.yul\":7162:7528   */\n      swap2\n      swap1\n      pop\n      jump\t// out\n        /* \"#utility.yul\":7534:7953   */\n    tag_103:\n        /* \"#utility.yul\":7700:7704   */\n      0x00\n        /* \"#utility.yul\":7738:7740   */\n      0x20\n        /* \"#utility.yul\":7727:7736   */\n      dup3\n        /* \"#utility.yul\":7723:7741   */\n      add\n        /* \"#utility.yul\":7715:7741   */\n      swap1\n      pop\n        /* \"#utility.yul\":7787:7796   */\n      dup2\n        /* \"#utility.yul\":7781:7785   */\n      dup2\n        /* \"#utility.yul\":7777:7797   */\n      sub\n        /* \"#utility.yul\":7773:7774   */\n      0x00\n        /* \"#utility.yul\":7762:7771   */\n      dup4\n        /* \"#utility.yul\":7758:7775   */\n      add\n        /* \"#utility.yul\":7751:7798   */\n      mstore\n        /* \"#utility.yul\":7815:7946   */\n      tag_414\n        /* \"#utility.yul\":7941:7945   */\n      dup2\n        /* \"#utility.yul\":7815:7946   */\n      tag_299\n      jump\t// in\n    tag_414:\n        /* \"#utility.yul\":7807:7946   */\n      swap1\n      pop\n        /* \"#utility.yul\":7534:7953   */\n      swap2\n      swap1\n      pop\n      jump\t// out\n        /* \"#utility.yul\":7959:8130   */\n    tag_300:\n        /* \"#utility.yul\":8099:8122   */\n      0x706572696f64206973206e6f7420657870697265640000000000000000000000\n        /* \"#utility.yul\":8095:8096   */\n      0x00\n        /* \"#utility.yul\":8087:8093   */\n      dup3\n        /* \"#utility.yul\":8083:8097   */\n      add\n        /* \"#utility.yul\":8076:8123   */\n      mstore\n        /* \"#utility.yul\":7959:8130   */\n      pop\n      jump\t// out\n        /* \"#utility.yul\":8136:8502   */\n    tag_301:\n        /* \"#utility.yul\":8278:8281   */\n      0x00\n        /* \"#utility.yul\":8299:8366   */\n      tag_417\n        /* \"#utility.yul\":8363:8365   */\n      0x15\n        /* \"#utility.yul\":8358:8361   */\n      dup4\n        /* \"#utility.yul\":8299:8366   */\n      tag_295\n      jump\t// in\n    tag_417:\n        /* \"#utility.yul\":8292:8366   */\n      swap2\n      pop\n        /* \"#utility.yul\":8375:8468   */\n      tag_418\n        /* \"#utility.yul\":8464:8467   */\n      dup3\n        /* \"#utility.yul\":8375:8468   */\n      tag_300\n      jump\t// in\n    tag_418:\n        /* \"#utility.yul\":8493:8495   */\n      0x20\n        /* \"#utility.yul\":8488:8491   */\n      dup3\n        /* \"#utility.yul\":8484:8496   */\n      add\n        /* \"#utility.yul\":8477:8496   */\n      swap1\n      pop\n        /* \"#utility.yul\":8136:8502   */\n      swap2\n      swap1\n      pop\n      jump\t// out\n        /* \"#utility.yul\":8508:8927   */\n    tag_106:\n        /* \"#utility.yul\":8674:8678   */\n      0x00\n        /* \"#utility.yul\":8712:8714   */\n      0x20\n        /* \"#utility.yul\":8701:8710   */\n      dup3\n        /* \"#utility.yul\":8697:8715   */\n      add\n        /* \"#utility.yul\":8689:8715   */\n      swap1\n      pop\n        /* \"#utility.yul\":8761:8770   */\n      dup2\n        /* \"#utility.yul\":8755:8759   */\n      dup2\n        /* \"#utility.yul\":8751:8771   */\n      sub\n        /* \"#utility.yul\":8747:8748   */\n      0x00\n        /* \"#utility.yul\":8736:8745   */\n      dup4\n        /* \"#utility.yul\":8732:8749   */\n      add\n        /* \"#utility.yul\":8725:8772   */\n      mstore\n        /* \"#utility.yul\":8789:8920   */\n      tag_420\n        /* \"#utility.yul\":8915:8919   */\n      dup2\n        /* \"#utility.yul\":8789:8920   */\n      tag_301\n      jump\t// in\n    tag_420:\n        /* \"#utility.yul\":8781:8920   */\n      swap1\n      pop\n        /* \"#utility.yul\":8508:8927   */\n      swap2\n      swap1\n      pop\n      jump\t// out\n        /* \"#utility.yul\":8933:9076   */\n    tag_302:\n        /* \"#utility.yul\":8990:8995   */\n      0x00\n        /* \"#utility.yul\":9021:9027   */\n      dup2\n        /* \"#utility.yul\":9015:9028   */\n      mload\n        /* \"#utility.yul\":9006:9028   */\n      swap1\n      pop\n        /* \"#utility.yul\":9037:9070   */\n      tag_422\n        /* \"#utility.yul\":9064:9069   */\n      dup2\n        /* \"#utility.yul\":9037:9070   */\n      tag_280\n      jump\t// in\n    tag_422:\n        /* \"#utility.yul\":8933:9076   */\n      swap3\n      swap2\n      pop\n      pop\n      jump\t// out\n        /* \"#utility.yul\":9082:9433   */\n    tag_122:\n        /* \"#utility.yul\":9152:9158   */\n      0x00\n        /* \"#utility.yul\":9201:9203   */\n      0x20\n        /* \"#utility.yul\":9189:9198   */\n      dup3\n        /* \"#utility.yul\":9180:9187   */\n      dup5\n        /* \"#utility.yul\":9176:9199   */\n      sub\n        /* \"#utility.yul\":9172:9204   */\n      slt\n        /* \"#utility.yul\":9169:9288   */\n      iszero\n      tag_424\n      jumpi\n        /* \"#utility.yul\":9207:9286   */\n      tag_425\n      tag_277\n      jump\t// in\n    tag_425:\n        /* \"#utility.yul\":9169:9288   */\n    tag_424:\n        /* \"#utility.yul\":9327:9328   */\n      0x00\n        /* \"#utility.yul\":9352:9416   */\n      tag_426\n        /* \"#utility.yul\":9408:9415   */\n      dup5\n        /* \"#utility.yul\":9399:9405   */\n      dup3\n        /* \"#utility.yul\":9388:9397   */\n      dup6\n        /* \"#utility.yul\":9384:9406   */\n      add\n        /* \"#utility.yul\":9352:9416   */\n      tag_302\n      jump\t// in\n    tag_426:\n        /* \"#utility.yul\":9342:9416   */\n      swap2\n      pop\n        /* \"#utility.yul\":9298:9426   */\n      pop\n        /* \"#utility.yul\":9082:9433   */\n      swap3\n      swap2\n      pop\n      pop\n      jump\t// out\n        /* \"#utility.yul\":9439:9675   */\n    tag_303:\n        /* \"#utility.yul\":9579:9613   */\n      0x436f6e747261637420646f6573206e6f74206861766520656e6f756768206261\n        /* \"#utility.yul\":9575:9576   */\n      0x00\n        /* \"#utility.yul\":9567:9573   */\n      dup3\n        /* \"#utility.yul\":9563:9577   */\n      add\n        /* \"#utility.yul\":9556:9614   */\n      mstore\n        /* \"#utility.yul\":9648:9667   */\n      0x6c616e636520746f207769746864726177000000000000000000000000000000\n        /* \"#utility.yul\":9643:9645   */\n      0x20\n        /* \"#utility.yul\":9635:9641   */\n      dup3\n        /* \"#utility.yul\":9631:9646   */\n      add\n        /* \"#utility.yul\":9624:9668   */\n      mstore\n        /* \"#utility.yul\":9439:9675   */\n      pop\n      jump\t// out\n        /* \"#utility.yul\":9681:10047   */\n    tag_304:\n        /* \"#utility.yul\":9823:9826   */\n      0x00\n        /* \"#utility.yul\":9844:9911   */\n      tag_429\n        /* \"#utility.yul\":9908:9910   */\n      0x31\n        /* \"#utility.yul\":9903:9906   */\n      dup4\n        /* \"#utility.yul\":9844:9911   */\n      tag_295\n      jump\t// in\n    tag_429:\n        /* \"#utility.yul\":9837:9911   */\n      swap2\n      pop\n        /* \"#utility.yul\":9920:10013   */\n      tag_430\n        /* \"#utility.yul\":10009:10012   */\n      dup3\n        /* \"#utility.yul\":9920:10013   */\n      tag_303\n      jump\t// in\n    tag_430:\n        /* \"#utility.yul\":10038:10040   */\n      0x40\n        /* \"#utility.yul\":10033:10036   */\n      dup3\n        /* \"#utility.yul\":10029:10041   */\n      add\n        /* \"#utility.yul\":10022:10041   */\n      swap1\n      pop\n        /* \"#utility.yul\":9681:10047   */\n      swap2\n      swap1\n      pop\n      jump\t// out\n        /* \"#utility.yul\":10053:10472   */\n    tag_125:\n        /* \"#utility.yul\":10219:10223   */\n      0x00\n        /* \"#utility.yul\":10257:10259   */\n      0x20\n        /* \"#utility.yul\":10246:10255   */\n      dup3\n        /* \"#utility.yul\":10242:10260   */\n      add\n        /* \"#utility.yul\":10234:10260   */\n      swap1\n      pop\n        /* \"#utility.yul\":10306:10315   */\n      dup2\n        /* \"#utility.yul\":10300:10304   */\n      dup2\n        /* \"#utility.yul\":10296:10316   */\n      sub\n        /* \"#utility.yul\":10292:10293   */\n      0x00\n        /* \"#utility.yul\":10281:10290   */\n      dup4\n        /* \"#utility.yul\":10277:10294   */\n      add\n        /* \"#utility.yul\":10270:10317   */\n      mstore\n        /* \"#utility.yul\":10334:10465   */\n      tag_432\n        /* \"#utility.yul\":10460:10464   */\n      dup2\n        /* \"#utility.yul\":10334:10465   */\n      tag_304\n      jump\t// in\n    tag_432:\n        /* \"#utility.yul\":10326:10465   */\n      swap1\n      pop\n        /* \"#utility.yul\":10053:10472   */\n      swap2\n      swap1\n      pop\n      jump\t// out\n        /* \"#utility.yul\":10478:10643   */\n    tag_305:\n        /* \"#utility.yul\":10618:10635   */\n      0x616464206d6f726520616d6f756e740000000000000000000000000000000000\n        /* \"#utility.yul\":10614:10615   */\n      0x00\n        /* \"#utility.yul\":10606:10612   */\n      dup3\n        /* \"#utility.yul\":10602:10616   */\n      add\n        /* \"#utility.yul\":10595:10636   */\n      mstore\n        /* \"#utility.yul\":10478:10643   */\n      pop\n      jump\t// out\n        /* \"#utility.yul\":10649:11015   */\n    tag_306:\n        /* \"#utility.yul\":10791:10794   */\n      0x00\n        /* \"#utility.yul\":10812:10879   */\n      tag_435\n        /* \"#utility.yul\":10876:10878   */\n      0x0f\n        /* \"#utility.yul\":10871:10874   */\n      dup4\n        /* \"#utility.yul\":10812:10879   */\n      tag_295\n      jump\t// in\n    tag_435:\n        /* \"#utility.yul\":10805:10879   */\n      swap2\n      pop\n        /* \"#utility.yul\":10888:10981   */\n      tag_436\n        /* \"#utility.yul\":10977:10980   */\n      dup3\n        /* \"#utility.yul\":10888:10981   */\n      tag_305\n      jump\t// in\n    tag_436:\n        /* \"#utility.yul\":11006:11008   */\n      0x20\n        /* \"#utility.yul\":11001:11004   */\n      dup3\n        /* \"#utility.yul\":10997:11009   */\n      add\n        /* \"#utility.yul\":10990:11009   */\n      swap1\n      pop\n        /* \"#utility.yul\":10649:11015   */\n      swap2\n      swap1\n      pop\n      jump\t// out\n        /* \"#utility.yul\":11021:11440   */\n    tag_146:\n        /* \"#utility.yul\":11187:11191   */\n      0x00\n        /* \"#utility.yul\":11225:11227   */\n      0x20\n        /* \"#utility.yul\":11214:11223   */\n      dup3\n        /* \"#utility.yul\":11210:11228   */\n      add\n        /* \"#utility.yul\":11202:11228   */\n      swap1\n      pop\n        /* \"#utility.yul\":11274:11283   */\n      dup2\n        /* \"#utility.yul\":11268:11272   */\n      dup2\n        /* \"#utility.yul\":11264:11284   */\n      sub\n        /* \"#utility.yul\":11260:11261   */\n      0x00\n        /* \"#utility.yul\":11249:11258   */\n      dup4\n        /* \"#utility.yul\":11245:11262   */\n      add\n        /* \"#utility.yul\":11238:11285   */\n      mstore\n        /* \"#utility.yul\":11302:11433   */\n      tag_438\n        /* \"#utility.yul\":11428:11432   */\n      dup2\n        /* \"#utility.yul\":11302:11433   */\n      tag_306\n      jump\t// in\n    tag_438:\n        /* \"#utility.yul\":11294:11433   */\n      swap1\n      pop\n        /* \"#utility.yul\":11021:11440   */\n      swap2\n      swap1\n      pop\n      jump\t// out\n        /* \"#utility.yul\":11446:11611   */\n    tag_307:\n        /* \"#utility.yul\":11586:11603   */\n      0x616464206c65737320616d6f756e740000000000000000000000000000000000\n        /* \"#utility.yul\":11582:11583   */\n      0x00\n        /* \"#utility.yul\":11574:11580   */\n      dup3\n        /* \"#utility.yul\":11570:11584   */\n      add\n        /* \"#utility.yul\":11563:11604   */\n      mstore\n        /* \"#utility.yul\":11446:11611   */\n      pop\n      jump\t// out\n        /* \"#utility.yul\":11617:11983   */\n    tag_308:\n        /* \"#utility.yul\":11759:11762   */\n      0x00\n        /* \"#utility.yul\":11780:11847   */\n      tag_441\n        /* \"#utility.yul\":11844:11846   */\n      0x0f\n        /* \"#utility.yul\":11839:11842   */\n      dup4\n        /* \"#utility.yul\":11780:11847   */\n      tag_295\n      jump\t// in\n    tag_441:\n        /* \"#utility.yul\":11773:11847   */\n      swap2\n      pop\n        /* \"#utility.yul\":11856:11949   */\n      tag_442\n        /* \"#utility.yul\":11945:11948   */\n      dup3\n        /* \"#utility.yul\":11856:11949   */\n      tag_307\n      jump\t// in\n    tag_442:\n        /* \"#utility.yul\":11974:11976   */\n      0x20\n        /* \"#utility.yul\":11969:11972   */\n      dup3\n        /* \"#utility.yul\":11965:11977   */\n      add\n        /* \"#utility.yul\":11958:11977   */\n      swap1\n      pop\n        /* \"#utility.yul\":11617:11983   */\n      swap2\n      swap1\n      pop\n      jump\t// out\n        /* \"#utility.yul\":11989:12408   */\n    tag_149:\n        /* \"#utility.yul\":12155:12159   */\n      0x00\n        /* \"#utility.yul\":12193:12195   */\n      0x20\n        /* \"#utility.yul\":12182:12191   */\n      dup3\n        /* \"#utility.yul\":12178:12196   */\n      add\n        /* \"#utility.yul\":12170:12196   */\n      swap1\n      pop\n        /* \"#utility.yul\":12242:12251   */\n      dup2\n        /* \"#utility.yul\":12236:12240   */\n      dup2\n        /* \"#utility.yul\":12232:12252   */\n      sub\n        /* \"#utility.yul\":12228:12229   */\n      0x00\n        /* \"#utility.yul\":12217:12226   */\n      dup4\n        /* \"#utility.yul\":12213:12230   */\n      add\n        /* \"#utility.yul\":12206:12253   */\n      mstore\n        /* \"#utility.yul\":12270:12401   */\n      tag_444\n        /* \"#utility.yul\":12396:12400   */\n      dup2\n        /* \"#utility.yul\":12270:12401   */\n      tag_308\n      jump\t// in\n    tag_444:\n        /* \"#utility.yul\":12262:12401   */\n      swap1\n      pop\n        /* \"#utility.yul\":11989:12408   */\n      swap2\n      swap1\n      pop\n      jump\t// out\n        /* \"#utility.yul\":12414:12577   */\n    tag_309:\n        /* \"#utility.yul\":12554:12569   */\n      0x696e76616c6964206d6f6e746800000000000000000000000000000000000000\n        /* \"#utility.yul\":12550:12551   */\n      0x00\n        /* \"#utility.yul\":12542:12548   */\n      dup3\n        /* \"#utility.yul\":12538:12552   */\n      add\n        /* \"#utility.yul\":12531:12570   */\n      mstore\n        /* \"#utility.yul\":12414:12577   */\n      pop\n      jump\t// out\n        /* \"#utility.yul\":12583:12949   */\n    tag_310:\n        /* \"#utility.yul\":12725:12728   */\n      0x00\n        /* \"#utility.yul\":12746:12813   */\n      tag_447\n        /* \"#utility.yul\":12810:12812   */\n      0x0d\n        /* \"#utility.yul\":12805:12808   */\n      dup4\n        /* \"#utility.yul\":12746:12813   */\n      tag_295\n      jump\t// in\n    tag_447:\n        /* \"#utility.yul\":12739:12813   */\n      swap2\n      pop\n        /* \"#utility.yul\":12822:12915   */\n      tag_448\n        /* \"#utility.yul\":12911:12914   */\n      dup3\n        /* \"#utility.yul\":12822:12915   */\n      tag_309\n      jump\t// in\n    tag_448:\n        /* \"#utility.yul\":12940:12942   */\n      0x20\n        /* \"#utility.yul\":12935:12938   */\n      dup3\n        /* \"#utility.yul\":12931:12943   */\n      add\n        /* \"#utility.yul\":12924:12943   */\n      swap1\n      pop\n        /* \"#utility.yul\":12583:12949   */\n      swap2\n      swap1\n      pop\n      jump\t// out\n        /* \"#utility.yul\":12955:13374   */\n    tag_152:\n        /* \"#utility.yul\":13121:13125   */\n      0x00\n        /* \"#utility.yul\":13159:13161   */\n      0x20\n        /* \"#utility.yul\":13148:13157   */\n      dup3\n        /* \"#utility.yul\":13144:13162   */\n      add\n        /* \"#utility.yul\":13136:13162   */\n      swap1\n      pop\n        /* \"#utility.yul\":13208:13217   */\n      dup2\n        /* \"#utility.yul\":13202:13206   */\n      dup2\n        /* \"#utility.yul\":13198:13218   */\n      sub\n        /* \"#utility.yul\":13194:13195   */\n      0x00\n        /* \"#utility.yul\":13183:13192   */\n      dup4\n        /* \"#utility.yul\":13179:13196   */\n      add\n        /* \"#utility.yul\":13172:13219   */\n      mstore\n        /* \"#utility.yul\":13236:13367   */\n      tag_450\n        /* \"#utility.yul\":13362:13366   */\n      dup2\n        /* \"#utility.yul\":13236:13367   */\n      tag_310\n      jump\t// in\n    tag_450:\n        /* \"#utility.yul\":13228:13367   */\n      swap1\n      pop\n        /* \"#utility.yul\":12955:13374   */\n      swap2\n      swap1\n      pop\n      jump\t// out\n        /* \"#utility.yul\":13380:13544   */\n    tag_311:\n        /* \"#utility.yul\":13520:13536   */\n      0x616c7265616479207374616b6564000000000000000000000000000000000000\n        /* \"#utility.yul\":13516:13517   */\n      0x00\n        /* \"#utility.yul\":13508:13514   */\n      dup3\n        /* \"#utility.yul\":13504:13518   */\n      add\n        /* \"#utility.yul\":13497:13537   */\n      mstore\n        /* \"#utility.yul\":13380:13544   */\n      pop\n      jump\t// out\n        /* \"#utility.yul\":13550:13916   */\n    tag_312:\n        /* \"#utility.yul\":13692:13695   */\n      0x00\n        /* \"#utility.yul\":13713:13780   */\n      tag_453\n        /* \"#utility.yul\":13777:13779   */\n      0x0e\n        /* \"#utility.yul\":13772:13775   */\n      dup4\n        /* \"#utility.yul\":13713:13780   */\n      tag_295\n      jump\t// in\n    tag_453:\n        /* \"#utility.yul\":13706:13780   */\n      swap2\n      pop\n        /* \"#utility.yul\":13789:13882   */\n      tag_454\n        /* \"#utility.yul\":13878:13881   */\n      dup3\n        /* \"#utility.yul\":13789:13882   */\n      tag_311\n      jump\t// in\n    tag_454:\n        /* \"#utility.yul\":13907:13909   */\n      0x20\n        /* \"#utility.yul\":13902:13905   */\n      dup3\n        /* \"#utility.yul\":13898:13910   */\n      add\n        /* \"#utility.yul\":13891:13910   */\n      swap1\n      pop\n        /* \"#utility.yul\":13550:13916   */\n      swap2\n      swap1\n      pop\n      jump\t// out\n        /* \"#utility.yul\":13922:14341   */\n    tag_155:\n        /* \"#utility.yul\":14088:14092   */\n      0x00\n        /* \"#utility.yul\":14126:14128   */\n      0x20\n        /* \"#utility.yul\":14115:14124   */\n      dup3\n        /* \"#utility.yul\":14111:14129   */\n      add\n        /* \"#utility.yul\":14103:14129   */\n      swap1\n      pop\n        /* \"#utility.yul\":14175:14184   */\n      dup2\n        /* \"#utility.yul\":14169:14173   */\n      dup2\n        /* \"#utility.yul\":14165:14185   */\n      sub\n        /* \"#utility.yul\":14161:14162   */\n      0x00\n        /* \"#utility.yul\":14150:14159   */\n      dup4\n        /* \"#utility.yul\":14146:14163   */\n      add\n        /* \"#utility.yul\":14139:14186   */\n      mstore\n        /* \"#utility.yul\":14203:14334   */\n      tag_456\n        /* \"#utility.yul\":14329:14333   */\n      dup2\n        /* \"#utility.yul\":14203:14334   */\n      tag_312\n      jump\t// in\n    tag_456:\n        /* \"#utility.yul\":14195:14334   */\n      swap1\n      pop\n        /* \"#utility.yul\":13922:14341   */\n      swap2\n      swap1\n      pop\n      jump\t// out\n        /* \"#utility.yul\":14347:14527   */\n    tag_313:\n        /* \"#utility.yul\":14395:14472   */\n      0x4e487b7100000000000000000000000000000000000000000000000000000000\n        /* \"#utility.yul\":14392:14393   */\n      0x00\n        /* \"#utility.yul\":14385:14473   */\n      mstore\n        /* \"#utility.yul\":14492:14496   */\n      0x11\n        /* \"#utility.yul\":14489:14490   */\n      0x04\n        /* \"#utility.yul\":14482:14497   */\n      mstore\n        /* \"#utility.yul\":14516:14520   */\n      0x24\n        /* \"#utility.yul\":14513:14514   */\n      0x00\n        /* \"#utility.yul\":14506:14521   */\n      revert\n        /* \"#utility.yul\":14533:14943   */\n    tag_160:\n        /* \"#utility.yul\":14573:14580   */\n      0x00\n        /* \"#utility.yul\":14596:14616   */\n      tag_459\n        /* \"#utility.yul\":14614:14615   */\n      dup3\n        /* \"#utility.yul\":14596:14616   */\n      tag_279\n      jump\t// in\n    tag_459:\n        /* \"#utility.yul\":14591:14616   */\n      swap2\n      pop\n        /* \"#utility.yul\":14630:14650   */\n      tag_460\n        /* \"#utility.yul\":14648:14649   */\n      dup4\n        /* \"#utility.yul\":14630:14650   */\n      tag_279\n      jump\t// in\n    tag_460:\n        /* \"#utility.yul\":14625:14650   */\n      swap3\n      pop\n        /* \"#utility.yul\":14685:14686   */\n      dup3\n        /* \"#utility.yul\":14682:14683   */\n      dup3\n        /* \"#utility.yul\":14678:14687   */\n      mul\n        /* \"#utility.yul\":14707:14737   */\n      tag_461\n        /* \"#utility.yul\":14725:14736   */\n      dup2\n        /* \"#utility.yul\":14707:14737   */\n      tag_279\n      jump\t// in\n    tag_461:\n        /* \"#utility.yul\":14696:14737   */\n      swap2\n      pop\n        /* \"#utility.yul\":14886:14887   */\n      dup3\n        /* \"#utility.yul\":14877:14884   */\n      dup3\n        /* \"#utility.yul\":14873:14888   */\n      div\n        /* \"#utility.yul\":14870:14871   */\n      dup5\n        /* \"#utility.yul\":14867:14889   */\n      eq\n        /* \"#utility.yul\":14847:14848   */\n      dup4\n        /* \"#utility.yul\":14840:14849   */\n      iszero\n        /* \"#utility.yul\":14820:14903   */\n      or\n        /* \"#utility.yul\":14797:14936   */\n      tag_462\n      jumpi\n        /* \"#utility.yul\":14916:14934   */\n      tag_463\n      tag_313\n      jump\t// in\n    tag_463:\n        /* \"#utility.yul\":14797:14936   */\n    tag_462:\n        /* \"#utility.yul\":14581:14943   */\n      pop\n        /* \"#utility.yul\":14533:14943   */\n      swap3\n      swap2\n      pop\n      pop\n      jump\t// out\n        /* \"#utility.yul\":14949:15034   */\n    tag_314:\n        /* \"#utility.yul\":14994:15001   */\n      0x00\n        /* \"#utility.yul\":15023:15028   */\n      dup2\n        /* \"#utility.yul\":15012:15028   */\n      swap1\n      pop\n        /* \"#utility.yul\":14949:15034   */\n      swap2\n      swap1\n      pop\n      jump\t// out\n        /* \"#utility.yul\":15040:15141   */\n    tag_315:\n        /* \"#utility.yul\":15076:15083   */\n      0x00\n        /* \"#utility.yul\":15116:15134   */\n      0xffffffffffffffff\n        /* \"#utility.yul\":15109:15114   */\n      dup3\n        /* \"#utility.yul\":15105:15135   */\n      and\n        /* \"#utility.yul\":15094:15135   */\n      swap1\n      pop\n        /* \"#utility.yul\":15040:15141   */\n      swap2\n      swap1\n      pop\n      jump\t// out\n        /* \"#utility.yul\":15147:15303   */\n    tag_316:\n        /* \"#utility.yul\":15204:15213   */\n      0x00\n        /* \"#utility.yul\":15237:15297   */\n      tag_467\n        /* \"#utility.yul\":15254:15296   */\n      tag_468\n        /* \"#utility.yul\":15263:15295   */\n      tag_469\n        /* \"#utility.yul\":15289:15294   */\n      dup5\n        /* \"#utility.yul\":15263:15295   */\n      tag_314\n      jump\t// in\n    tag_469:\n        /* \"#utility.yul\":15254:15296   */\n      tag_290\n      jump\t// in\n    tag_468:\n        /* \"#utility.yul\":15237:15297   */\n      tag_315\n      jump\t// in\n    tag_467:\n        /* \"#utility.yul\":15224:15297   */\n      swap1\n      pop\n        /* \"#utility.yul\":15147:15303   */\n      swap2\n      swap1\n      pop\n      jump\t// out\n        /* \"#utility.yul\":15309:15454   */\n    tag_317:\n        /* \"#utility.yul\":15403:15447   */\n      tag_471\n        /* \"#utility.yul\":15441:15446   */\n      dup2\n        /* \"#utility.yul\":15403:15447   */\n      tag_316\n      jump\t// in\n    tag_471:\n        /* \"#utility.yul\":15398:15401   */\n      dup3\n        /* \"#utility.yul\":15391:15448   */\n      mstore\n        /* \"#utility.yul\":15309:15454   */\n      pop\n      pop\n      jump\t// out\n        /* \"#utility.yul\":15460:15696   */\n    tag_173:\n        /* \"#utility.yul\":15560:15564   */\n      0x00\n        /* \"#utility.yul\":15598:15600   */\n      0x20\n        /* \"#utility.yul\":15587:15596   */\n      dup3\n        /* \"#utility.yul\":15583:15601   */\n      add\n        /* \"#utility.yul\":15575:15601   */\n      swap1\n      pop\n        /* \"#utility.yul\":15611:15689   */\n      tag_473\n        /* \"#utility.yul\":15686:15687   */\n      0x00\n        /* \"#utility.yul\":15675:15684   */\n      dup4\n        /* \"#utility.yul\":15671:15688   */\n      add\n        /* \"#utility.yul\":15662:15668   */\n      dup5\n        /* \"#utility.yul\":15611:15689   */\n      tag_317\n      jump\t// in\n    tag_473:\n        /* \"#utility.yul\":15460:15696   */\n      swap3\n      swap2\n      pop\n      pop\n      jump\t// out\n        /* \"#utility.yul\":15702:15883   */\n    tag_318:\n        /* \"#utility.yul\":15842:15875   */\n      0x5265656e7472616e637947756172643a207265656e7472616e742063616c6c00\n        /* \"#utility.yul\":15838:15839   */\n      0x00\n        /* \"#utility.yul\":15830:15836   */\n      dup3\n        /* \"#utility.yul\":15826:15840   */\n      add\n        /* \"#utility.yul\":15819:15876   */\n      mstore\n        /* \"#utility.yul\":15702:15883   */\n      pop\n      jump\t// out\n        /* \"#utility.yul\":15889:16255   */\n    tag_319:\n        /* \"#utility.yul\":16031:16034   */\n      0x00\n        /* \"#utility.yul\":16052:16119   */\n      tag_476\n        /* \"#utility.yul\":16116:16118   */\n      0x1f\n        /* \"#utility.yul\":16111:16114   */\n      dup4\n        /* \"#utility.yul\":16052:16119   */\n      tag_295\n      jump\t// in\n    tag_476:\n        /* \"#utility.yul\":16045:16119   */\n      swap2\n      pop\n        /* \"#utility.yul\":16128:16221   */\n      tag_477\n        /* \"#utility.yul\":16217:16220   */\n      dup3\n        /* \"#utility.yul\":16128:16221   */\n      tag_318\n      jump\t// in\n    tag_477:\n        /* \"#utility.yul\":16246:16248   */\n      0x20\n        /* \"#utility.yul\":16241:16244   */\n      dup3\n        /* \"#utility.yul\":16237:16249   */\n      add\n        /* \"#utility.yul\":16230:16249   */\n      swap1\n      pop\n        /* \"#utility.yul\":15889:16255   */\n      swap2\n      swap1\n      pop\n      jump\t// out\n        /* \"#utility.yul\":16261:16680   */\n    tag_201:\n        /* \"#utility.yul\":16427:16431   */\n      0x00\n        /* \"#utility.yul\":16465:16467   */\n      0x20\n        /* \"#utility.yul\":16454:16463   */\n      dup3\n        /* \"#utility.yul\":16450:16468   */\n      add\n        /* \"#utility.yul\":16442:16468   */\n      swap1\n      pop\n        /* \"#utility.yul\":16514:16523   */\n      dup2\n        /* \"#utility.yul\":16508:16512   */\n      dup2\n        /* \"#utility.yul\":16504:16524   */\n      sub\n        /* \"#utility.yul\":16500:16501   */\n      0x00\n        /* \"#utility.yul\":16489:16498   */\n      dup4\n        /* \"#utility.yul\":16485:16502   */\n      add\n        /* \"#utility.yul\":16478:16525   */\n      mstore\n        /* \"#utility.yul\":16542:16673   */\n      tag_479\n        /* \"#utility.yul\":16668:16672   */\n      dup2\n        /* \"#utility.yul\":16542:16673   */\n      tag_319\n      jump\t// in\n    tag_479:\n        /* \"#utility.yul\":16534:16673   */\n      swap1\n      pop\n        /* \"#utility.yul\":16261:16680   */\n      swap2\n      swap1\n      pop\n      jump\t// out\n        /* \"#utility.yul\":16686:16877   */\n    tag_204:\n        /* \"#utility.yul\":16726:16729   */\n      0x00\n        /* \"#utility.yul\":16745:16765   */\n      tag_481\n        /* \"#utility.yul\":16763:16764   */\n      dup3\n        /* \"#utility.yul\":16745:16765   */\n      tag_279\n      jump\t// in\n    tag_481:\n        /* \"#utility.yul\":16740:16765   */\n      swap2\n      pop\n        /* \"#utility.yul\":16779:16799   */\n      tag_482\n        /* \"#utility.yul\":16797:16798   */\n      dup4\n        /* \"#utility.yul\":16779:16799   */\n      tag_279\n      jump\t// in\n    tag_482:\n        /* \"#utility.yul\":16774:16799   */\n      swap3\n      pop\n        /* \"#utility.yul\":16822:16823   */\n      dup3\n        /* \"#utility.yul\":16819:16820   */\n      dup3\n        /* \"#utility.yul\":16815:16824   */\n      add\n        /* \"#utility.yul\":16808:16824   */\n      swap1\n      pop\n        /* \"#utility.yul\":16843:16846   */\n      dup1\n        /* \"#utility.yul\":16840:16841   */\n      dup3\n        /* \"#utility.yul\":16837:16847   */\n      gt\n        /* \"#utility.yul\":16834:16870   */\n      iszero\n      tag_483\n      jumpi\n        /* \"#utility.yul\":16850:16868   */\n      tag_484\n      tag_313\n      jump\t// in\n    tag_484:\n        /* \"#utility.yul\":16834:16870   */\n    tag_483:\n        /* \"#utility.yul\":16686:16877   */\n      swap3\n      swap2\n      pop\n      pop\n      jump\t// out\n        /* \"#utility.yul\":16883:17215   */\n    tag_208:\n        /* \"#utility.yul\":17004:17008   */\n      0x00\n        /* \"#utility.yul\":17042:17044   */\n      0x40\n        /* \"#utility.yul\":17031:17040   */\n      dup3\n        /* \"#utility.yul\":17027:17045   */\n      add\n        /* \"#utility.yul\":17019:17045   */\n      swap1\n      pop\n        /* \"#utility.yul\":17055:17126   */\n      tag_486\n        /* \"#utility.yul\":17123:17124   */\n      0x00\n        /* \"#utility.yul\":17112:17121   */\n      dup4\n        /* \"#utility.yul\":17108:17125   */\n      add\n        /* \"#utility.yul\":17099:17105   */\n      dup6\n        /* \"#utility.yul\":17055:17126   */\n      tag_287\n      jump\t// in\n    tag_486:\n        /* \"#utility.yul\":17136:17208   */\n      tag_487\n        /* \"#utility.yul\":17204:17206   */\n      0x20\n        /* \"#utility.yul\":17193:17202   */\n      dup4\n        /* \"#utility.yul\":17189:17207   */\n      add\n        /* \"#utility.yul\":17180:17186   */\n      dup5\n        /* \"#utility.yul\":17136:17208   */\n      tag_284\n      jump\t// in\n    tag_487:\n        /* \"#utility.yul\":16883:17215   */\n      swap4\n      swap3\n      pop\n      pop\n      pop\n      jump\t// out\n        /* \"#utility.yul\":17221:17387   */\n    tag_320:\n        /* \"#utility.yul\":17361:17379   */\n      0x5061757361626c653a2070617573656400000000000000000000000000000000\n        /* \"#utility.yul\":17357:17358   */\n      0x00\n        /* \"#utility.yul\":17349:17355   */\n      dup3\n        /* \"#utility.yul\":17345:17359   */\n      add\n        /* \"#utility.yul\":17338:17380   */\n      mstore\n        /* \"#utility.yul\":17221:17387   */\n      pop\n      jump\t// out\n        /* \"#utility.yul\":17393:17759   */\n    tag_321:\n        /* \"#utility.yul\":17535:17538   */\n      0x00\n        /* \"#utility.yul\":17556:17623   */\n      tag_490\n        /* \"#utility.yul\":17620:17622   */\n      0x10\n        /* \"#utility.yul\":17615:17618   */\n      dup4\n        /* \"#utility.yul\":17556:17623   */\n      tag_295\n      jump\t// in\n    tag_490:\n        /* \"#utility.yul\":17549:17623   */\n      swap2\n      pop\n        /* \"#utility.yul\":17632:17725   */\n      tag_491\n        /* \"#utility.yul\":17721:17724   */\n      dup3\n        /* \"#utility.yul\":17632:17725   */\n      tag_320\n      jump\t// in\n    tag_491:\n        /* \"#utility.yul\":17750:17752   */\n      0x20\n        /* \"#utility.yul\":17745:17748   */\n      dup3\n        /* \"#utility.yul\":17741:17753   */\n      add\n        /* \"#utility.yul\":17734:17753   */\n      swap1\n      pop\n        /* \"#utility.yul\":17393:17759   */\n      swap2\n      swap1\n      pop\n      jump\t// out\n        /* \"#utility.yul\":17765:18184   */\n    tag_222:\n        /* \"#utility.yul\":17931:17935   */\n      0x00\n        /* \"#utility.yul\":17969:17971   */\n      0x20\n        /* \"#utility.yul\":17958:17967   */\n      dup3\n        /* \"#utility.yul\":17954:17972   */\n      add\n        /* \"#utility.yul\":17946:17972   */\n      swap1\n      pop\n        /* \"#utility.yul\":18018:18027   */\n      dup2\n        /* \"#utility.yul\":18012:18016   */\n      dup2\n        /* \"#utility.yul\":18008:18028   */\n      sub\n        /* \"#utility.yul\":18004:18005   */\n      0x00\n        /* \"#utility.yul\":17993:18002   */\n      dup4\n        /* \"#utility.yul\":17989:18006   */\n      add\n        /* \"#utility.yul\":17982:18029   */\n      mstore\n        /* \"#utility.yul\":18046:18177   */\n      tag_493\n        /* \"#utility.yul\":18172:18176   */\n      dup2\n        /* \"#utility.yul\":18046:18177   */\n      tag_321\n      jump\t// in\n    tag_493:\n        /* \"#utility.yul\":18038:18177   */\n      swap1\n      pop\n        /* \"#utility.yul\":17765:18184   */\n      swap2\n      swap1\n      pop\n      jump\t// out\n        /* \"#utility.yul\":18190:18632   */\n    tag_226:\n        /* \"#utility.yul\":18339:18343   */\n      0x00\n        /* \"#utility.yul\":18377:18379   */\n      0x60\n        /* \"#utility.yul\":18366:18375   */\n      dup3\n        /* \"#utility.yul\":18362:18380   */\n      add\n        /* \"#utility.yul\":18354:18380   */\n      swap1\n      pop\n        /* \"#utility.yul\":18390:18461   */\n      tag_495\n        /* \"#utility.yul\":18458:18459   */\n      0x00\n        /* \"#utility.yul\":18447:18456   */\n      dup4\n        /* \"#utility.yul\":18443:18460   */\n      add\n        /* \"#utility.yul\":18434:18440   */\n      dup7\n        /* \"#utility.yul\":18390:18461   */\n      tag_287\n      jump\t// in\n    tag_495:\n        /* \"#utility.yul\":18471:18543   */\n      tag_496\n        /* \"#utility.yul\":18539:18541   */\n      0x20\n        /* \"#utility.yul\":18528:18537   */\n      dup4\n        /* \"#utility.yul\":18524:18542   */\n      add\n        /* \"#utility.yul\":18515:18521   */\n      dup6\n        /* \"#utility.yul\":18471:18543   */\n      tag_287\n      jump\t// in\n    tag_496:\n        /* \"#utility.yul\":18553:18625   */\n      tag_497\n        /* \"#utility.yul\":18621:18623   */\n      0x40\n        /* \"#utility.yul\":18610:18619   */\n      dup4\n        /* \"#utility.yul\":18606:18624   */\n      add\n        /* \"#utility.yul\":18597:18603   */\n      dup5\n        /* \"#utility.yul\":18553:18625   */\n      tag_284\n      jump\t// in\n    tag_497:\n        /* \"#utility.yul\":18190:18632   */\n      swap5\n      swap4\n      pop\n      pop\n      pop\n      pop\n      jump\t// out\n        /* \"#utility.yul\":18638:18818   */\n    tag_322:\n        /* \"#utility.yul\":18686:18763   */\n      0x4e487b7100000000000000000000000000000000000000000000000000000000\n        /* \"#utility.yul\":18683:18684   */\n      0x00\n        /* \"#utility.yul\":18676:18764   */\n      mstore\n        /* \"#utility.yul\":18783:18787   */\n      0x12\n        /* \"#utility.yul\":18780:18781   */\n      0x04\n        /* \"#utility.yul\":18773:18788   */\n      mstore\n        /* \"#utility.yul\":18807:18811   */\n      0x24\n        /* \"#utility.yul\":18804:18805   */\n      0x00\n        /* \"#utility.yul\":18797:18812   */\n      revert\n        /* \"#utility.yul\":18824:19009   */\n    tag_237:\n        /* \"#utility.yul\":18864:18865   */\n      0x00\n        /* \"#utility.yul\":18881:18901   */\n      tag_500\n        /* \"#utility.yul\":18899:18900   */\n      dup3\n        /* \"#utility.yul\":18881:18901   */\n      tag_279\n      jump\t// in\n    tag_500:\n        /* \"#utility.yul\":18876:18901   */\n      swap2\n      pop\n        /* \"#utility.yul\":18915:18935   */\n      tag_501\n        /* \"#utility.yul\":18933:18934   */\n      dup4\n        /* \"#utility.yul\":18915:18935   */\n      tag_279\n      jump\t// in\n    tag_501:\n        /* \"#utility.yul\":18910:18935   */\n      swap3\n      pop\n        /* \"#utility.yul\":18954:18955   */\n      dup3\n        /* \"#utility.yul\":18944:18979   */\n      tag_502\n      jumpi\n        /* \"#utility.yul\":18959:18977   */\n      tag_503\n      tag_322\n      jump\t// in\n    tag_503:\n        /* \"#utility.yul\":18944:18979   */\n    tag_502:\n        /* \"#utility.yul\":19001:19002   */\n      dup3\n        /* \"#utility.yul\":18998:18999   */\n      dup3\n        /* \"#utility.yul\":18994:19003   */\n      div\n        /* \"#utility.yul\":18989:19003   */\n      swap1\n      pop\n        /* \"#utility.yul\":18824:19009   */\n      swap3\n      swap2\n      pop\n      pop\n      jump\t// out\n        /* \"#utility.yul\":19015:19131   */\n    tag_323:\n        /* \"#utility.yul\":19085:19106   */\n      tag_505\n        /* \"#utility.yul\":19100:19105   */\n      dup2\n        /* \"#utility.yul\":19085:19106   */\n      tag_282\n      jump\t// in\n    tag_505:\n        /* \"#utility.yul\":19078:19083   */\n      dup2\n        /* \"#utility.yul\":19075:19107   */\n      eq\n        /* \"#utility.yul\":19065:19125   */\n      tag_506\n      jumpi\n        /* \"#utility.yul\":19121:19122   */\n      0x00\n        /* \"#utility.yul\":19118:19119   */\n      dup1\n        /* \"#utility.yul\":19111:19123   */\n      revert\n        /* \"#utility.yul\":19065:19125   */\n    tag_506:\n        /* \"#utility.yul\":19015:19131   */\n      pop\n      jump\t// out\n        /* \"#utility.yul\":19137:19274   */\n    tag_324:\n        /* \"#utility.yul\":19191:19196   */\n      0x00\n        /* \"#utility.yul\":19222:19228   */\n      dup2\n        /* \"#utility.yul\":19216:19229   */\n      mload\n        /* \"#utility.yul\":19207:19229   */\n      swap1\n      pop\n        /* \"#utility.yul\":19238:19268   */\n      tag_508\n        /* \"#utility.yul\":19262:19267   */\n      dup2\n        /* \"#utility.yul\":19238:19268   */\n      tag_323\n      jump\t// in\n    tag_508:\n        /* \"#utility.yul\":19137:19274   */\n      swap3\n      swap2\n      pop\n      pop\n      jump\t// out\n        /* \"#utility.yul\":19280:19625   */\n    tag_243:\n        /* \"#utility.yul\":19347:19353   */\n      0x00\n        /* \"#utility.yul\":19396:19398   */\n      0x20\n        /* \"#utility.yul\":19384:19393   */\n      dup3\n        /* \"#utility.yul\":19375:19382   */\n      dup5\n        /* \"#utility.yul\":19371:19394   */\n      sub\n        /* \"#utility.yul\":19367:19399   */\n      slt\n        /* \"#utility.yul\":19364:19483   */\n      iszero\n      tag_510\n      jumpi\n        /* \"#utility.yul\":19402:19481   */\n      tag_511\n      tag_277\n      jump\t// in\n    tag_511:\n        /* \"#utility.yul\":19364:19483   */\n    tag_510:\n        /* \"#utility.yul\":19522:19523   */\n      0x00\n        /* \"#utility.yul\":19547:19608   */\n      tag_512\n        /* \"#utility.yul\":19600:19607   */\n      dup5\n        /* \"#utility.yul\":19591:19597   */\n      dup3\n        /* \"#utility.yul\":19580:19589   */\n      dup6\n        /* \"#utility.yul\":19576:19598   */\n      add\n        /* \"#utility.yul\":19547:19608   */\n      tag_324\n      jump\t// in\n    tag_512:\n        /* \"#utility.yul\":19537:19608   */\n      swap2\n      pop\n        /* \"#utility.yul\":19493:19618   */\n      pop\n        /* \"#utility.yul\":19280:19625   */\n      swap3\n      swap2\n      pop\n      pop\n      jump\t// out\n        /* \"#utility.yul\":19631:19801   */\n    tag_325:\n        /* \"#utility.yul\":19771:19793   */\n      0x5061757361626c653a206e6f7420706175736564000000000000000000000000\n        /* \"#utility.yul\":19767:19768   */\n      0x00\n        /* \"#utility.yul\":19759:19765   */\n      dup3\n        /* \"#utility.yul\":19755:19769   */\n      add\n        /* \"#utility.yul\":19748:19794   */\n      mstore\n        /* \"#utility.yul\":19631:19801   */\n      pop\n      jump\t// out\n        /* \"#utility.yul\":19807:20173   */\n    tag_326:\n        /* \"#utility.yul\":19949:19952   */\n      0x00\n        /* \"#utility.yul\":19970:20037   */\n      tag_515\n        /* \"#utility.yul\":20034:20036   */\n      0x14\n        /* \"#utility.yul\":20029:20032   */\n      dup4\n        /* \"#utility.yul\":19970:20037   */\n      tag_295\n      jump\t// in\n    tag_515:\n        /* \"#utility.yul\":19963:20037   */\n      swap2\n      pop\n        /* \"#utility.yul\":20046:20139   */\n      tag_516\n        /* \"#utility.yul\":20135:20138   */\n      dup3\n        /* \"#utility.yul\":20046:20139   */\n      tag_325\n      jump\t// in\n    tag_516:\n        /* \"#utility.yul\":20164:20166   */\n      0x20\n        /* \"#utility.yul\":20159:20162   */\n      dup3\n        /* \"#utility.yul\":20155:20167   */\n      add\n        /* \"#utility.yul\":20148:20167   */\n      swap1\n      pop\n        /* \"#utility.yul\":19807:20173   */\n      swap2\n      swap1\n      pop\n      jump\t// out\n        /* \"#utility.yul\":20179:20598   */\n    tag_250:\n        /* \"#utility.yul\":20345:20349   */\n      0x00\n        /* \"#utility.yul\":20383:20385   */\n      0x20\n        /* \"#utility.yul\":20372:20381   */\n      dup3\n        /* \"#utility.yul\":20368:20386   */\n      add\n        /* \"#utility.yul\":20360:20386   */\n      swap1\n      pop\n        /* \"#utility.yul\":20432:20441   */\n      dup2\n        /* \"#utility.yul\":20426:20430   */\n      dup2\n        /* \"#utility.yul\":20422:20442   */\n      sub\n        /* \"#utility.yul\":20418:20419   */\n      0x00\n        /* \"#utility.yul\":20407:20416   */\n      dup4\n        /* \"#utility.yul\":20403:20420   */\n      add\n        /* \"#utility.yul\":20396:20443   */\n      mstore\n        /* \"#utility.yul\":20460:20591   */\n      tag_518\n        /* \"#utility.yul\":20586:20590   */\n      dup2\n        /* \"#utility.yul\":20460:20591   */\n      tag_326\n      jump\t// in\n    tag_518:\n        /* \"#utility.yul\":20452:20591   */\n      swap1\n      pop\n        /* \"#utility.yul\":20179:20598   */\n      swap2\n      swap1\n      pop\n      jump\t// out\n        /* \"#utility.yul\":20604:20702   */\n    tag_327:\n        /* \"#utility.yul\":20655:20661   */\n      0x00\n        /* \"#utility.yul\":20689:20694   */\n      dup2\n        /* \"#utility.yul\":20683:20695   */\n      mload\n        /* \"#utility.yul\":20673:20695   */\n      swap1\n      pop\n        /* \"#utility.yul\":20604:20702   */\n      swap2\n      swap1\n      pop\n      jump\t// out\n        /* \"#utility.yul\":20708:20855   */\n    tag_328:\n        /* \"#utility.yul\":20809:20820   */\n      0x00\n        /* \"#utility.yul\":20846:20849   */\n      dup2\n        /* \"#utility.yul\":20831:20849   */\n      swap1\n      pop\n        /* \"#utility.yul\":20708:20855   */\n      swap3\n      swap2\n      pop\n      pop\n      jump\t// out\n        /* \"#utility.yul\":20861:21107   */\n    tag_329:\n        /* \"#utility.yul\":20942:20943   */\n      0x00\n        /* \"#utility.yul\":20952:21065   */\n    tag_522:\n        /* \"#utility.yul\":20966:20972   */\n      dup4\n        /* \"#utility.yul\":20963:20964   */\n      dup2\n        /* \"#utility.yul\":20960:20973   */\n      lt\n        /* \"#utility.yul\":20952:21065   */\n      iszero\n      tag_524\n      jumpi\n        /* \"#utility.yul\":21051:21052   */\n      dup1\n        /* \"#utility.yul\":21046:21049   */\n      dup3\n        /* \"#utility.yul\":21042:21053   */\n      add\n        /* \"#utility.yul\":21036:21054   */\n      mload\n        /* \"#utility.yul\":21032:21033   */\n      dup2\n        /* \"#utility.yul\":21027:21030   */\n      dup5\n        /* \"#utility.yul\":21023:21034   */\n      add\n        /* \"#utility.yul\":21016:21055   */\n      mstore\n        /* \"#utility.yul\":20988:20990   */\n      0x20\n        /* \"#utility.yul\":20985:20986   */\n      dup2\n        /* \"#utility.yul\":20981:20991   */\n      add\n        /* \"#utility.yul\":20976:20991   */\n      swap1\n      pop\n        /* \"#utility.yul\":20952:21065   */\n      jump(tag_522)\n    tag_524:\n        /* \"#utility.yul\":21099:21100   */\n      0x00\n        /* \"#utility.yul\":21090:21096   */\n      dup5\n        /* \"#utility.yul\":21085:21088   */\n      dup5\n        /* \"#utility.yul\":21081:21097   */\n      add\n        /* \"#utility.yul\":21074:21101   */\n      mstore\n        /* \"#utility.yul\":20923:21107   */\n      pop\n        /* \"#utility.yul\":20861:21107   */\n      pop\n      pop\n      pop\n      jump\t// out\n        /* \"#utility.yul\":21113:21499   */\n    tag_330:\n        /* \"#utility.yul\":21217:21220   */\n      0x00\n        /* \"#utility.yul\":21245:21283   */\n      tag_526\n        /* \"#utility.yul\":21277:21282   */\n      dup3\n        /* \"#utility.yul\":21245:21283   */\n      tag_327\n      jump\t// in\n    tag_526:\n        /* \"#utility.yul\":21299:21387   */\n      tag_527\n        /* \"#utility.yul\":21380:21386   */\n      dup2\n        /* \"#utility.yul\":21375:21378   */\n      dup6\n        /* \"#utility.yul\":21299:21387   */\n      tag_328\n      jump\t// in\n    tag_527:\n        /* \"#utility.yul\":21292:21387   */\n      swap4\n      pop\n        /* \"#utility.yul\":21396:21461   */\n      tag_528\n        /* \"#utility.yul\":21454:21460   */\n      dup2\n        /* \"#utility.yul\":21449:21452   */\n      dup6\n        /* \"#utility.yul\":21442:21446   */\n      0x20\n        /* \"#utility.yul\":21435:21440   */\n      dup7\n        /* \"#utility.yul\":21431:21447   */\n      add\n        /* \"#utility.yul\":21396:21461   */\n      tag_329\n      jump\t// in\n    tag_528:\n        /* \"#utility.yul\":21486:21492   */\n      dup1\n        /* \"#utility.yul\":21481:21484   */\n      dup5\n        /* \"#utility.yul\":21477:21493   */\n      add\n        /* \"#utility.yul\":21470:21493   */\n      swap2\n      pop\n        /* \"#utility.yul\":21221:21499   */\n      pop\n        /* \"#utility.yul\":21113:21499   */\n      swap3\n      swap2\n      pop\n      pop\n      jump\t// out\n        /* \"#utility.yul\":21505:21776   */\n    tag_259:\n        /* \"#utility.yul\":21635:21638   */\n      0x00\n        /* \"#utility.yul\":21657:21750   */\n      tag_530\n        /* \"#utility.yul\":21746:21749   */\n      dup3\n        /* \"#utility.yul\":21737:21743   */\n      dup5\n        /* \"#utility.yul\":21657:21750   */\n      tag_330\n      jump\t// in\n    tag_530:\n        /* \"#utility.yul\":21650:21750   */\n      swap2\n      pop\n        /* \"#utility.yul\":21767:21770   */\n      dup2\n        /* \"#utility.yul\":21760:21770   */\n      swap1\n      pop\n        /* \"#utility.yul\":21505:21776   */\n      swap3\n      swap2\n      pop\n      pop\n      jump\t// out\n\n    auxdata: 0xa2646970667358221220cdc7912c64497fe3cbd867e772631832d32e68a5e607084f7ef5e6c0b4a8179e64736f6c63430008180033\n}\n",
				"bytecode": {
					"linkReferences": {},
					"object": "608060405234801561000f575f80fd5b505f805f6101000a81548160ff0219169083151502179055506001808190555061202a8061003c5f395ff3fe608060405234801561000f575f80fd5b506004361061011f575f3560e01c80638456cb59116100ab578063e30081a01161006f578063e30081a0146102b8578063f1887684146102d4578063f2fde38b146102f2578063fc0c546a1461030e578063ff897dbd1461032c5761011f565b80638456cb59146101ff5780638da5cb5b1461020957806397378b1a146102275780639fa828ac14610257578063a8e62b97146102885761011f565b80635c975abb116100f25780635c975abb146101815780635d80ca321461019f5780636cee0131146101bd5780637b0472f0146101d95780638129fc1c146101f55761011f565b8063106b5da1146101235780632e17de781461013f5780632e1a7d4d1461015b5780633f4ba83a14610177575b5f80fd5b61013d600480360381019061013891906115d7565b610348565b005b610159600480360381019061015491906115d7565b6103e1565b005b610175600480360381019061017091906115d7565b6105b3565b005b61017f610771565b005b61018961080a565b604051610196919061161c565b60405180910390f35b6101a761081e565b6040516101b49190611644565b60405180910390f35b6101d760048036038101906101d2919061165d565b610824565b005b6101f360048036038101906101ee919061165d565b6108cd565b005b6101fd610add565b005b610207610c94565b005b610211610d2d565b60405161021e91906116da565b60405180910390f35b610241600480360381019061023c91906115d7565b610d52565b60405161024e9190611644565b60405180910390f35b610271600480360381019061026c919061171d565b610d67565b60405161027f92919061175b565b60405180910390f35b6102a2600480360381019061029d9190611782565b610d92565b6040516102af9190611644565b60405180910390f35b6102d260048036038101906102cd91906117d2565b610dda565b005b6102dc610eac565b6040516102e99190611644565b60405180910390f35b61030c600480360381019061030791906117d2565b610eb2565b005b610316610f84565b6040516103239190611858565b60405180910390f35b610346600480360381019061034191906115d7565b610fa9565b005b60045f9054906101000a900473ffffffffffffffffffffffffffffffffffffffff1673ffffffffffffffffffffffffffffffffffffffff163373ffffffffffffffffffffffffffffffffffffffff16146103d7576040517f08c379a00000000000000000000000000000000000000000000000000000000081526004016103ce906118cb565b60405180910390fd5b8060038190555050565b6103e9611042565b5f60055f3373ffffffffffffffffffffffffffffffffffffffff1673ffffffffffffffffffffffffffffffffffffffff1681526020019081526020015f205f8381526020019081526020015f2090505f815f015490505f8111610481576040517f08c379a000000000000000000000000000000000000000000000000000000000815260040161047890611933565b60405180910390fd5b816001015442116104c7576040517f08c379a00000000000000000000000000000000000000000000000000000000081526004016104be9061199b565b60405180910390fd5b5f60065f8581526020019081526020015f205490505f6104e8838387610d92565b905061054833610501838661109190919063ffffffff16565b60075f9054906101000a900473ffffffffffffffffffffffffffffffffffffffff1673ffffffffffffffffffffffffffffffffffffffff166110a69092919063ffffffff16565b60055f3373ffffffffffffffffffffffffffffffffffffffff1673ffffffffffffffffffffffffffffffffffffffff1681526020019081526020015f205f8681526020019081526020015f205f8082015f9055600182015f90555050505050506105b0611125565b50565b60045f9054906101000a900473ffffffffffffffffffffffffffffffffffffffff1673ffffffffffffffffffffffffffffffffffffffff163373ffffffffffffffffffffffffffffffffffffffff1614610642576040517f08c379a0000000000000000000000000000000000000000000000000000000008152600401610639906118cb565b60405180910390fd5b5f60075f9054906101000a900473ffffffffffffffffffffffffffffffffffffffff1673ffffffffffffffffffffffffffffffffffffffff166370a08231306040518263ffffffff1660e01b815260040161069d91906116da565b602060405180830381865afa1580156106b8573d5f803e3d5ffd5b505050506040513d601f19601f820116820180604052508101906106dc91906119cd565b905081811015610721576040517f08c379a000000000000000000000000000000000000000000000000000000000815260040161071890611a68565b60405180910390fd5b61076d338360075f9054906101000a900473ffffffffffffffffffffffffffffffffffffffff1673ffffffffffffffffffffffffffffffffffffffff166110a69092919063ffffffff16565b5050565b60045f9054906101000a900473ffffffffffffffffffffffffffffffffffffffff1673ffffffffffffffffffffffffffffffffffffffff163373ffffffffffffffffffffffffffffffffffffffff1614610800576040517f08c379a00000000000000000000000000000000000000000000000000000000081526004016107f7906118cb565b60405180910390fd5b61080861112e565b565b5f805f9054906101000a900460ff16905090565b60035481565b60045f9054906101000a900473ffffffffffffffffffffffffffffffffffffffff1673ffffffffffffffffffffffffffffffffffffffff163373ffffffffffffffffffffffffffffffffffffffff16146108b3576040517f08c379a00000000000000000000000000000000000000000000000000000000081526004016108aa906118cb565b60405180910390fd5b8060065f8481526020019081526020015f20819055505050565b6108d561118e565b6108dd611042565b600254821015610922576040517f08c379a000000000000000000000000000000000000000000000000000000000815260040161091990611ad0565b60405180910390fd5b600354821115610967576040517f08c379a000000000000000000000000000000000000000000000000000000000815260040161095e90611b38565b60405180910390fd5b5f60065f8381526020019081526020015f205490505f81116109be576040517f08c379a00000000000000000000000000000000000000000000000000000000081526004016109b590611ba0565b60405180910390fd5b5f60055f3373ffffffffffffffffffffffffffffffffffffffff1673ffffffffffffffffffffffffffffffffffffffff1681526020019081526020015f205f8481526020019081526020015f2090505f815f015414610a52576040517f08c379a0000000000000000000000000000000000000000000000000000000008152600401610a4990611c08565b60405180910390fd5b610aa033308660075f9054906101000a900473ffffffffffffffffffffffffffffffffffffffff1673ffffffffffffffffffffffffffffffffffffffff166111d8909392919063ffffffff16565b83815f0181905550610ac7603c84610ab89190611c53565b4261109190919063ffffffff16565b81600101819055505050610ad9611125565b5050565b5f610ae661125a565b90505f815f0160089054906101000a900460ff161590505f825f015f9054906101000a900467ffffffffffffffff1690505f808267ffffffffffffffff16148015610b2e5750825b90505f60018367ffffffffffffffff16148015610b6157505f3073ffffffffffffffffffffffffffffffffffffffff163b145b905081158015610b6f575080155b15610ba6576040517ff92ee8a900000000000000000000000000000000000000000000000000000000815260040160405180910390fd5b6001855f015f6101000a81548167ffffffffffffffff021916908367ffffffffffffffff1602179055508315610bf3576001855f0160086101000a81548160ff0219169083151502179055505b3360045f6101000a81548173ffffffffffffffffffffffffffffffffffffffff021916908373ffffffffffffffffffffffffffffffffffffffff1602179055508315610c8d575f855f0160086101000a81548160ff0219169083151502179055507fc7f505b2f371ae2175ee4913f4499e1f2633a7b5936321eed1cdaeb6115181d26001604051610c849190611ce0565b60405180910390a15b5050505050565b60045f9054906101000a900473ffffffffffffffffffffffffffffffffffffffff1673ffffffffffffffffffffffffffffffffffffffff163373ffffffffffffffffffffffffffffffffffffffff1614610d23576040517f08c379a0000000000000000000000000000000000000000000000000000000008152600401610d1a906118cb565b60405180910390fd5b610d2b611281565b565b60045f9054906101000a900473ffffffffffffffffffffffffffffffffffffffff1681565b6006602052805f5260405f205f915090505481565b6005602052815f5260405f20602052805f5260405f205f9150915050805f0154908060010154905082565b5f80610dcd612ee0610dbf85610db1888a6112e290919063ffffffff16565b6112e290919063ffffffff16565b6112f790919063ffffffff16565b9050809150509392505050565b60045f9054906101000a900473ffffffffffffffffffffffffffffffffffffffff1673ffffffffffffffffffffffffffffffffffffffff163373ffffffffffffffffffffffffffffffffffffffff1614610e69576040517f08c379a0000000000000000000000000000000000000000000000000000000008152600401610e60906118cb565b60405180910390fd5b8060075f6101000a81548173ffffffffffffffffffffffffffffffffffffffff021916908373ffffffffffffffffffffffffffffffffffffffff16021790555050565b60025481565b60045f9054906101000a900473ffffffffffffffffffffffffffffffffffffffff1673ffffffffffffffffffffffffffffffffffffffff163373ffffffffffffffffffffffffffffffffffffffff1614610f41576040517f08c379a0000000000000000000000000000000000000000000000000000000008152600401610f38906118cb565b60405180910390fd5b8060045f6101000a81548173ffffffffffffffffffffffffffffffffffffffff021916908373ffffffffffffffffffffffffffffffffffffffff16021790555050565b60075f9054906101000a900473ffffffffffffffffffffffffffffffffffffffff1681565b60045f9054906101000a900473ffffffffffffffffffffffffffffffffffffffff1673ffffffffffffffffffffffffffffffffffffffff163373ffffffffffffffffffffffffffffffffffffffff1614611038576040517f08c379a000000000000000000000000000000000000000000000000000000000815260040161102f906118cb565b60405180910390fd5b8060028190555050565b600260015403611087576040517f08c379a000000000000000000000000000000000000000000000000000000000815260040161107e90611d43565b60405180910390fd5b6002600181905550565b5f818361109e9190611d61565b905092915050565b611120838473ffffffffffffffffffffffffffffffffffffffff1663a9059cbb85856040516024016110d9929190611d94565b604051602081830303815290604052915060e01b6020820180517bffffffffffffffffffffffffffffffffffffffffffffffffffffffff838183161783525050505061130c565b505050565b60018081905550565b6111366113a1565b5f805f6101000a81548160ff0219169083151502179055507f5db9ee0a495bf2e6ff9c91a7834c1ba4fdd244a5e8aa4e537bd38aeae4b073aa6111776113ea565b60405161118491906116da565b60405180910390a1565b61119661080a565b156111d6576040517f08c379a00000000000000000000000000000000000000000000000000000000081526004016111cd90611e05565b60405180910390fd5b565b611254848573ffffffffffffffffffffffffffffffffffffffff166323b872dd86868660405160240161120d93929190611e23565b604051602081830303815290604052915060e01b6020820180517bffffffffffffffffffffffffffffffffffffffffffffffffffffffff838183161783525050505061130c565b50505050565b5f7ff0c57e16840df040f15088dc2f81fe391c3923bec73e23a9662efc9c229c6a00905090565b61128961118e565b60015f806101000a81548160ff0219169083151502179055507f62e78cea01bee320cd4e420270b5ea74000d11b0c9f74754ebdbfc544b05a2586112cb6113ea565b6040516112d891906116da565b60405180910390a1565b5f81836112ef9190611c53565b905092915050565b5f81836113049190611e85565b905092915050565b5f611336828473ffffffffffffffffffffffffffffffffffffffff166113f190919063ffffffff16565b90505f81511415801561135a5750808060200190518101906113589190611edf565b155b1561139c57826040517f5274afe700000000000000000000000000000000000000000000000000000000815260040161139391906116da565b60405180910390fd5b505050565b6113a961080a565b6113e8576040517f08c379a00000000000000000000000000000000000000000000000000000000081526004016113df90611f54565b60405180910390fd5b565b5f33905090565b60606113fe83835f611406565b905092915050565b60608147101561144d57306040517fcd78605900000000000000000000000000000000000000000000000000000000815260040161144491906116da565b60405180910390fd5b5f808573ffffffffffffffffffffffffffffffffffffffff1684866040516114759190611fde565b5f6040518083038185875af1925050503d805f81146114af576040519150601f19603f3d011682016040523d82523d5f602084013e6114b4565b606091505b50915091506114c48683836114cf565b925050509392505050565b6060826114e4576114df8261155c565b611554565b5f825114801561150a57505f8473ffffffffffffffffffffffffffffffffffffffff163b145b1561154c57836040517f9996b31500000000000000000000000000000000000000000000000000000000815260040161154391906116da565b60405180910390fd5b819050611555565b5b9392505050565b5f8151111561156e5780518082602001fd5b6040517f1425ea4200000000000000000000000000000000000000000000000000000000815260040160405180910390fd5b5f80fd5b5f819050919050565b6115b6816115a4565b81146115c0575f80fd5b50565b5f813590506115d1816115ad565b92915050565b5f602082840312156115ec576115eb6115a0565b5b5f6115f9848285016115c3565b91505092915050565b5f8115159050919050565b61161681611602565b82525050565b5f60208201905061162f5f83018461160d565b92915050565b61163e816115a4565b82525050565b5f6020820190506116575f830184611635565b92915050565b5f8060408385031215611673576116726115a0565b5b5f611680858286016115c3565b9250506020611691858286016115c3565b9150509250929050565b5f73ffffffffffffffffffffffffffffffffffffffff82169050919050565b5f6116c48261169b565b9050919050565b6116d4816116ba565b82525050565b5f6020820190506116ed5f8301846116cb565b92915050565b6116fc816116ba565b8114611706575f80fd5b50565b5f81359050611717816116f3565b92915050565b5f8060408385031215611733576117326115a0565b5b5f61174085828601611709565b9250506020611751858286016115c3565b9150509250929050565b5f60408201905061176e5f830185611635565b61177b6020830184611635565b9392505050565b5f805f60608486031215611799576117986115a0565b5b5f6117a6868287016115c3565b93505060206117b7868287016115c3565b92505060406117c8868287016115c3565b9150509250925092565b5f602082840312156117e7576117e66115a0565b5b5f6117f484828501611709565b91505092915050565b5f819050919050565b5f61182061181b6118168461169b565b6117fd565b61169b565b9050919050565b5f61183182611806565b9050919050565b5f61184282611827565b9050919050565b61185281611838565b82525050565b5f60208201905061186b5f830184611849565b92915050565b5f82825260208201905092915050565b7f6f6e6c792061646d696e732061726520616c6c6f7765640000000000000000005f82015250565b5f6118b5601783611871565b91506118c082611881565b602082019050919050565b5f6020820190508181035f8301526118e2816118a9565b9050919050565b7f6e6f20756e7374616b65206461746120666f756e6400000000000000000000005f82015250565b5f61191d601583611871565b9150611928826118e9565b602082019050919050565b5f6020820190508181035f83015261194a81611911565b9050919050565b7f706572696f64206973206e6f74206578706972656400000000000000000000005f82015250565b5f611985601583611871565b915061199082611951565b602082019050919050565b5f6020820190508181035f8301526119b281611979565b9050919050565b5f815190506119c7816115ad565b92915050565b5f602082840312156119e2576119e16115a0565b5b5f6119ef848285016119b9565b91505092915050565b7f436f6e747261637420646f6573206e6f74206861766520656e6f7567682062615f8201527f6c616e636520746f207769746864726177000000000000000000000000000000602082015250565b5f611a52603183611871565b9150611a5d826119f8565b604082019050919050565b5f6020820190508181035f830152611a7f81611a46565b9050919050565b7f616464206d6f726520616d6f756e7400000000000000000000000000000000005f82015250565b5f611aba600f83611871565b9150611ac582611a86565b602082019050919050565b5f6020820190508181035f830152611ae781611aae565b9050919050565b7f616464206c65737320616d6f756e7400000000000000000000000000000000005f82015250565b5f611b22600f83611871565b9150611b2d82611aee565b602082019050919050565b5f6020820190508181035f830152611b4f81611b16565b9050919050565b7f696e76616c6964206d6f6e7468000000000000000000000000000000000000005f82015250565b5f611b8a600d83611871565b9150611b9582611b56565b602082019050919050565b5f6020820190508181035f830152611bb781611b7e565b9050919050565b7f616c7265616479207374616b65640000000000000000000000000000000000005f82015250565b5f611bf2600e83611871565b9150611bfd82611bbe565b602082019050919050565b5f6020820190508181035f830152611c1f81611be6565b9050919050565b7f4e487b71000000000000000000000000000000000000000000000000000000005f52601160045260245ffd5b5f611c5d826115a4565b9150611c68836115a4565b9250828202611c76816115a4565b91508282048414831517611c8d57611c8c611c26565b5b5092915050565b5f819050919050565b5f67ffffffffffffffff82169050919050565b5f611cca611cc5611cc084611c94565b6117fd565b611c9d565b9050919050565b611cda81611cb0565b82525050565b5f602082019050611cf35f830184611cd1565b92915050565b7f5265656e7472616e637947756172643a207265656e7472616e742063616c6c005f82015250565b5f611d2d601f83611871565b9150611d3882611cf9565b602082019050919050565b5f6020820190508181035f830152611d5a81611d21565b9050919050565b5f611d6b826115a4565b9150611d76836115a4565b9250828201905080821115611d8e57611d8d611c26565b5b92915050565b5f604082019050611da75f8301856116cb565b611db46020830184611635565b9392505050565b7f5061757361626c653a20706175736564000000000000000000000000000000005f82015250565b5f611def601083611871565b9150611dfa82611dbb565b602082019050919050565b5f6020820190508181035f830152611e1c81611de3565b9050919050565b5f606082019050611e365f8301866116cb565b611e4360208301856116cb565b611e506040830184611635565b949350505050565b7f4e487b71000000000000000000000000000000000000000000000000000000005f52601260045260245ffd5b5f611e8f826115a4565b9150611e9a836115a4565b925082611eaa57611ea9611e58565b5b828204905092915050565b611ebe81611602565b8114611ec8575f80fd5b50565b5f81519050611ed981611eb5565b92915050565b5f60208284031215611ef457611ef36115a0565b5b5f611f0184828501611ecb565b91505092915050565b7f5061757361626c653a206e6f74207061757365640000000000000000000000005f82015250565b5f611f3e601483611871565b9150611f4982611f0a565b602082019050919050565b5f6020820190508181035f830152611f6b81611f32565b9050919050565b5f81519050919050565b5f81905092915050565b5f5b83811015611fa3578082015181840152602081019050611f88565b5f8484015250505050565b5f611fb882611f72565b611fc28185611f7c565b9350611fd2818560208601611f86565b80840191505092915050565b5f611fe98284611fae565b91508190509291505056fea2646970667358221220cdc7912c64497fe3cbd867e772631832d32e68a5e607084f7ef5e6c0b4a8179e64736f6c63430008180033",
					"opcodes": "PUSH1 0x80 PUSH1 0x40 MSTORE CALLVALUE DUP1 ISZERO PUSH2 0xF JUMPI PUSH0 DUP1 REVERT JUMPDEST POP PUSH0 DUP1 PUSH0 PUSH2 0x100 EXP DUP2 SLOAD DUP2 PUSH1 0xFF MUL NOT AND SWAP1 DUP4 ISZERO ISZERO MUL OR SWAP1 SSTORE POP PUSH1 0x1 DUP1 DUP2 SWAP1 SSTORE POP PUSH2 0x202A DUP1 PUSH2 0x3C PUSH0 CODECOPY PUSH0 RETURN INVALID PUSH1 0x80 PUSH1 0x40 MSTORE CALLVALUE DUP1 ISZERO PUSH2 0xF JUMPI PUSH0 DUP1 REVERT JUMPDEST POP PUSH1 0x4 CALLDATASIZE LT PUSH2 0x11F JUMPI PUSH0 CALLDATALOAD PUSH1 0xE0 SHR DUP1 PUSH4 0x8456CB59 GT PUSH2 0xAB JUMPI DUP1 PUSH4 0xE30081A0 GT PUSH2 0x6F JUMPI DUP1 PUSH4 0xE30081A0 EQ PUSH2 0x2B8 JUMPI DUP1 PUSH4 0xF1887684 EQ PUSH2 0x2D4 JUMPI DUP1 PUSH4 0xF2FDE38B EQ PUSH2 0x2F2 JUMPI DUP1 PUSH4 0xFC0C546A EQ PUSH2 0x30E JUMPI DUP1 PUSH4 0xFF897DBD EQ PUSH2 0x32C JUMPI PUSH2 0x11F JUMP JUMPDEST DUP1 PUSH4 0x8456CB59 EQ PUSH2 0x1FF JUMPI DUP1 PUSH4 0x8DA5CB5B EQ PUSH2 0x209 JUMPI DUP1 PUSH4 0x97378B1A EQ PUSH2 0x227 JUMPI DUP1 PUSH4 0x9FA828AC EQ PUSH2 0x257 JUMPI DUP1 PUSH4 0xA8E62B97 EQ PUSH2 0x288 JUMPI PUSH2 0x11F JUMP JUMPDEST DUP1 PUSH4 0x5C975ABB GT PUSH2 0xF2 JUMPI DUP1 PUSH4 0x5C975ABB EQ PUSH2 0x181 JUMPI DUP1 PUSH4 0x5D80CA32 EQ PUSH2 0x19F JUMPI DUP1 PUSH4 0x6CEE0131 EQ PUSH2 0x1BD JUMPI DUP1 PUSH4 0x7B0472F0 EQ PUSH2 0x1D9 JUMPI DUP1 PUSH4 0x8129FC1C EQ PUSH2 0x1F5 JUMPI PUSH2 0x11F JUMP JUMPDEST DUP1 PUSH4 0x106B5DA1 EQ PUSH2 0x123 JUMPI DUP1 PUSH4 0x2E17DE78 EQ PUSH2 0x13F JUMPI DUP1 PUSH4 0x2E1A7D4D EQ PUSH2 0x15B JUMPI DUP1 PUSH4 0x3F4BA83A EQ PUSH2 0x177 JUMPI JUMPDEST PUSH0 DUP1 REVERT JUMPDEST PUSH2 0x13D PUSH1 0x4 DUP1 CALLDATASIZE SUB DUP2 ADD SWAP1 PUSH2 0x138 SWAP2 SWAP1 PUSH2 0x15D7 JUMP JUMPDEST PUSH2 0x348 JUMP JUMPDEST STOP JUMPDEST PUSH2 0x159 PUSH1 0x4 DUP1 CALLDATASIZE SUB DUP2 ADD SWAP1 PUSH2 0x154 SWAP2 SWAP1 PUSH2 0x15D7 JUMP JUMPDEST PUSH2 0x3E1 JUMP JUMPDEST STOP JUMPDEST PUSH2 0x175 PUSH1 0x4 DUP1 CALLDATASIZE SUB DUP2 ADD SWAP1 PUSH2 0x170 SWAP2 SWAP1 PUSH2 0x15D7 JUMP JUMPDEST PUSH2 0x5B3 JUMP JUMPDEST STOP JUMPDEST PUSH2 0x17F PUSH2 0x771 JUMP JUMPDEST STOP JUMPDEST PUSH2 0x189 PUSH2 0x80A JUMP JUMPDEST PUSH1 0x40 MLOAD PUSH2 0x196 SWAP2 SWAP1 PUSH2 0x161C JUMP JUMPDEST PUSH1 0x40 MLOAD DUP1 SWAP2 SUB SWAP1 RETURN JUMPDEST PUSH2 0x1A7 PUSH2 0x81E JUMP JUMPDEST PUSH1 0x40 MLOAD PUSH2 0x1B4 SWAP2 SWAP1 PUSH2 0x1644 JUMP JUMPDEST PUSH1 0x40 MLOAD DUP1 SWAP2 SUB SWAP1 RETURN JUMPDEST PUSH2 0x1D7 PUSH1 0x4 DUP1 CALLDATASIZE SUB DUP2 ADD SWAP1 PUSH2 0x1D2 SWAP2 SWAP1 PUSH2 0x165D JUMP JUMPDEST PUSH2 0x824 JUMP JUMPDEST STOP JUMPDEST PUSH2 0x1F3 PUSH1 0x4 DUP1 CALLDATASIZE SUB DUP2 ADD SWAP1 PUSH2 0x1EE SWAP2 SWAP1 PUSH2 0x165D JUMP JUMPDEST PUSH2 0x8CD JUMP JUMPDEST STOP JUMPDEST PUSH2 0x1FD PUSH2 0xADD JUMP JUMPDEST STOP JUMPDEST PUSH2 0x207 PUSH2 0xC94 JUMP JUMPDEST STOP JUMPDEST PUSH2 0x211 PUSH2 0xD2D JUMP JUMPDEST PUSH1 0x40 MLOAD PUSH2 0x21E SWAP2 SWAP1 PUSH2 0x16DA JUMP JUMPDEST PUSH1 0x40 MLOAD DUP1 SWAP2 SUB SWAP1 RETURN JUMPDEST PUSH2 0x241 PUSH1 0x4 DUP1 CALLDATASIZE SUB DUP2 ADD SWAP1 PUSH2 0x23C SWAP2 SWAP1 PUSH2 0x15D7 JUMP JUMPDEST PUSH2 0xD52 JUMP JUMPDEST PUSH1 0x40 MLOAD PUSH2 0x24E SWAP2 SWAP1 PUSH2 0x1644 JUMP JUMPDEST PUSH1 0x40 MLOAD DUP1 SWAP2 SUB SWAP1 RETURN JUMPDEST PUSH2 0x271 PUSH1 0x4 DUP1 CALLDATASIZE SUB DUP2 ADD SWAP1 PUSH2 0x26C SWAP2 SWAP1 PUSH2 0x171D JUMP JUMPDEST PUSH2 0xD67 JUMP JUMPDEST PUSH1 0x40 MLOAD PUSH2 0x27F SWAP3 SWAP2 SWAP1 PUSH2 0x175B JUMP JUMPDEST PUSH1 0x40 MLOAD DUP1 SWAP2 SUB SWAP1 RETURN JUMPDEST PUSH2 0x2A2 PUSH1 0x4 DUP1 CALLDATASIZE SUB DUP2 ADD SWAP1 PUSH2 0x29D SWAP2 SWAP1 PUSH2 0x1782 JUMP JUMPDEST PUSH2 0xD92 JUMP JUMPDEST PUSH1 0x40 MLOAD PUSH2 0x2AF SWAP2 SWAP1 PUSH2 0x1644 JUMP JUMPDEST PUSH1 0x40 MLOAD DUP1 SWAP2 SUB SWAP1 RETURN JUMPDEST PUSH2 0x2D2 PUSH1 0x4 DUP1 CALLDATASIZE SUB DUP2 ADD SWAP1 PUSH2 0x2CD SWAP2 SWAP1 PUSH2 0x17D2 JUMP JUMPDEST PUSH2 0xDDA JUMP JUMPDEST STOP JUMPDEST PUSH2 0x2DC PUSH2 0xEAC JUMP JUMPDEST PUSH1 0x40 MLOAD PUSH2 0x2E9 SWAP2 SWAP1 PUSH2 0x1644 JUMP JUMPDEST PUSH1 0x40 MLOAD DUP1 SWAP2 SUB SWAP1 RETURN JUMPDEST PUSH2 0x30C PUSH1 0x4 DUP1 CALLDATASIZE SUB DUP2 ADD SWAP1 PUSH2 0x307 SWAP2 SWAP1 PUSH2 0x17D2 JUMP JUMPDEST PUSH2 0xEB2 JUMP JUMPDEST STOP JUMPDEST PUSH2 0x316 PUSH2 0xF84 JUMP JUMPDEST PUSH1 0x40 MLOAD PUSH2 0x323 SWAP2 SWAP1 PUSH2 0x1858 JUMP JUMPDEST PUSH1 0x40 MLOAD DUP1 SWAP2 SUB SWAP1 RETURN JUMPDEST PUSH2 0x346 PUSH1 0x4 DUP1 CALLDATASIZE SUB DUP2 ADD SWAP1 PUSH2 0x341 SWAP2 SWAP1 PUSH2 0x15D7 JUMP JUMPDEST PUSH2 0xFA9 JUMP JUMPDEST STOP JUMPDEST PUSH1 0x4 PUSH0 SWAP1 SLOAD SWAP1 PUSH2 0x100 EXP SWAP1 DIV PUSH20 0xFFFFFFFFFFFFFFFFFFFFFFFFFFFFFFFFFFFFFFFF AND PUSH20 0xFFFFFFFFFFFFFFFFFFFFFFFFFFFFFFFFFFFFFFFF AND CALLER PUSH20 0xFFFFFFFFFFFFFFFFFFFFFFFFFFFFFFFFFFFFFFFF AND EQ PUSH2 0x3D7 JUMPI PUSH1 0x40 MLOAD PUSH32 0x8C379A000000000000000000000000000000000000000000000000000000000 DUP2 MSTORE PUSH1 0x4 ADD PUSH2 0x3CE SWAP1 PUSH2 0x18CB JUMP JUMPDEST PUSH1 0x40 MLOAD DUP1 SWAP2 SUB SWAP1 REVERT JUMPDEST DUP1 PUSH1 0x3 DUP2 SWAP1 SSTORE POP POP JUMP JUMPDEST PUSH2 0x3E9 PUSH2 0x1042 JUMP JUMPDEST PUSH0 PUSH1 0x5 PUSH0 CALLER PUSH20 0xFFFFFFFFFFFFFFFFFFFFFFFFFFFFFFFFFFFFFFFF AND PUSH20 0xFFFFFFFFFFFFFFFFFFFFFFFFFFFFFFFFFFFFFFFF AND DUP2 MSTORE PUSH1 0x20 ADD SWAP1 DUP2 MSTORE PUSH1 0x20 ADD PUSH0 KECCAK256 PUSH0 DUP4 DUP2 MSTORE PUSH1 0x20 ADD SWAP1 DUP2 MSTORE PUSH1 0x20 ADD PUSH0 KECCAK256 SWAP1 POP PUSH0 DUP2 PUSH0 ADD SLOAD SWAP1 POP PUSH0 DUP2 GT PUSH2 0x481 JUMPI PUSH1 0x40 MLOAD PUSH32 0x8C379A000000000000000000000000000000000000000000000000000000000 DUP2 MSTORE PUSH1 0x4 ADD PUSH2 0x478 SWAP1 PUSH2 0x1933 JUMP JUMPDEST PUSH1 0x40 MLOAD DUP1 SWAP2 SUB SWAP1 REVERT JUMPDEST DUP2 PUSH1 0x1 ADD SLOAD TIMESTAMP GT PUSH2 0x4C7 JUMPI PUSH1 0x40 MLOAD PUSH32 0x8C379A000000000000000000000000000000000000000000000000000000000 DUP2 MSTORE PUSH1 0x4 ADD PUSH2 0x4BE SWAP1 PUSH2 0x199B JUMP JUMPDEST PUSH1 0x40 MLOAD DUP1 SWAP2 SUB SWAP1 REVERT JUMPDEST PUSH0 PUSH1 0x6 PUSH0 DUP6 DUP2 MSTORE PUSH1 0x20 ADD SWAP1 DUP2 MSTORE PUSH1 0x20 ADD PUSH0 KECCAK256 SLOAD SWAP1 POP PUSH0 PUSH2 0x4E8 DUP4 DUP4 DUP8 PUSH2 0xD92 JUMP JUMPDEST SWAP1 POP PUSH2 0x548 CALLER PUSH2 0x501 DUP4 DUP7 PUSH2 0x1091 SWAP1 SWAP2 SWAP1 PUSH4 0xFFFFFFFF AND JUMP JUMPDEST PUSH1 0x7 PUSH0 SWAP1 SLOAD SWAP1 PUSH2 0x100 EXP SWAP1 DIV PUSH20 0xFFFFFFFFFFFFFFFFFFFFFFFFFFFFFFFFFFFFFFFF AND PUSH20 0xFFFFFFFFFFFFFFFFFFFFFFFFFFFFFFFFFFFFFFFF AND PUSH2 0x10A6 SWAP1 SWAP3 SWAP2 SWAP1 PUSH4 0xFFFFFFFF AND JUMP JUMPDEST PUSH1 0x5 PUSH0 CALLER PUSH20 0xFFFFFFFFFFFFFFFFFFFFFFFFFFFFFFFFFFFFFFFF AND PUSH20 0xFFFFFFFFFFFFFFFFFFFFFFFFFFFFFFFFFFFFFFFF AND DUP2 MSTORE PUSH1 0x20 ADD SWAP1 DUP2 MSTORE PUSH1 0x20 ADD PUSH0 KECCAK256 PUSH0 DUP7 DUP2 MSTORE PUSH1 0x20 ADD SWAP1 DUP2 MSTORE PUSH1 0x20 ADD PUSH0 KECCAK256 PUSH0 DUP1 DUP3 ADD PUSH0 SWAP1 SSTORE PUSH1 0x1 DUP3 ADD PUSH0 SWAP1 SSTORE POP POP POP POP POP POP PUSH2 0x5B0 PUSH2 0x1125 JUMP JUMPDEST POP JUMP JUMPDEST PUSH1 0x4 PUSH0 SWAP1 SLOAD SWAP1 PUSH2 0x100 EXP SWAP1 DIV PUSH20 0xFFFFFFFFFFFFFFFFFFFFFFFFFFFFFFFFFFFFFFFF AND PUSH20 0xFFFFFFFFFFFFFFFFFFFFFFFFFFFFFFFFFFFFFFFF AND CALLER PUSH20 0xFFFFFFFFFFFFFFFFFFFFFFFFFFFFFFFFFFFFFFFF AND EQ PUSH2 0x642 JUMPI PUSH1 0x40 MLOAD PUSH32 0x8C379A000000000000000000000000000000000000000000000000000000000 DUP2 MSTORE PUSH1 0x4 ADD PUSH2 0x639 SWAP1 PUSH2 0x18CB JUMP JUMPDEST PUSH1 0x40 MLOAD DUP1 SWAP2 SUB SWAP1 REVERT JUMPDEST PUSH0 PUSH1 0x7 PUSH0 SWAP1 SLOAD SWAP1 PUSH2 0x100 EXP SWAP1 DIV PUSH20 0xFFFFFFFFFFFFFFFFFFFFFFFFFFFFFFFFFFFFFFFF AND PUSH20 0xFFFFFFFFFFFFFFFFFFFFFFFFFFFFFFFFFFFFFFFF AND PUSH4 0x70A08231 ADDRESS PUSH1 0x40 MLOAD DUP3 PUSH4 0xFFFFFFFF AND PUSH1 0xE0 SHL DUP2 MSTORE PUSH1 0x4 ADD PUSH2 0x69D SWAP2 SWAP1 PUSH2 0x16DA JUMP JUMPDEST PUSH1 0x20 PUSH1 0x40 MLOAD DUP1 DUP4 SUB DUP2 DUP7 GAS STATICCALL ISZERO DUP1 ISZERO PUSH2 0x6B8 JUMPI RETURNDATASIZE PUSH0 DUP1 RETURNDATACOPY RETURNDATASIZE PUSH0 REVERT JUMPDEST POP POP POP POP PUSH1 0x40 MLOAD RETURNDATASIZE PUSH1 0x1F NOT PUSH1 0x1F DUP3 ADD AND DUP3 ADD DUP1 PUSH1 0x40 MSTORE POP DUP2 ADD SWAP1 PUSH2 0x6DC SWAP2 SWAP1 PUSH2 0x19CD JUMP JUMPDEST SWAP1 POP DUP2 DUP2 LT ISZERO PUSH2 0x721 JUMPI PUSH1 0x40 MLOAD PUSH32 0x8C379A000000000000000000000000000000000000000000000000000000000 DUP2 MSTORE PUSH1 0x4 ADD PUSH2 0x718 SWAP1 PUSH2 0x1A68 JUMP JUMPDEST PUSH1 0x40 MLOAD DUP1 SWAP2 SUB SWAP1 REVERT JUMPDEST PUSH2 0x76D CALLER DUP4 PUSH1 0x7 PUSH0 SWAP1 SLOAD SWAP1 PUSH2 0x100 EXP SWAP1 DIV PUSH20 0xFFFFFFFFFFFFFFFFFFFFFFFFFFFFFFFFFFFFFFFF AND PUSH20 0xFFFFFFFFFFFFFFFFFFFFFFFFFFFFFFFFFFFFFFFF AND PUSH2 0x10A6 SWAP1 SWAP3 SWAP2 SWAP1 PUSH4 0xFFFFFFFF AND JUMP JUMPDEST POP POP JUMP JUMPDEST PUSH1 0x4 PUSH0 SWAP1 SLOAD SWAP1 PUSH2 0x100 EXP SWAP1 DIV PUSH20 0xFFFFFFFFFFFFFFFFFFFFFFFFFFFFFFFFFFFFFFFF AND PUSH20 0xFFFFFFFFFFFFFFFFFFFFFFFFFFFFFFFFFFFFFFFF AND CALLER PUSH20 0xFFFFFFFFFFFFFFFFFFFFFFFFFFFFFFFFFFFFFFFF AND EQ PUSH2 0x800 JUMPI PUSH1 0x40 MLOAD PUSH32 0x8C379A000000000000000000000000000000000000000000000000000000000 DUP2 MSTORE PUSH1 0x4 ADD PUSH2 0x7F7 SWAP1 PUSH2 0x18CB JUMP JUMPDEST PUSH1 0x40 MLOAD DUP1 SWAP2 SUB SWAP1 REVERT JUMPDEST PUSH2 0x808 PUSH2 0x112E JUMP JUMPDEST JUMP JUMPDEST PUSH0 DUP1 PUSH0 SWAP1 SLOAD SWAP1 PUSH2 0x100 EXP SWAP1 DIV PUSH1 0xFF AND SWAP1 POP SWAP1 JUMP JUMPDEST PUSH1 0x3 SLOAD DUP2 JUMP JUMPDEST PUSH1 0x4 PUSH0 SWAP1 SLOAD SWAP1 PUSH2 0x100 EXP SWAP1 DIV PUSH20 0xFFFFFFFFFFFFFFFFFFFFFFFFFFFFFFFFFFFFFFFF AND PUSH20 0xFFFFFFFFFFFFFFFFFFFFFFFFFFFFFFFFFFFFFFFF AND CALLER PUSH20 0xFFFFFFFFFFFFFFFFFFFFFFFFFFFFFFFFFFFFFFFF AND EQ PUSH2 0x8B3 JUMPI PUSH1 0x40 MLOAD PUSH32 0x8C379A000000000000000000000000000000000000000000000000000000000 DUP2 MSTORE PUSH1 0x4 ADD PUSH2 0x8AA SWAP1 PUSH2 0x18CB JUMP JUMPDEST PUSH1 0x40 MLOAD DUP1 SWAP2 SUB SWAP1 REVERT JUMPDEST DUP1 PUSH1 0x6 PUSH0 DUP5 DUP2 MSTORE PUSH1 0x20 ADD SWAP1 DUP2 MSTORE PUSH1 0x20 ADD PUSH0 KECCAK256 DUP2 SWAP1 SSTORE POP POP POP JUMP JUMPDEST PUSH2 0x8D5 PUSH2 0x118E JUMP JUMPDEST PUSH2 0x8DD PUSH2 0x1042 JUMP JUMPDEST PUSH1 0x2 SLOAD DUP3 LT ISZERO PUSH2 0x922 JUMPI PUSH1 0x40 MLOAD PUSH32 0x8C379A000000000000000000000000000000000000000000000000000000000 DUP2 MSTORE PUSH1 0x4 ADD PUSH2 0x919 SWAP1 PUSH2 0x1AD0 JUMP JUMPDEST PUSH1 0x40 MLOAD DUP1 SWAP2 SUB SWAP1 REVERT JUMPDEST PUSH1 0x3 SLOAD DUP3 GT ISZERO PUSH2 0x967 JUMPI PUSH1 0x40 MLOAD PUSH32 0x8C379A000000000000000000000000000000000000000000000000000000000 DUP2 MSTORE PUSH1 0x4 ADD PUSH2 0x95E SWAP1 PUSH2 0x1B38 JUMP JUMPDEST PUSH1 0x40 MLOAD DUP1 SWAP2 SUB SWAP1 REVERT JUMPDEST PUSH0 PUSH1 0x6 PUSH0 DUP4 DUP2 MSTORE PUSH1 0x20 ADD SWAP1 DUP2 MSTORE PUSH1 0x20 ADD PUSH0 KECCAK256 SLOAD SWAP1 POP PUSH0 DUP2 GT PUSH2 0x9BE JUMPI PUSH1 0x40 MLOAD PUSH32 0x8C379A000000000000000000000000000000000000000000000000000000000 DUP2 MSTORE PUSH1 0x4 ADD PUSH2 0x9B5 SWAP1 PUSH2 0x1BA0 JUMP JUMPDEST PUSH1 0x40 MLOAD DUP1 SWAP2 SUB SWAP1 REVERT JUMPDEST PUSH0 PUSH1 0x5 PUSH0 CALLER PUSH20 0xFFFFFFFFFFFFFFFFFFFFFFFFFFFFFFFFFFFFFFFF AND PUSH20 0xFFFFFFFFFFFFFFFFFFFFFFFFFFFFFFFFFFFFFFFF AND DUP2 MSTORE PUSH1 0x20 ADD SWAP1 DUP2 MSTORE PUSH1 0x20 ADD PUSH0 KECCAK256 PUSH0 DUP5 DUP2 MSTORE PUSH1 0x20 ADD SWAP1 DUP2 MSTORE PUSH1 0x20 ADD PUSH0 KECCAK256 SWAP1 POP PUSH0 DUP2 PUSH0 ADD SLOAD EQ PUSH2 0xA52 JUMPI PUSH1 0x40 MLOAD PUSH32 0x8C379A000000000000000000000000000000000000000000000000000000000 DUP2 MSTORE PUSH1 0x4 ADD PUSH2 0xA49 SWAP1 PUSH2 0x1C08 JUMP JUMPDEST PUSH1 0x40 MLOAD DUP1 SWAP2 SUB SWAP1 REVERT JUMPDEST PUSH2 0xAA0 CALLER ADDRESS DUP7 PUSH1 0x7 PUSH0 SWAP1 SLOAD SWAP1 PUSH2 0x100 EXP SWAP1 DIV PUSH20 0xFFFFFFFFFFFFFFFFFFFFFFFFFFFFFFFFFFFFFFFF AND PUSH20 0xFFFFFFFFFFFFFFFFFFFFFFFFFFFFFFFFFFFFFFFF AND PUSH2 0x11D8 SWAP1 SWAP4 SWAP3 SWAP2 SWAP1 PUSH4 0xFFFFFFFF AND JUMP JUMPDEST DUP4 DUP2 PUSH0 ADD DUP2 SWAP1 SSTORE POP PUSH2 0xAC7 PUSH1 0x3C DUP5 PUSH2 0xAB8 SWAP2 SWAP1 PUSH2 0x1C53 JUMP JUMPDEST TIMESTAMP PUSH2 0x1091 SWAP1 SWAP2 SWAP1 PUSH4 0xFFFFFFFF AND JUMP JUMPDEST DUP2 PUSH1 0x1 ADD DUP2 SWAP1 SSTORE POP POP POP PUSH2 0xAD9 PUSH2 0x1125 JUMP JUMPDEST POP POP JUMP JUMPDEST PUSH0 PUSH2 0xAE6 PUSH2 0x125A JUMP JUMPDEST SWAP1 POP PUSH0 DUP2 PUSH0 ADD PUSH1 0x8 SWAP1 SLOAD SWAP1 PUSH2 0x100 EXP SWAP1 DIV PUSH1 0xFF AND ISZERO SWAP1 POP PUSH0 DUP3 PUSH0 ADD PUSH0 SWAP1 SLOAD SWAP1 PUSH2 0x100 EXP SWAP1 DIV PUSH8 0xFFFFFFFFFFFFFFFF AND SWAP1 POP PUSH0 DUP1 DUP3 PUSH8 0xFFFFFFFFFFFFFFFF AND EQ DUP1 ISZERO PUSH2 0xB2E JUMPI POP DUP3 JUMPDEST SWAP1 POP PUSH0 PUSH1 0x1 DUP4 PUSH8 0xFFFFFFFFFFFFFFFF AND EQ DUP1 ISZERO PUSH2 0xB61 JUMPI POP PUSH0 ADDRESS PUSH20 0xFFFFFFFFFFFFFFFFFFFFFFFFFFFFFFFFFFFFFFFF AND EXTCODESIZE EQ JUMPDEST SWAP1 POP DUP2 ISZERO DUP1 ISZERO PUSH2 0xB6F JUMPI POP DUP1 ISZERO JUMPDEST ISZERO PUSH2 0xBA6 JUMPI PUSH1 0x40 MLOAD PUSH32 0xF92EE8A900000000000000000000000000000000000000000000000000000000 DUP2 MSTORE PUSH1 0x4 ADD PUSH1 0x40 MLOAD DUP1 SWAP2 SUB SWAP1 REVERT JUMPDEST PUSH1 0x1 DUP6 PUSH0 ADD PUSH0 PUSH2 0x100 EXP DUP2 SLOAD DUP2 PUSH8 0xFFFFFFFFFFFFFFFF MUL NOT AND SWAP1 DUP4 PUSH8 0xFFFFFFFFFFFFFFFF AND MUL OR SWAP1 SSTORE POP DUP4 ISZERO PUSH2 0xBF3 JUMPI PUSH1 0x1 DUP6 PUSH0 ADD PUSH1 0x8 PUSH2 0x100 EXP DUP2 SLOAD DUP2 PUSH1 0xFF MUL NOT AND SWAP1 DUP4 ISZERO ISZERO MUL OR SWAP1 SSTORE POP JUMPDEST CALLER PUSH1 0x4 PUSH0 PUSH2 0x100 EXP DUP2 SLOAD DUP2 PUSH20 0xFFFFFFFFFFFFFFFFFFFFFFFFFFFFFFFFFFFFFFFF MUL NOT AND SWAP1 DUP4 PUSH20 0xFFFFFFFFFFFFFFFFFFFFFFFFFFFFFFFFFFFFFFFF AND MUL OR SWAP1 SSTORE POP DUP4 ISZERO PUSH2 0xC8D JUMPI PUSH0 DUP6 PUSH0 ADD PUSH1 0x8 PUSH2 0x100 EXP DUP2 SLOAD DUP2 PUSH1 0xFF MUL NOT AND SWAP1 DUP4 ISZERO ISZERO MUL OR SWAP1 SSTORE POP PUSH32 0xC7F505B2F371AE2175EE4913F4499E1F2633A7B5936321EED1CDAEB6115181D2 PUSH1 0x1 PUSH1 0x40 MLOAD PUSH2 0xC84 SWAP2 SWAP1 PUSH2 0x1CE0 JUMP JUMPDEST PUSH1 0x40 MLOAD DUP1 SWAP2 SUB SWAP1 LOG1 JUMPDEST POP POP POP POP POP JUMP JUMPDEST PUSH1 0x4 PUSH0 SWAP1 SLOAD SWAP1 PUSH2 0x100 EXP SWAP1 DIV PUSH20 0xFFFFFFFFFFFFFFFFFFFFFFFFFFFFFFFFFFFFFFFF AND PUSH20 0xFFFFFFFFFFFFFFFFFFFFFFFFFFFFFFFFFFFFFFFF AND CALLER PUSH20 0xFFFFFFFFFFFFFFFFFFFFFFFFFFFFFFFFFFFFFFFF AND EQ PUSH2 0xD23 JUMPI PUSH1 0x40 MLOAD PUSH32 0x8C379A000000000000000000000000000000000000000000000000000000000 DUP2 MSTORE PUSH1 0x4 ADD PUSH2 0xD1A SWAP1 PUSH2 0x18CB JUMP JUMPDEST PUSH1 0x40 MLOAD DUP1 SWAP2 SUB SWAP1 REVERT JUMPDEST PUSH2 0xD2B PUSH2 0x1281 JUMP JUMPDEST JUMP JUMPDEST PUSH1 0x4 PUSH0 SWAP1 SLOAD SWAP1 PUSH2 0x100 EXP SWAP1 DIV PUSH20 0xFFFFFFFFFFFFFFFFFFFFFFFFFFFFFFFFFFFFFFFF AND DUP2 JUMP JUMPDEST PUSH1 0x6 PUSH1 0x20 MSTORE DUP1 PUSH0 MSTORE PUSH1 0x40 PUSH0 KECCAK256 PUSH0 SWAP2 POP SWAP1 POP SLOAD DUP2 JUMP JUMPDEST PUSH1 0x5 PUSH1 0x20 MSTORE DUP2 PUSH0 MSTORE PUSH1 0x40 PUSH0 KECCAK256 PUSH1 0x20 MSTORE DUP1 PUSH0 MSTORE PUSH1 0x40 PUSH0 KECCAK256 PUSH0 SWAP2 POP SWAP2 POP POP DUP1 PUSH0 ADD SLOAD SWAP1 DUP1 PUSH1 0x1 ADD SLOAD SWAP1 POP DUP3 JUMP JUMPDEST PUSH0 DUP1 PUSH2 0xDCD PUSH2 0x2EE0 PUSH2 0xDBF DUP6 PUSH2 0xDB1 DUP9 DUP11 PUSH2 0x12E2 SWAP1 SWAP2 SWAP1 PUSH4 0xFFFFFFFF AND JUMP JUMPDEST PUSH2 0x12E2 SWAP1 SWAP2 SWAP1 PUSH4 0xFFFFFFFF AND JUMP JUMPDEST PUSH2 0x12F7 SWAP1 SWAP2 SWAP1 PUSH4 0xFFFFFFFF AND JUMP JUMPDEST SWAP1 POP DUP1 SWAP2 POP POP SWAP4 SWAP3 POP POP POP JUMP JUMPDEST PUSH1 0x4 PUSH0 SWAP1 SLOAD SWAP1 PUSH2 0x100 EXP SWAP1 DIV PUSH20 0xFFFFFFFFFFFFFFFFFFFFFFFFFFFFFFFFFFFFFFFF AND PUSH20 0xFFFFFFFFFFFFFFFFFFFFFFFFFFFFFFFFFFFFFFFF AND CALLER PUSH20 0xFFFFFFFFFFFFFFFFFFFFFFFFFFFFFFFFFFFFFFFF AND EQ PUSH2 0xE69 JUMPI PUSH1 0x40 MLOAD PUSH32 0x8C379A000000000000000000000000000000000000000000000000000000000 DUP2 MSTORE PUSH1 0x4 ADD PUSH2 0xE60 SWAP1 PUSH2 0x18CB JUMP JUMPDEST PUSH1 0x40 MLOAD DUP1 SWAP2 SUB SWAP1 REVERT JUMPDEST DUP1 PUSH1 0x7 PUSH0 PUSH2 0x100 EXP DUP2 SLOAD DUP2 PUSH20 0xFFFFFFFFFFFFFFFFFFFFFFFFFFFFFFFFFFFFFFFF MUL NOT AND SWAP1 DUP4 PUSH20 0xFFFFFFFFFFFFFFFFFFFFFFFFFFFFFFFFFFFFFFFF AND MUL OR SWAP1 SSTORE POP POP JUMP JUMPDEST PUSH1 0x2 SLOAD DUP2 JUMP JUMPDEST PUSH1 0x4 PUSH0 SWAP1 SLOAD SWAP1 PUSH2 0x100 EXP SWAP1 DIV PUSH20 0xFFFFFFFFFFFFFFFFFFFFFFFFFFFFFFFFFFFFFFFF AND PUSH20 0xFFFFFFFFFFFFFFFFFFFFFFFFFFFFFFFFFFFFFFFF AND CALLER PUSH20 0xFFFFFFFFFFFFFFFFFFFFFFFFFFFFFFFFFFFFFFFF AND EQ PUSH2 0xF41 JUMPI PUSH1 0x40 MLOAD PUSH32 0x8C379A000000000000000000000000000000000000000000000000000000000 DUP2 MSTORE PUSH1 0x4 ADD PUSH2 0xF38 SWAP1 PUSH2 0x18CB JUMP JUMPDEST PUSH1 0x40 MLOAD DUP1 SWAP2 SUB SWAP1 REVERT JUMPDEST DUP1 PUSH1 0x4 PUSH0 PUSH2 0x100 EXP DUP2 SLOAD DUP2 PUSH20 0xFFFFFFFFFFFFFFFFFFFFFFFFFFFFFFFFFFFFFFFF MUL NOT AND SWAP1 DUP4 PUSH20 0xFFFFFFFFFFFFFFFFFFFFFFFFFFFFFFFFFFFFFFFF AND MUL OR SWAP1 SSTORE POP POP JUMP JUMPDEST PUSH1 0x7 PUSH0 SWAP1 SLOAD SWAP1 PUSH2 0x100 EXP SWAP1 DIV PUSH20 0xFFFFFFFFFFFFFFFFFFFFFFFFFFFFFFFFFFFFFFFF AND DUP2 JUMP JUMPDEST PUSH1 0x4 PUSH0 SWAP1 SLOAD SWAP1 PUSH2 0x100 EXP SWAP1 DIV PUSH20 0xFFFFFFFFFFFFFFFFFFFFFFFFFFFFFFFFFFFFFFFF AND PUSH20 0xFFFFFFFFFFFFFFFFFFFFFFFFFFFFFFFFFFFFFFFF AND CALLER PUSH20 0xFFFFFFFFFFFFFFFFFFFFFFFFFFFFFFFFFFFFFFFF AND EQ PUSH2 0x1038 JUMPI PUSH1 0x40 MLOAD PUSH32 0x8C379A000000000000000000000000000000000000000000000000000000000 DUP2 MSTORE PUSH1 0x4 ADD PUSH2 0x102F SWAP1 PUSH2 0x18CB JUMP JUMPDEST PUSH1 0x40 MLOAD DUP1 SWAP2 SUB SWAP1 REVERT JUMPDEST DUP1 PUSH1 0x2 DUP2 SWAP1 SSTORE POP POP JUMP JUMPDEST PUSH1 0x2 PUSH1 0x1 SLOAD SUB PUSH2 0x1087 JUMPI PUSH1 0x40 MLOAD PUSH32 0x8C379A000000000000000000000000000000000000000000000000000000000 DUP2 MSTORE PUSH1 0x4 ADD PUSH2 0x107E SWAP1 PUSH2 0x1D43 JUMP JUMPDEST PUSH1 0x40 MLOAD DUP1 SWAP2 SUB SWAP1 REVERT JUMPDEST PUSH1 0x2 PUSH1 0x1 DUP2 SWAP1 SSTORE POP JUMP JUMPDEST PUSH0 DUP2 DUP4 PUSH2 0x109E SWAP2 SWAP1 PUSH2 0x1D61 JUMP JUMPDEST SWAP1 POP SWAP3 SWAP2 POP POP JUMP JUMPDEST PUSH2 0x1120 DUP4 DUP5 PUSH20 0xFFFFFFFFFFFFFFFFFFFFFFFFFFFFFFFFFFFFFFFF AND PUSH4 0xA9059CBB DUP6 DUP6 PUSH1 0x40 MLOAD PUSH1 0x24 ADD PUSH2 0x10D9 SWAP3 SWAP2 SWAP1 PUSH2 0x1D94 JUMP JUMPDEST PUSH1 0x40 MLOAD PUSH1 0x20 DUP2 DUP4 SUB SUB DUP2 MSTORE SWAP1 PUSH1 0x40 MSTORE SWAP2 POP PUSH1 0xE0 SHL PUSH1 0x20 DUP3 ADD DUP1 MLOAD PUSH28 0xFFFFFFFFFFFFFFFFFFFFFFFFFFFFFFFFFFFFFFFFFFFFFFFFFFFFFFFF DUP4 DUP2 DUP4 AND OR DUP4 MSTORE POP POP POP POP PUSH2 0x130C JUMP JUMPDEST POP POP POP JUMP JUMPDEST PUSH1 0x1 DUP1 DUP2 SWAP1 SSTORE POP JUMP JUMPDEST PUSH2 0x1136 PUSH2 0x13A1 JUMP JUMPDEST PUSH0 DUP1 PUSH0 PUSH2 0x100 EXP DUP2 SLOAD DUP2 PUSH1 0xFF MUL NOT AND SWAP1 DUP4 ISZERO ISZERO MUL OR SWAP1 SSTORE POP PUSH32 0x5DB9EE0A495BF2E6FF9C91A7834C1BA4FDD244A5E8AA4E537BD38AEAE4B073AA PUSH2 0x1177 PUSH2 0x13EA JUMP JUMPDEST PUSH1 0x40 MLOAD PUSH2 0x1184 SWAP2 SWAP1 PUSH2 0x16DA JUMP JUMPDEST PUSH1 0x40 MLOAD DUP1 SWAP2 SUB SWAP1 LOG1 JUMP JUMPDEST PUSH2 0x1196 PUSH2 0x80A JUMP JUMPDEST ISZERO PUSH2 0x11D6 JUMPI PUSH1 0x40 MLOAD PUSH32 0x8C379A000000000000000000000000000000000000000000000000000000000 DUP2 MSTORE PUSH1 0x4 ADD PUSH2 0x11CD SWAP1 PUSH2 0x1E05 JUMP JUMPDEST PUSH1 0x40 MLOAD DUP1 SWAP2 SUB SWAP1 REVERT JUMPDEST JUMP JUMPDEST PUSH2 0x1254 DUP5 DUP6 PUSH20 0xFFFFFFFFFFFFFFFFFFFFFFFFFFFFFFFFFFFFFFFF AND PUSH4 0x23B872DD DUP7 DUP7 DUP7 PUSH1 0x40 MLOAD PUSH1 0x24 ADD PUSH2 0x120D SWAP4 SWAP3 SWAP2 SWAP1 PUSH2 0x1E23 JUMP JUMPDEST PUSH1 0x40 MLOAD PUSH1 0x20 DUP2 DUP4 SUB SUB DUP2 MSTORE SWAP1 PUSH1 0x40 MSTORE SWAP2 POP PUSH1 0xE0 SHL PUSH1 0x20 DUP3 ADD DUP1 MLOAD PUSH28 0xFFFFFFFFFFFFFFFFFFFFFFFFFFFFFFFFFFFFFFFFFFFFFFFFFFFFFFFF DUP4 DUP2 DUP4 AND OR DUP4 MSTORE POP POP POP POP PUSH2 0x130C JUMP JUMPDEST POP POP POP POP JUMP JUMPDEST PUSH0 PUSH32 0xF0C57E16840DF040F15088DC2F81FE391C3923BEC73E23A9662EFC9C229C6A00 SWAP1 POP SWAP1 JUMP JUMPDEST PUSH2 0x1289 PUSH2 0x118E JUMP JUMPDEST PUSH1 0x1 PUSH0 DUP1 PUSH2 0x100 EXP DUP2 SLOAD DUP2 PUSH1 0xFF MUL NOT AND SWAP1 DUP4 ISZERO ISZERO MUL OR SWAP1 SSTORE POP PUSH32 0x62E78CEA01BEE320CD4E420270B5EA74000D11B0C9F74754EBDBFC544B05A258 PUSH2 0x12CB PUSH2 0x13EA JUMP JUMPDEST PUSH1 0x40 MLOAD PUSH2 0x12D8 SWAP2 SWAP1 PUSH2 0x16DA JUMP JUMPDEST PUSH1 0x40 MLOAD DUP1 SWAP2 SUB SWAP1 LOG1 JUMP JUMPDEST PUSH0 DUP2 DUP4 PUSH2 0x12EF SWAP2 SWAP1 PUSH2 0x1C53 JUMP JUMPDEST SWAP1 POP SWAP3 SWAP2 POP POP JUMP JUMPDEST PUSH0 DUP2 DUP4 PUSH2 0x1304 SWAP2 SWAP1 PUSH2 0x1E85 JUMP JUMPDEST SWAP1 POP SWAP3 SWAP2 POP POP JUMP JUMPDEST PUSH0 PUSH2 0x1336 DUP3 DUP5 PUSH20 0xFFFFFFFFFFFFFFFFFFFFFFFFFFFFFFFFFFFFFFFF AND PUSH2 0x13F1 SWAP1 SWAP2 SWAP1 PUSH4 0xFFFFFFFF AND JUMP JUMPDEST SWAP1 POP PUSH0 DUP2 MLOAD EQ ISZERO DUP1 ISZERO PUSH2 0x135A JUMPI POP DUP1 DUP1 PUSH1 0x20 ADD SWAP1 MLOAD DUP2 ADD SWAP1 PUSH2 0x1358 SWAP2 SWAP1 PUSH2 0x1EDF JUMP JUMPDEST ISZERO JUMPDEST ISZERO PUSH2 0x139C JUMPI DUP3 PUSH1 0x40 MLOAD PUSH32 0x5274AFE700000000000000000000000000000000000000000000000000000000 DUP2 MSTORE PUSH1 0x4 ADD PUSH2 0x1393 SWAP2 SWAP1 PUSH2 0x16DA JUMP JUMPDEST PUSH1 0x40 MLOAD DUP1 SWAP2 SUB SWAP1 REVERT JUMPDEST POP POP POP JUMP JUMPDEST PUSH2 0x13A9 PUSH2 0x80A JUMP JUMPDEST PUSH2 0x13E8 JUMPI PUSH1 0x40 MLOAD PUSH32 0x8C379A000000000000000000000000000000000000000000000000000000000 DUP2 MSTORE PUSH1 0x4 ADD PUSH2 0x13DF SWAP1 PUSH2 0x1F54 JUMP JUMPDEST PUSH1 0x40 MLOAD DUP1 SWAP2 SUB SWAP1 REVERT JUMPDEST JUMP JUMPDEST PUSH0 CALLER SWAP1 POP SWAP1 JUMP JUMPDEST PUSH1 0x60 PUSH2 0x13FE DUP4 DUP4 PUSH0 PUSH2 0x1406 JUMP JUMPDEST SWAP1 POP SWAP3 SWAP2 POP POP JUMP JUMPDEST PUSH1 0x60 DUP2 SELFBALANCE LT ISZERO PUSH2 0x144D JUMPI ADDRESS PUSH1 0x40 MLOAD PUSH32 0xCD78605900000000000000000000000000000000000000000000000000000000 DUP2 MSTORE PUSH1 0x4 ADD PUSH2 0x1444 SWAP2 SWAP1 PUSH2 0x16DA JUMP JUMPDEST PUSH1 0x40 MLOAD DUP1 SWAP2 SUB SWAP1 REVERT JUMPDEST PUSH0 DUP1 DUP6 PUSH20 0xFFFFFFFFFFFFFFFFFFFFFFFFFFFFFFFFFFFFFFFF AND DUP5 DUP7 PUSH1 0x40 MLOAD PUSH2 0x1475 SWAP2 SWAP1 PUSH2 0x1FDE JUMP JUMPDEST PUSH0 PUSH1 0x40 MLOAD DUP1 DUP4 SUB DUP2 DUP6 DUP8 GAS CALL SWAP3 POP POP POP RETURNDATASIZE DUP1 PUSH0 DUP2 EQ PUSH2 0x14AF JUMPI PUSH1 0x40 MLOAD SWAP2 POP PUSH1 0x1F NOT PUSH1 0x3F RETURNDATASIZE ADD AND DUP3 ADD PUSH1 0x40 MSTORE RETURNDATASIZE DUP3 MSTORE RETURNDATASIZE PUSH0 PUSH1 0x20 DUP5 ADD RETURNDATACOPY PUSH2 0x14B4 JUMP JUMPDEST PUSH1 0x60 SWAP2 POP JUMPDEST POP SWAP2 POP SWAP2 POP PUSH2 0x14C4 DUP7 DUP4 DUP4 PUSH2 0x14CF JUMP JUMPDEST SWAP3 POP POP POP SWAP4 SWAP3 POP POP POP JUMP JUMPDEST PUSH1 0x60 DUP3 PUSH2 0x14E4 JUMPI PUSH2 0x14DF DUP3 PUSH2 0x155C JUMP JUMPDEST PUSH2 0x1554 JUMP JUMPDEST PUSH0 DUP3 MLOAD EQ DUP1 ISZERO PUSH2 0x150A JUMPI POP PUSH0 DUP5 PUSH20 0xFFFFFFFFFFFFFFFFFFFFFFFFFFFFFFFFFFFFFFFF AND EXTCODESIZE EQ JUMPDEST ISZERO PUSH2 0x154C JUMPI DUP4 PUSH1 0x40 MLOAD PUSH32 0x9996B31500000000000000000000000000000000000000000000000000000000 DUP2 MSTORE PUSH1 0x4 ADD PUSH2 0x1543 SWAP2 SWAP1 PUSH2 0x16DA JUMP JUMPDEST PUSH1 0x40 MLOAD DUP1 SWAP2 SUB SWAP1 REVERT JUMPDEST DUP2 SWAP1 POP PUSH2 0x1555 JUMP JUMPDEST JUMPDEST SWAP4 SWAP3 POP POP POP JUMP JUMPDEST PUSH0 DUP2 MLOAD GT ISZERO PUSH2 0x156E JUMPI DUP1 MLOAD DUP1 DUP3 PUSH1 0x20 ADD REVERT JUMPDEST PUSH1 0x40 MLOAD PUSH32 0x1425EA4200000000000000000000000000000000000000000000000000000000 DUP2 MSTORE PUSH1 0x4 ADD PUSH1 0x40 MLOAD DUP1 SWAP2 SUB SWAP1 REVERT JUMPDEST PUSH0 DUP1 REVERT JUMPDEST PUSH0 DUP2 SWAP1 POP SWAP2 SWAP1 POP JUMP JUMPDEST PUSH2 0x15B6 DUP2 PUSH2 0x15A4 JUMP JUMPDEST DUP2 EQ PUSH2 0x15C0 JUMPI PUSH0 DUP1 REVERT JUMPDEST POP JUMP JUMPDEST PUSH0 DUP2 CALLDATALOAD SWAP1 POP PUSH2 0x15D1 DUP2 PUSH2 0x15AD JUMP JUMPDEST SWAP3 SWAP2 POP POP JUMP JUMPDEST PUSH0 PUSH1 0x20 DUP3 DUP5 SUB SLT ISZERO PUSH2 0x15EC JUMPI PUSH2 0x15EB PUSH2 0x15A0 JUMP JUMPDEST JUMPDEST PUSH0 PUSH2 0x15F9 DUP5 DUP3 DUP6 ADD PUSH2 0x15C3 JUMP JUMPDEST SWAP2 POP POP SWAP3 SWAP2 POP POP JUMP JUMPDEST PUSH0 DUP2 ISZERO ISZERO SWAP1 POP SWAP2 SWAP1 POP JUMP JUMPDEST PUSH2 0x1616 DUP2 PUSH2 0x1602 JUMP JUMPDEST DUP3 MSTORE POP POP JUMP JUMPDEST PUSH0 PUSH1 0x20 DUP3 ADD SWAP1 POP PUSH2 0x162F PUSH0 DUP4 ADD DUP5 PUSH2 0x160D JUMP JUMPDEST SWAP3 SWAP2 POP POP JUMP JUMPDEST PUSH2 0x163E DUP2 PUSH2 0x15A4 JUMP JUMPDEST DUP3 MSTORE POP POP JUMP JUMPDEST PUSH0 PUSH1 0x20 DUP3 ADD SWAP1 POP PUSH2 0x1657 PUSH0 DUP4 ADD DUP5 PUSH2 0x1635 JUMP JUMPDEST SWAP3 SWAP2 POP POP JUMP JUMPDEST PUSH0 DUP1 PUSH1 0x40 DUP4 DUP6 SUB SLT ISZERO PUSH2 0x1673 JUMPI PUSH2 0x1672 PUSH2 0x15A0 JUMP JUMPDEST JUMPDEST PUSH0 PUSH2 0x1680 DUP6 DUP3 DUP7 ADD PUSH2 0x15C3 JUMP JUMPDEST SWAP3 POP POP PUSH1 0x20 PUSH2 0x1691 DUP6 DUP3 DUP7 ADD PUSH2 0x15C3 JUMP JUMPDEST SWAP2 POP POP SWAP3 POP SWAP3 SWAP1 POP JUMP JUMPDEST PUSH0 PUSH20 0xFFFFFFFFFFFFFFFFFFFFFFFFFFFFFFFFFFFFFFFF DUP3 AND SWAP1 POP SWAP2 SWAP1 POP JUMP JUMPDEST PUSH0 PUSH2 0x16C4 DUP3 PUSH2 0x169B JUMP JUMPDEST SWAP1 POP SWAP2 SWAP1 POP JUMP JUMPDEST PUSH2 0x16D4 DUP2 PUSH2 0x16BA JUMP JUMPDEST DUP3 MSTORE POP POP JUMP JUMPDEST PUSH0 PUSH1 0x20 DUP3 ADD SWAP1 POP PUSH2 0x16ED PUSH0 DUP4 ADD DUP5 PUSH2 0x16CB JUMP JUMPDEST SWAP3 SWAP2 POP POP JUMP JUMPDEST PUSH2 0x16FC DUP2 PUSH2 0x16BA JUMP JUMPDEST DUP2 EQ PUSH2 0x1706 JUMPI PUSH0 DUP1 REVERT JUMPDEST POP JUMP JUMPDEST PUSH0 DUP2 CALLDATALOAD SWAP1 POP PUSH2 0x1717 DUP2 PUSH2 0x16F3 JUMP JUMPDEST SWAP3 SWAP2 POP POP JUMP JUMPDEST PUSH0 DUP1 PUSH1 0x40 DUP4 DUP6 SUB SLT ISZERO PUSH2 0x1733 JUMPI PUSH2 0x1732 PUSH2 0x15A0 JUMP JUMPDEST JUMPDEST PUSH0 PUSH2 0x1740 DUP6 DUP3 DUP7 ADD PUSH2 0x1709 JUMP JUMPDEST SWAP3 POP POP PUSH1 0x20 PUSH2 0x1751 DUP6 DUP3 DUP7 ADD PUSH2 0x15C3 JUMP JUMPDEST SWAP2 POP POP SWAP3 POP SWAP3 SWAP1 POP JUMP JUMPDEST PUSH0 PUSH1 0x40 DUP3 ADD SWAP1 POP PUSH2 0x176E PUSH0 DUP4 ADD DUP6 PUSH2 0x1635 JUMP JUMPDEST PUSH2 0x177B PUSH1 0x20 DUP4 ADD DUP5 PUSH2 0x1635 JUMP JUMPDEST SWAP4 SWAP3 POP POP POP JUMP JUMPDEST PUSH0 DUP1 PUSH0 PUSH1 0x60 DUP5 DUP7 SUB SLT ISZERO PUSH2 0x1799 JUMPI PUSH2 0x1798 PUSH2 0x15A0 JUMP JUMPDEST JUMPDEST PUSH0 PUSH2 0x17A6 DUP7 DUP3 DUP8 ADD PUSH2 0x15C3 JUMP JUMPDEST SWAP4 POP POP PUSH1 0x20 PUSH2 0x17B7 DUP7 DUP3 DUP8 ADD PUSH2 0x15C3 JUMP JUMPDEST SWAP3 POP POP PUSH1 0x40 PUSH2 0x17C8 DUP7 DUP3 DUP8 ADD PUSH2 0x15C3 JUMP JUMPDEST SWAP2 POP POP SWAP3 POP SWAP3 POP SWAP3 JUMP JUMPDEST PUSH0 PUSH1 0x20 DUP3 DUP5 SUB SLT ISZERO PUSH2 0x17E7 JUMPI PUSH2 0x17E6 PUSH2 0x15A0 JUMP JUMPDEST JUMPDEST PUSH0 PUSH2 0x17F4 DUP5 DUP3 DUP6 ADD PUSH2 0x1709 JUMP JUMPDEST SWAP2 POP POP SWAP3 SWAP2 POP POP JUMP JUMPDEST PUSH0 DUP2 SWAP1 POP SWAP2 SWAP1 POP JUMP JUMPDEST PUSH0 PUSH2 0x1820 PUSH2 0x181B PUSH2 0x1816 DUP5 PUSH2 0x169B JUMP JUMPDEST PUSH2 0x17FD JUMP JUMPDEST PUSH2 0x169B JUMP JUMPDEST SWAP1 POP SWAP2 SWAP1 POP JUMP JUMPDEST PUSH0 PUSH2 0x1831 DUP3 PUSH2 0x1806 JUMP JUMPDEST SWAP1 POP SWAP2 SWAP1 POP JUMP JUMPDEST PUSH0 PUSH2 0x1842 DUP3 PUSH2 0x1827 JUMP JUMPDEST SWAP1 POP SWAP2 SWAP1 POP JUMP JUMPDEST PUSH2 0x1852 DUP2 PUSH2 0x1838 JUMP JUMPDEST DUP3 MSTORE POP POP JUMP JUMPDEST PUSH0 PUSH1 0x20 DUP3 ADD SWAP1 POP PUSH2 0x186B PUSH0 DUP4 ADD DUP5 PUSH2 0x1849 JUMP JUMPDEST SWAP3 SWAP2 POP POP JUMP JUMPDEST PUSH0 DUP3 DUP3 MSTORE PUSH1 0x20 DUP3 ADD SWAP1 POP SWAP3 SWAP2 POP POP JUMP JUMPDEST PUSH32 0x6F6E6C792061646D696E732061726520616C6C6F776564000000000000000000 PUSH0 DUP3 ADD MSTORE POP JUMP JUMPDEST PUSH0 PUSH2 0x18B5 PUSH1 0x17 DUP4 PUSH2 0x1871 JUMP JUMPDEST SWAP2 POP PUSH2 0x18C0 DUP3 PUSH2 0x1881 JUMP JUMPDEST PUSH1 0x20 DUP3 ADD SWAP1 POP SWAP2 SWAP1 POP JUMP JUMPDEST PUSH0 PUSH1 0x20 DUP3 ADD SWAP1 POP DUP2 DUP2 SUB PUSH0 DUP4 ADD MSTORE PUSH2 0x18E2 DUP2 PUSH2 0x18A9 JUMP JUMPDEST SWAP1 POP SWAP2 SWAP1 POP JUMP JUMPDEST PUSH32 0x6E6F20756E7374616B65206461746120666F756E640000000000000000000000 PUSH0 DUP3 ADD MSTORE POP JUMP JUMPDEST PUSH0 PUSH2 0x191D PUSH1 0x15 DUP4 PUSH2 0x1871 JUMP JUMPDEST SWAP2 POP PUSH2 0x1928 DUP3 PUSH2 0x18E9 JUMP JUMPDEST PUSH1 0x20 DUP3 ADD SWAP1 POP SWAP2 SWAP1 POP JUMP JUMPDEST PUSH0 PUSH1 0x20 DUP3 ADD SWAP1 POP DUP2 DUP2 SUB PUSH0 DUP4 ADD MSTORE PUSH2 0x194A DUP2 PUSH2 0x1911 JUMP JUMPDEST SWAP1 POP SWAP2 SWAP1 POP JUMP JUMPDEST PUSH32 0x706572696F64206973206E6F7420657870697265640000000000000000000000 PUSH0 DUP3 ADD MSTORE POP JUMP JUMPDEST PUSH0 PUSH2 0x1985 PUSH1 0x15 DUP4 PUSH2 0x1871 JUMP JUMPDEST SWAP2 POP PUSH2 0x1990 DUP3 PUSH2 0x1951 JUMP JUMPDEST PUSH1 0x20 DUP3 ADD SWAP1 POP SWAP2 SWAP1 POP JUMP JUMPDEST PUSH0 PUSH1 0x20 DUP3 ADD SWAP1 POP DUP2 DUP2 SUB PUSH0 DUP4 ADD MSTORE PUSH2 0x19B2 DUP2 PUSH2 0x1979 JUMP JUMPDEST SWAP1 POP SWAP2 SWAP1 POP JUMP JUMPDEST PUSH0 DUP2 MLOAD SWAP1 POP PUSH2 0x19C7 DUP2 PUSH2 0x15AD JUMP JUMPDEST SWAP3 SWAP2 POP POP JUMP JUMPDEST PUSH0 PUSH1 0x20 DUP3 DUP5 SUB SLT ISZERO PUSH2 0x19E2 JUMPI PUSH2 0x19E1 PUSH2 0x15A0 JUMP JUMPDEST JUMPDEST PUSH0 PUSH2 0x19EF DUP5 DUP3 DUP6 ADD PUSH2 0x19B9 JUMP JUMPDEST SWAP2 POP POP SWAP3 SWAP2 POP POP JUMP JUMPDEST PUSH32 0x436F6E747261637420646F6573206E6F74206861766520656E6F756768206261 PUSH0 DUP3 ADD MSTORE PUSH32 0x6C616E636520746F207769746864726177000000000000000000000000000000 PUSH1 0x20 DUP3 ADD MSTORE POP JUMP JUMPDEST PUSH0 PUSH2 0x1A52 PUSH1 0x31 DUP4 PUSH2 0x1871 JUMP JUMPDEST SWAP2 POP PUSH2 0x1A5D DUP3 PUSH2 0x19F8 JUMP JUMPDEST PUSH1 0x40 DUP3 ADD SWAP1 POP SWAP2 SWAP1 POP JUMP JUMPDEST PUSH0 PUSH1 0x20 DUP3 ADD SWAP1 POP DUP2 DUP2 SUB PUSH0 DUP4 ADD MSTORE PUSH2 0x1A7F DUP2 PUSH2 0x1A46 JUMP JUMPDEST SWAP1 POP SWAP2 SWAP1 POP JUMP JUMPDEST PUSH32 0x616464206D6F726520616D6F756E740000000000000000000000000000000000 PUSH0 DUP3 ADD MSTORE POP JUMP JUMPDEST PUSH0 PUSH2 0x1ABA PUSH1 0xF DUP4 PUSH2 0x1871 JUMP JUMPDEST SWAP2 POP PUSH2 0x1AC5 DUP3 PUSH2 0x1A86 JUMP JUMPDEST PUSH1 0x20 DUP3 ADD SWAP1 POP SWAP2 SWAP1 POP JUMP JUMPDEST PUSH0 PUSH1 0x20 DUP3 ADD SWAP1 POP DUP2 DUP2 SUB PUSH0 DUP4 ADD MSTORE PUSH2 0x1AE7 DUP2 PUSH2 0x1AAE JUMP JUMPDEST SWAP1 POP SWAP2 SWAP1 POP JUMP JUMPDEST PUSH32 0x616464206C65737320616D6F756E740000000000000000000000000000000000 PUSH0 DUP3 ADD MSTORE POP JUMP JUMPDEST PUSH0 PUSH2 0x1B22 PUSH1 0xF DUP4 PUSH2 0x1871 JUMP JUMPDEST SWAP2 POP PUSH2 0x1B2D DUP3 PUSH2 0x1AEE JUMP JUMPDEST PUSH1 0x20 DUP3 ADD SWAP1 POP SWAP2 SWAP1 POP JUMP JUMPDEST PUSH0 PUSH1 0x20 DUP3 ADD SWAP1 POP DUP2 DUP2 SUB PUSH0 DUP4 ADD MSTORE PUSH2 0x1B4F DUP2 PUSH2 0x1B16 JUMP JUMPDEST SWAP1 POP SWAP2 SWAP1 POP JUMP JUMPDEST PUSH32 0x696E76616C6964206D6F6E746800000000000000000000000000000000000000 PUSH0 DUP3 ADD MSTORE POP JUMP JUMPDEST PUSH0 PUSH2 0x1B8A PUSH1 0xD DUP4 PUSH2 0x1871 JUMP JUMPDEST SWAP2 POP PUSH2 0x1B95 DUP3 PUSH2 0x1B56 JUMP JUMPDEST PUSH1 0x20 DUP3 ADD SWAP1 POP SWAP2 SWAP1 POP JUMP JUMPDEST PUSH0 PUSH1 0x20 DUP3 ADD SWAP1 POP DUP2 DUP2 SUB PUSH0 DUP4 ADD MSTORE PUSH2 0x1BB7 DUP2 PUSH2 0x1B7E JUMP JUMPDEST SWAP1 POP SWAP2 SWAP1 POP JUMP JUMPDEST PUSH32 0x616C7265616479207374616B6564000000000000000000000000000000000000 PUSH0 DUP3 ADD MSTORE POP JUMP JUMPDEST PUSH0 PUSH2 0x1BF2 PUSH1 0xE DUP4 PUSH2 0x1871 JUMP JUMPDEST SWAP2 POP PUSH2 0x1BFD DUP3 PUSH2 0x1BBE JUMP JUMPDEST PUSH1 0x20 DUP3 ADD SWAP1 POP SWAP2 SWAP1 POP JUMP JUMPDEST PUSH0 PUSH1 0x20 DUP3 ADD SWAP1 POP DUP2 DUP2 SUB PUSH0 DUP4 ADD MSTORE PUSH2 0x1C1F DUP2 PUSH2 0x1BE6 JUMP JUMPDEST SWAP1 POP SWAP2 SWAP1 POP JUMP JUMPDEST PUSH32 0x4E487B7100000000000000000000000000000000000000000000000000000000 PUSH0 MSTORE PUSH1 0x11 PUSH1 0x4 MSTORE PUSH1 0x24 PUSH0 REVERT JUMPDEST PUSH0 PUSH2 0x1C5D DUP3 PUSH2 0x15A4 JUMP JUMPDEST SWAP2 POP PUSH2 0x1C68 DUP4 PUSH2 0x15A4 JUMP JUMPDEST SWAP3 POP DUP3 DUP3 MUL PUSH2 0x1C76 DUP2 PUSH2 0x15A4 JUMP JUMPDEST SWAP2 POP DUP3 DUP3 DIV DUP5 EQ DUP4 ISZERO OR PUSH2 0x1C8D JUMPI PUSH2 0x1C8C PUSH2 0x1C26 JUMP JUMPDEST JUMPDEST POP SWAP3 SWAP2 POP POP JUMP JUMPDEST PUSH0 DUP2 SWAP1 POP SWAP2 SWAP1 POP JUMP JUMPDEST PUSH0 PUSH8 0xFFFFFFFFFFFFFFFF DUP3 AND SWAP1 POP SWAP2 SWAP1 POP JUMP JUMPDEST PUSH0 PUSH2 0x1CCA PUSH2 0x1CC5 PUSH2 0x1CC0 DUP5 PUSH2 0x1C94 JUMP JUMPDEST PUSH2 0x17FD JUMP JUMPDEST PUSH2 0x1C9D JUMP JUMPDEST SWAP1 POP SWAP2 SWAP1 POP JUMP JUMPDEST PUSH2 0x1CDA DUP2 PUSH2 0x1CB0 JUMP JUMPDEST DUP3 MSTORE POP POP JUMP JUMPDEST PUSH0 PUSH1 0x20 DUP3 ADD SWAP1 POP PUSH2 0x1CF3 PUSH0 DUP4 ADD DUP5 PUSH2 0x1CD1 JUMP JUMPDEST SWAP3 SWAP2 POP POP JUMP JUMPDEST PUSH32 0x5265656E7472616E637947756172643A207265656E7472616E742063616C6C00 PUSH0 DUP3 ADD MSTORE POP JUMP JUMPDEST PUSH0 PUSH2 0x1D2D PUSH1 0x1F DUP4 PUSH2 0x1871 JUMP JUMPDEST SWAP2 POP PUSH2 0x1D38 DUP3 PUSH2 0x1CF9 JUMP JUMPDEST PUSH1 0x20 DUP3 ADD SWAP1 POP SWAP2 SWAP1 POP JUMP JUMPDEST PUSH0 PUSH1 0x20 DUP3 ADD SWAP1 POP DUP2 DUP2 SUB PUSH0 DUP4 ADD MSTORE PUSH2 0x1D5A DUP2 PUSH2 0x1D21 JUMP JUMPDEST SWAP1 POP SWAP2 SWAP1 POP JUMP JUMPDEST PUSH0 PUSH2 0x1D6B DUP3 PUSH2 0x15A4 JUMP JUMPDEST SWAP2 POP PUSH2 0x1D76 DUP4 PUSH2 0x15A4 JUMP JUMPDEST SWAP3 POP DUP3 DUP3 ADD SWAP1 POP DUP1 DUP3 GT ISZERO PUSH2 0x1D8E JUMPI PUSH2 0x1D8D PUSH2 0x1C26 JUMP JUMPDEST JUMPDEST SWAP3 SWAP2 POP POP JUMP JUMPDEST PUSH0 PUSH1 0x40 DUP3 ADD SWAP1 POP PUSH2 0x1DA7 PUSH0 DUP4 ADD DUP6 PUSH2 0x16CB JUMP JUMPDEST PUSH2 0x1DB4 PUSH1 0x20 DUP4 ADD DUP5 PUSH2 0x1635 JUMP JUMPDEST SWAP4 SWAP3 POP POP POP JUMP JUMPDEST PUSH32 0x5061757361626C653A2070617573656400000000000000000000000000000000 PUSH0 DUP3 ADD MSTORE POP JUMP JUMPDEST PUSH0 PUSH2 0x1DEF PUSH1 0x10 DUP4 PUSH2 0x1871 JUMP JUMPDEST SWAP2 POP PUSH2 0x1DFA DUP3 PUSH2 0x1DBB JUMP JUMPDEST PUSH1 0x20 DUP3 ADD SWAP1 POP SWAP2 SWAP1 POP JUMP JUMPDEST PUSH0 PUSH1 0x20 DUP3 ADD SWAP1 POP DUP2 DUP2 SUB PUSH0 DUP4 ADD MSTORE PUSH2 0x1E1C DUP2 PUSH2 0x1DE3 JUMP JUMPDEST SWAP1 POP SWAP2 SWAP1 POP JUMP JUMPDEST PUSH0 PUSH1 0x60 DUP3 ADD SWAP1 POP PUSH2 0x1E36 PUSH0 DUP4 ADD DUP7 PUSH2 0x16CB JUMP JUMPDEST PUSH2 0x1E43 PUSH1 0x20 DUP4 ADD DUP6 PUSH2 0x16CB JUMP JUMPDEST PUSH2 0x1E50 PUSH1 0x40 DUP4 ADD DUP5 PUSH2 0x1635 JUMP JUMPDEST SWAP5 SWAP4 POP POP POP POP JUMP JUMPDEST PUSH32 0x4E487B7100000000000000000000000000000000000000000000000000000000 PUSH0 MSTORE PUSH1 0x12 PUSH1 0x4 MSTORE PUSH1 0x24 PUSH0 REVERT JUMPDEST PUSH0 PUSH2 0x1E8F DUP3 PUSH2 0x15A4 JUMP JUMPDEST SWAP2 POP PUSH2 0x1E9A DUP4 PUSH2 0x15A4 JUMP JUMPDEST SWAP3 POP DUP3 PUSH2 0x1EAA JUMPI PUSH2 0x1EA9 PUSH2 0x1E58 JUMP JUMPDEST JUMPDEST DUP3 DUP3 DIV SWAP1 POP SWAP3 SWAP2 POP POP JUMP JUMPDEST PUSH2 0x1EBE DUP2 PUSH2 0x1602 JUMP JUMPDEST DUP2 EQ PUSH2 0x1EC8 JUMPI PUSH0 DUP1 REVERT JUMPDEST POP JUMP JUMPDEST PUSH0 DUP2 MLOAD SWAP1 POP PUSH2 0x1ED9 DUP2 PUSH2 0x1EB5 JUMP JUMPDEST SWAP3 SWAP2 POP POP JUMP JUMPDEST PUSH0 PUSH1 0x20 DUP3 DUP5 SUB SLT ISZERO PUSH2 0x1EF4 JUMPI PUSH2 0x1EF3 PUSH2 0x15A0 JUMP JUMPDEST JUMPDEST PUSH0 PUSH2 0x1F01 DUP5 DUP3 DUP6 ADD PUSH2 0x1ECB JUMP JUMPDEST SWAP2 POP POP SWAP3 SWAP2 POP POP JUMP JUMPDEST PUSH32 0x5061757361626C653A206E6F7420706175736564000000000000000000000000 PUSH0 DUP3 ADD MSTORE POP JUMP JUMPDEST PUSH0 PUSH2 0x1F3E PUSH1 0x14 DUP4 PUSH2 0x1871 JUMP JUMPDEST SWAP2 POP PUSH2 0x1F49 DUP3 PUSH2 0x1F0A JUMP JUMPDEST PUSH1 0x20 DUP3 ADD SWAP1 POP SWAP2 SWAP1 POP JUMP JUMPDEST PUSH0 PUSH1 0x20 DUP3 ADD SWAP1 POP DUP2 DUP2 SUB PUSH0 DUP4 ADD MSTORE PUSH2 0x1F6B DUP2 PUSH2 0x1F32 JUMP JUMPDEST SWAP1 POP SWAP2 SWAP1 POP JUMP JUMPDEST PUSH0 DUP2 MLOAD SWAP1 POP SWAP2 SWAP1 POP JUMP JUMPDEST PUSH0 DUP2 SWAP1 POP SWAP3 SWAP2 POP POP JUMP JUMPDEST PUSH0 JUMPDEST DUP4 DUP2 LT ISZERO PUSH2 0x1FA3 JUMPI DUP1 DUP3 ADD MLOAD DUP2 DUP5 ADD MSTORE PUSH1 0x20 DUP2 ADD SWAP1 POP PUSH2 0x1F88 JUMP JUMPDEST PUSH0 DUP5 DUP5 ADD MSTORE POP POP POP POP JUMP JUMPDEST PUSH0 PUSH2 0x1FB8 DUP3 PUSH2 0x1F72 JUMP JUMPDEST PUSH2 0x1FC2 DUP2 DUP6 PUSH2 0x1F7C JUMP JUMPDEST SWAP4 POP PUSH2 0x1FD2 DUP2 DUP6 PUSH1 0x20 DUP7 ADD PUSH2 0x1F86 JUMP JUMPDEST DUP1 DUP5 ADD SWAP2 POP POP SWAP3 SWAP2 POP POP JUMP JUMPDEST PUSH0 PUSH2 0x1FE9 DUP3 DUP5 PUSH2 0x1FAE JUMP JUMPDEST SWAP2 POP DUP2 SWAP1 POP SWAP3 SWAP2 POP POP JUMP INVALID LOG2 PUSH5 0x6970667358 0x22 SLT KECCAK256 0xCD 0xC7 SWAP2 0x2C PUSH5 0x497FE3CBD8 PUSH8 0xE772631832D32E68 0xA5 0xE6 SMOD ADDMOD 0x4F PUSH31 0xF5E6C0B4A8179E64736F6C6343000818003300000000000000000000000000 "
				},
				"gasEstimates": {
					"creation": {
						"codeDepositCost": "1646800",
						"executionCost": "48106",
						"totalCost": "1694906"
					},
					"external": {
						"calculateReward(uint256,uint256,uint256)": "infinite",
						"initialize()": "105956",
						"maxStakeAmount()": "2470",
						"minStakeAmount()": "2469",
						"monthToInterestRate(uint256)": "infinite",
						"owner()": "2553",
						"pause()": "30107",
						"paused()": "2496",
						"setAddress(address)": "26906",
						"setMonthInterestRate(uint256,uint256)": "infinite",
						"stake(uint256,uint256)": "infinite",
						"token()": "infinite",
						"transferOwnership(address)": "26950",
						"unpause()": "30170",
						"unstake(uint256)": "infinite",
						"updateMaxAmount(uint256)": "24708",
						"updateMinAmount(uint256)": "24794",
						"userMonthToAmount(address,uint256)": "infinite",
						"withdraw(uint256)": "infinite"
					}
				},
				"methodIdentifiers": {
					"calculateReward(uint256,uint256,uint256)": "a8e62b97",
					"initialize()": "8129fc1c",
					"maxStakeAmount()": "5d80ca32",
					"minStakeAmount()": "f1887684",
					"monthToInterestRate(uint256)": "97378b1a",
					"owner()": "8da5cb5b",
					"pause()": "8456cb59",
					"paused()": "5c975abb",
					"setAddress(address)": "e30081a0",
					"setMonthInterestRate(uint256,uint256)": "6cee0131",
					"stake(uint256,uint256)": "7b0472f0",
					"token()": "fc0c546a",
					"transferOwnership(address)": "f2fde38b",
					"unpause()": "3f4ba83a",
					"unstake(uint256)": "2e17de78",
					"updateMaxAmount(uint256)": "106b5da1",
					"updateMinAmount(uint256)": "ff897dbd",
					"userMonthToAmount(address,uint256)": "9fa828ac",
					"withdraw(uint256)": "2e1a7d4d"
				}
			},
			"storageLayout": {
				"storage": [
					{
						"astId": 271,
						"contract": "wasser/staking.sol:Staking",
						"label": "_paused",
						"offset": 0,
						"slot": "0",
						"type": "t_bool"
					},
					{
						"astId": 372,
						"contract": "wasser/staking.sol:Staking",
						"label": "_status",
						"offset": 0,
						"slot": "1",
						"type": "t_uint256"
					},
					{
						"astId": 1450,
						"contract": "wasser/staking.sol:Staking",
						"label": "minStakeAmount",
						"offset": 0,
						"slot": "2",
						"type": "t_uint256"
					},
					{
						"astId": 1452,
						"contract": "wasser/staking.sol:Staking",
						"label": "maxStakeAmount",
						"offset": 0,
						"slot": "3",
						"type": "t_uint256"
					},
					{
						"astId": 1454,
						"contract": "wasser/staking.sol:Staking",
						"label": "owner",
						"offset": 0,
						"slot": "4",
						"type": "t_address"
					},
					{
						"astId": 1489,
						"contract": "wasser/staking.sol:Staking",
						"label": "userMonthToAmount",
						"offset": 0,
						"slot": "5",
						"type": "t_mapping(t_address,t_mapping(t_uint256,t_struct(User)1459_storage))"
					},
					{
						"astId": 1493,
						"contract": "wasser/staking.sol:Staking",
						"label": "monthToInterestRate",
						"offset": 0,
						"slot": "6",
						"type": "t_mapping(t_uint256,t_uint256)"
					},
					{
						"astId": 1496,
						"contract": "wasser/staking.sol:Staking",
						"label": "token",
						"offset": 0,
						"slot": "7",
						"type": "t_contract(IERC20)504"
					}
				],
				"types": {
					"t_address": {
						"encoding": "inplace",
						"label": "address",
						"numberOfBytes": "20"
					},
					"t_bool": {
						"encoding": "inplace",
						"label": "bool",
						"numberOfBytes": "1"
					},
					"t_contract(IERC20)504": {
						"encoding": "inplace",
						"label": "contract IERC20",
						"numberOfBytes": "20"
					},
					"t_mapping(t_address,t_mapping(t_uint256,t_struct(User)1459_storage))": {
						"encoding": "mapping",
						"key": "t_address",
						"label": "mapping(address => mapping(uint256 => struct Staking.User))",
						"numberOfBytes": "32",
						"value": "t_mapping(t_uint256,t_struct(User)1459_storage)"
					},
					"t_mapping(t_uint256,t_struct(User)1459_storage)": {
						"encoding": "mapping",
						"key": "t_uint256",
						"label": "mapping(uint256 => struct Staking.User)",
						"numberOfBytes": "32",
						"value": "t_struct(User)1459_storage"
					},
					"t_mapping(t_uint256,t_uint256)": {
						"encoding": "mapping",
						"key": "t_uint256",
						"label": "mapping(uint256 => uint256)",
						"numberOfBytes": "32",
						"value": "t_uint256"
					},
					"t_struct(User)1459_storage": {
						"encoding": "inplace",
						"label": "struct Staking.User",
						"members": [
							{
								"astId": 1456,
								"contract": "wasser/staking.sol:Staking",
								"label": "amount",
								"offset": 0,
								"slot": "0",
								"type": "t_uint256"
							},
							{
								"astId": 1458,
								"contract": "wasser/staking.sol:Staking",
								"label": "deadline",
								"offset": 0,
								"slot": "1",
								"type": "t_uint256"
							}
						],
						"numberOfBytes": "64"
					},
					"t_uint256": {
						"encoding": "inplace",
						"label": "uint256",
						"numberOfBytes": "32"
					}
				}
			},
			"userdoc": {
				"kind": "user",
				"methods": {},
				"version": 1
			}
		}
	}
}