{
	"wasser/registry.sol": {
		"Registry": {
			"abi": [
				{
					"inputs": [],
					"stateMutability": "nonpayable",
					"type": "constructor"
				},
				{
					"stateMutability": "payable",
					"type": "fallback"
				},
				{
					"inputs": [
						{
							"internalType": "bytes4",
							"name": "",
							"type": "bytes4"
						}
					],
					"name": "implementations",
					"outputs": [
						{
							"internalType": "address",
							"name": "",
							"type": "address"
						}
					],
					"stateMutability": "view",
					"type": "function"
				},
				{
					"inputs": [
						{
							"internalType": "string",
							"name": "functionName",
							"type": "string"
						},
						{
							"internalType": "address",
							"name": "_implementation",
							"type": "address"
						}
					],
					"name": "setImplementation",
					"outputs": [],
					"stateMutability": "nonpayable",
					"type": "function"
				},
				{
					"stateMutability": "payable",
					"type": "receive"
				}
			],
			"devdoc": {
				"kind": "dev",
				"methods": {},
				"version": 1
			},
			"evm": {
				"assembly": "    /* \"wasser/registry.sol\":417:1820  contract Registry {... */\n  mstore(0x40, 0x80)\n    /* \"wasser/registry.sol\":595:647  constructor() {... */\n  callvalue\n  dup1\n  iszero\n  tag_1\n  jumpi\n  0x00\n  dup1\n  revert\ntag_1:\n  pop\n    /* \"wasser/registry.sol\":619:640  _setAdmin(msg.sender) */\n  tag_4\n    /* \"wasser/registry.sol\":629:639  msg.sender */\n  caller\n    /* \"wasser/registry.sol\":619:628  _setAdmin */\n  shl(0x20, tag_5)\n    /* \"wasser/registry.sol\":619:640  _setAdmin(msg.sender) */\n  0x20\n  shr\n  jump\t// in\ntag_4:\n    /* \"wasser/registry.sol\":417:1820  contract Registry {... */\n  jump(tag_6)\n    /* \"wasser/registry.sol\":857:970  function _setAdmin(address _admin) private {... */\ntag_5:\n    /* \"wasser/registry.sol\":957:963  _admin */\n  dup1\n    /* \"wasser/registry.sol\":910:921  StorageSlot */\n  linkerSymbol(\"f51207402882d2f98d3fa15877cadd04699e230a9410b24b2e20306be516a05a\")\n    /* \"wasser/registry.sol\":910:936  StorageSlot.getAddressSlot */\n  0xe8ff0b1d\n    /* \"wasser/registry.sol\":531:532  1 */\n  0x01\n    /* \"wasser/registry.sol\":495:527  keccak256('eip1967.proxy.admin') */\n  0xb53127684a568b3173ae13b9f8a6016e243e63b6e8ee1178d6a717850b5d6104\n    /* \"wasser/registry.sol\":487:528  uint256(keccak256('eip1967.proxy.admin')) */\n  0x00\n  shr\n    /* \"wasser/registry.sol\":487:532  uint256(keccak256('eip1967.proxy.admin')) - 1 */\n  tag_8\n  swap2\n  swap1\n  tag_9\n  jump\t// in\ntag_8:\n    /* \"wasser/registry.sol\":479:533  bytes32(uint256(keccak256('eip1967.proxy.admin')) - 1) */\n  0x00\n  shl\n    /* \"wasser/registry.sol\":910:948  StorageSlot.getAddressSlot(ADMIN_SLOT) */\n  mload(0x40)\n  dup3\n  0xffffffff\n  and\n  0xe0\n  shl\n  dup2\n  mstore\n  0x04\n  add\n  tag_10\n  swap2\n  swap1\n  tag_11\n  jump\t// in\ntag_10:\n  0x20\n  mload(0x40)\n  dup1\n  dup4\n  sub\n  dup2\n  dup7\n  gas\n  delegatecall\n  iszero\n  dup1\n  iszero\n  tag_13\n  jumpi\n  returndatasize\n  0x00\n  dup1\n  returndatacopy\n  revert(0x00, returndatasize)\ntag_13:\n  pop\n  pop\n  pop\n  pop\n  mload(0x40)\n  returndatasize\n  not(0x1f)\n  0x1f\n  dup3\n  add\n  and\n  dup3\n  add\n  dup1\n  0x40\n  mstore\n  pop\n  dup2\n  add\n  swap1\n  tag_14\n  swap2\n  swap1\n  tag_15\n  jump\t// in\ntag_14:\n    /* \"wasser/registry.sol\":910:954  StorageSlot.getAddressSlot(ADMIN_SLOT).value */\n  0x00\n  add\n  0x00\n    /* \"wasser/registry.sol\":910:963  StorageSlot.getAddressSlot(ADMIN_SLOT).value = _admin */\n  0x0100\n  exp\n  dup2\n  sload\n  dup2\n  0xffffffffffffffffffffffffffffffffffffffff\n  mul\n  not\n  and\n  swap1\n  dup4\n  0xffffffffffffffffffffffffffffffffffffffff\n  and\n  mul\n  or\n  swap1\n  sstore\n  pop\n    /* \"wasser/registry.sol\":857:970  function _setAdmin(address _admin) private {... */\n  pop\n  jump\t// out\n    /* \"#utility.yul\":7:84   */\ntag_16:\n    /* \"#utility.yul\":44:51   */\n  0x00\n    /* \"#utility.yul\":73:78   */\n  dup2\n    /* \"#utility.yul\":62:78   */\n  swap1\n  pop\n    /* \"#utility.yul\":7:84   */\n  swap2\n  swap1\n  pop\n  jump\t// out\n    /* \"#utility.yul\":90:270   */\ntag_17:\n    /* \"#utility.yul\":138:215   */\n  0x4e487b7100000000000000000000000000000000000000000000000000000000\n    /* \"#utility.yul\":135:136   */\n  0x00\n    /* \"#utility.yul\":128:216   */\n  mstore\n    /* \"#utility.yul\":235:239   */\n  0x11\n    /* \"#utility.yul\":232:233   */\n  0x04\n    /* \"#utility.yul\":225:240   */\n  mstore\n    /* \"#utility.yul\":259:263   */\n  0x24\n    /* \"#utility.yul\":256:257   */\n  0x00\n    /* \"#utility.yul\":249:264   */\n  revert\n    /* \"#utility.yul\":276:470   */\ntag_9:\n    /* \"#utility.yul\":316:320   */\n  0x00\n    /* \"#utility.yul\":336:356   */\n  tag_30\n    /* \"#utility.yul\":354:355   */\n  dup3\n    /* \"#utility.yul\":336:356   */\n  tag_16\n  jump\t// in\ntag_30:\n    /* \"#utility.yul\":331:356   */\n  swap2\n  pop\n    /* \"#utility.yul\":370:390   */\n  tag_31\n    /* \"#utility.yul\":388:389   */\n  dup4\n    /* \"#utility.yul\":370:390   */\n  tag_16\n  jump\t// in\ntag_31:\n    /* \"#utility.yul\":365:390   */\n  swap3\n  pop\n    /* \"#utility.yul\":414:415   */\n  dup3\n    /* \"#utility.yul\":411:412   */\n  dup3\n    /* \"#utility.yul\":407:416   */\n  sub\n    /* \"#utility.yul\":399:416   */\n  swap1\n  pop\n    /* \"#utility.yul\":438:439   */\n  dup2\n    /* \"#utility.yul\":432:436   */\n  dup2\n    /* \"#utility.yul\":429:440   */\n  gt\n    /* \"#utility.yul\":426:463   */\n  iszero\n  tag_32\n  jumpi\n    /* \"#utility.yul\":443:461   */\n  tag_33\n  tag_17\n  jump\t// in\ntag_33:\n    /* \"#utility.yul\":426:463   */\ntag_32:\n    /* \"#utility.yul\":276:470   */\n  swap3\n  swap2\n  pop\n  pop\n  jump\t// out\n    /* \"#utility.yul\":476:553   */\ntag_18:\n    /* \"#utility.yul\":513:520   */\n  0x00\n    /* \"#utility.yul\":542:547   */\n  dup2\n    /* \"#utility.yul\":531:547   */\n  swap1\n  pop\n    /* \"#utility.yul\":476:553   */\n  swap2\n  swap1\n  pop\n  jump\t// out\n    /* \"#utility.yul\":559:685   */\ntag_19:\n    /* \"#utility.yul\":654:678   */\n  tag_36\n    /* \"#utility.yul\":672:677   */\n  dup2\n    /* \"#utility.yul\":654:678   */\n  tag_18\n  jump\t// in\ntag_36:\n    /* \"#utility.yul\":649:652   */\n  dup3\n    /* \"#utility.yul\":642:679   */\n  mstore\n    /* \"#utility.yul\":559:685   */\n  pop\n  pop\n  jump\t// out\n    /* \"#utility.yul\":691:929   */\ntag_11:\n    /* \"#utility.yul\":792:796   */\n  0x00\n    /* \"#utility.yul\":830:832   */\n  0x20\n    /* \"#utility.yul\":819:828   */\n  dup3\n    /* \"#utility.yul\":815:833   */\n  add\n    /* \"#utility.yul\":807:833   */\n  swap1\n  pop\n    /* \"#utility.yul\":843:922   */\n  tag_38\n    /* \"#utility.yul\":919:920   */\n  0x00\n    /* \"#utility.yul\":908:917   */\n  dup4\n    /* \"#utility.yul\":904:921   */\n  add\n    /* \"#utility.yul\":895:901   */\n  dup5\n    /* \"#utility.yul\":843:922   */\n  tag_19\n  jump\t// in\ntag_38:\n    /* \"#utility.yul\":691:929   */\n  swap3\n  swap2\n  pop\n  pop\n  jump\t// out\n    /* \"#utility.yul\":1016:1133   */\ntag_21:\n    /* \"#utility.yul\":1125:1126   */\n  0x00\n    /* \"#utility.yul\":1122:1123   */\n  dup1\n    /* \"#utility.yul\":1115:1127   */\n  revert\n    /* \"#utility.yul\":1262:1366   */\ntag_23:\n    /* \"#utility.yul\":1326:1333   */\n  0x00\n    /* \"#utility.yul\":1355:1360   */\n  dup2\n    /* \"#utility.yul\":1344:1360   */\n  swap1\n  pop\n    /* \"#utility.yul\":1262:1366   */\n  swap2\n  swap1\n  pop\n  jump\t// out\n    /* \"#utility.yul\":1372:1548   */\ntag_24:\n    /* \"#utility.yul\":1472:1523   */\n  tag_44\n    /* \"#utility.yul\":1517:1522   */\n  dup2\n    /* \"#utility.yul\":1472:1523   */\n  tag_23\n  jump\t// in\ntag_44:\n    /* \"#utility.yul\":1465:1470   */\n  dup2\n    /* \"#utility.yul\":1462:1524   */\n  eq\n    /* \"#utility.yul\":1452:1542   */\n  tag_45\n  jumpi\n    /* \"#utility.yul\":1538:1539   */\n  0x00\n    /* \"#utility.yul\":1535:1536   */\n  dup1\n    /* \"#utility.yul\":1528:1540   */\n  revert\n    /* \"#utility.yul\":1452:1542   */\ntag_45:\n    /* \"#utility.yul\":1372:1548   */\n  pop\n  jump\t// out\n    /* \"#utility.yul\":1554:1751   */\ntag_25:\n    /* \"#utility.yul\":1638:1643   */\n  0x00\n    /* \"#utility.yul\":1669:1675   */\n  dup2\n    /* \"#utility.yul\":1663:1676   */\n  mload\n    /* \"#utility.yul\":1654:1676   */\n  swap1\n  pop\n    /* \"#utility.yul\":1685:1745   */\n  tag_47\n    /* \"#utility.yul\":1739:1744   */\n  dup2\n    /* \"#utility.yul\":1685:1745   */\n  tag_24\n  jump\t// in\ntag_47:\n    /* \"#utility.yul\":1554:1751   */\n  swap3\n  swap2\n  pop\n  pop\n  jump\t// out\n    /* \"#utility.yul\":1757:2162   */\ntag_15:\n    /* \"#utility.yul\":1854:1860   */\n  0x00\n    /* \"#utility.yul\":1903:1905   */\n  0x20\n    /* \"#utility.yul\":1891:1900   */\n  dup3\n    /* \"#utility.yul\":1882:1889   */\n  dup5\n    /* \"#utility.yul\":1878:1901   */\n  sub\n    /* \"#utility.yul\":1874:1906   */\n  slt\n    /* \"#utility.yul\":1871:1990   */\n  iszero\n  tag_49\n  jumpi\n    /* \"#utility.yul\":1909:1988   */\n  tag_50\n  tag_21\n  jump\t// in\ntag_50:\n    /* \"#utility.yul\":1871:1990   */\ntag_49:\n    /* \"#utility.yul\":2029:2030   */\n  0x00\n    /* \"#utility.yul\":2054:2145   */\n  tag_51\n    /* \"#utility.yul\":2137:2144   */\n  dup5\n    /* \"#utility.yul\":2128:2134   */\n  dup3\n    /* \"#utility.yul\":2117:2126   */\n  dup6\n    /* \"#utility.yul\":2113:2135   */\n  add\n    /* \"#utility.yul\":2054:2145   */\n  tag_25\n  jump\t// in\ntag_51:\n    /* \"#utility.yul\":2044:2145   */\n  swap2\n  pop\n    /* \"#utility.yul\":2000:2155   */\n  pop\n    /* \"#utility.yul\":1757:2162   */\n  swap3\n  swap2\n  pop\n  pop\n  jump\t// out\n    /* \"wasser/registry.sol\":417:1820  contract Registry {... */\ntag_6:\n  dataSize(sub_0)\n  dup1\n  dataOffset(sub_0)\n  0x00\n  codecopy\n  0x00\n  return\nstop\n\nsub_0: assembly {\n        /* \"wasser/registry.sol\":417:1820  contract Registry {... */\n      mstore(0x40, 0x80)\n      jumpi(tag_1, lt(calldatasize, 0x04))\n      shr(0xe0, calldataload(0x00))\n      dup1\n      0x06419fe5\n      eq\n      tag_3\n      jumpi\n      dup1\n      0xe91db8e5\n      eq\n      tag_4\n      jumpi\n      jump(tag_2)\n    tag_1:\n      jumpi(tag_2, calldatasize)\n      stop\n    tag_2:\n        /* \"wasser/registry.sol\":1140:1162  address implementation */\n      0x00\n        /* \"wasser/registry.sol\":1165:1180  implementations */\n      dup1\n        /* \"wasser/registry.sol\":1165:1189  implementations[msg.sig] */\n      0x00\n        /* \"wasser/registry.sol\":1181:1188  msg.sig */\n      dup1\n      calldataload\n      0xffffffff00000000000000000000000000000000000000000000000000000000\n      and\n        /* \"wasser/registry.sol\":1165:1189  implementations[msg.sig] */\n      not(0xffffffffffffffffffffffffffffffffffffffffffffffffffffffff)\n      and\n      not(0xffffffffffffffffffffffffffffffffffffffffffffffffffffffff)\n      and\n      dup2\n      mstore\n      0x20\n      add\n      swap1\n      dup2\n      mstore\n      0x20\n      add\n      0x00\n      keccak256\n      0x00\n      swap1\n      sload\n      swap1\n      0x0100\n      exp\n      swap1\n      div\n      0xffffffffffffffffffffffffffffffffffffffff\n      and\n        /* \"wasser/registry.sol\":1140:1189  address implementation = implementations[msg.sig] */\n      swap1\n      pop\n        /* \"wasser/registry.sol\":1233:1234  0 */\n      0x00\n        /* \"wasser/registry.sol\":1207:1235  implementation != address(0) */\n      0xffffffffffffffffffffffffffffffffffffffff\n      and\n        /* \"wasser/registry.sol\":1207:1221  implementation */\n      dup2\n        /* \"wasser/registry.sol\":1207:1235  implementation != address(0) */\n      0xffffffffffffffffffffffffffffffffffffffff\n      and\n      sub\n        /* \"wasser/registry.sol\":1199:1264  require(implementation != address(0), 'Implementation not found') */\n      tag_9\n      jumpi\n      mload(0x40)\n      0x08c379a000000000000000000000000000000000000000000000000000000000\n      dup2\n      mstore\n      0x04\n      add\n      tag_10\n      swap1\n      tag_11\n      jump\t// in\n    tag_10:\n      mload(0x40)\n      dup1\n      swap2\n      sub\n      swap1\n      revert\n    tag_9:\n        /* \"wasser/registry.sol\":1274:1299  _delegate(implementation) */\n      tag_12\n        /* \"wasser/registry.sol\":1284:1298  implementation */\n      dup2\n        /* \"wasser/registry.sol\":1274:1283  _delegate */\n      tag_13\n        /* \"wasser/registry.sol\":1274:1299  _delegate(implementation) */\n      jump\t// in\n    tag_12:\n        /* \"wasser/registry.sol\":1130:1306  {... */\n      stop\n        /* \"wasser/registry.sol\":653:851  function setImplementation(string memory functionName, address _implementation) external {... */\n    tag_3:\n      callvalue\n      dup1\n      iszero\n      tag_14\n      jumpi\n      0x00\n      dup1\n      revert\n    tag_14:\n      pop\n      tag_15\n      0x04\n      dup1\n      calldatasize\n      sub\n      dup2\n      add\n      swap1\n      tag_16\n      swap2\n      swap1\n      tag_17\n      jump\t// in\n    tag_16:\n      tag_18\n      jump\t// in\n    tag_15:\n      stop\n        /* \"wasser/registry.sol\":539:588  mapping(bytes4 => address) public implementations */\n    tag_4:\n      callvalue\n      dup1\n      iszero\n      tag_19\n      jumpi\n      0x00\n      dup1\n      revert\n    tag_19:\n      pop\n      tag_20\n      0x04\n      dup1\n      calldatasize\n      sub\n      dup2\n      add\n      swap1\n      tag_21\n      swap2\n      swap1\n      tag_22\n      jump\t// in\n    tag_21:\n      tag_23\n      jump\t// in\n    tag_20:\n      mload(0x40)\n      tag_24\n      swap2\n      swap1\n      tag_25\n      jump\t// in\n    tag_24:\n      mload(0x40)\n      dup1\n      swap2\n      sub\n      swap1\n      return\n        /* \"wasser/registry.sol\":1347:1818  function _delegate(address _implementation) internal virtual {... */\n    tag_13:\n        /* \"wasser/registry.sol\":1460:1474  calldatasize() */\n      calldatasize\n        /* \"wasser/registry.sol\":1457:1458  0 */\n      0x00\n        /* \"wasser/registry.sol\":1454:1455  0 */\n      dup1\n        /* \"wasser/registry.sol\":1441:1475  calldatacopy(0, 0, calldatasize()) */\n      calldatacopy\n        /* \"wasser/registry.sol\":1562:1563  0 */\n      0x00\n        /* \"wasser/registry.sol\":1559:1560  0 */\n      dup1\n        /* \"wasser/registry.sol\":1543:1557  calldatasize() */\n      calldatasize\n        /* \"wasser/registry.sol\":1540:1541  0 */\n      0x00\n        /* \"wasser/registry.sol\":1523:1538  _implementation */\n      dup5\n        /* \"wasser/registry.sol\":1516:1521  gas() */\n      gas\n        /* \"wasser/registry.sol\":1503:1564  delegatecall(gas(), _implementation, 0, calldatasize(), 0, 0) */\n      delegatecall\n        /* \"wasser/registry.sol\":1599:1615  returndatasize() */\n      returndatasize\n        /* \"wasser/registry.sol\":1596:1597  0 */\n      0x00\n        /* \"wasser/registry.sol\":1593:1594  0 */\n      dup1\n        /* \"wasser/registry.sol\":1578:1616  returndatacopy(0, 0, returndatasize()) */\n      returndatacopy\n        /* \"wasser/registry.sol\":1637:1643  result */\n      dup1\n        /* \"wasser/registry.sol\":1661:1662  0 */\n      0x00\n        /* \"wasser/registry.sol\":1656:1722  case 0 {... */\n      dup2\n      eq\n      tag_28\n      jumpi\n        /* \"wasser/registry.sol\":1771:1787  returndatasize() */\n      returndatasize\n        /* \"wasser/registry.sol\":1768:1769  0 */\n      0x00\n        /* \"wasser/registry.sol\":1761:1788  return(0, returndatasize()) */\n      return\n        /* \"wasser/registry.sol\":1656:1722  case 0 {... */\n    tag_28:\n        /* \"wasser/registry.sol\":1691:1707  returndatasize() */\n      returndatasize\n        /* \"wasser/registry.sol\":1688:1689  0 */\n      0x00\n        /* \"wasser/registry.sol\":1681:1708  revert(0, returndatasize()) */\n      revert\n        /* \"wasser/registry.sol\":653:851  function setImplementation(string memory functionName, address _implementation) external {... */\n    tag_18:\n        /* \"wasser/registry.sol\":752:763  bytes4 data */\n      0x00\n        /* \"wasser/registry.sol\":766:769  Byt */\n      linkerSymbol(\"87ea436f10a21ab2d7daa6ea4b7ccde1755c2482f64955c5de290bbf67f67174\")\n        /* \"wasser/registry.sol\":766:781  Byt.createBytes */\n      0x96c79577\n        /* \"wasser/registry.sol\":782:794  functionName */\n      dup5\n        /* \"wasser/registry.sol\":766:795  Byt.createBytes(functionName) */\n      mload(0x40)\n      dup3\n      0xffffffff\n      and\n      0xe0\n      shl\n      dup2\n      mstore\n      0x04\n      add\n      tag_30\n      swap2\n      swap1\n      tag_31\n      jump\t// in\n    tag_30:\n      0x20\n      mload(0x40)\n      dup1\n      dup4\n      sub\n      dup2\n      dup7\n      gas\n      delegatecall\n      iszero\n      dup1\n      iszero\n      tag_33\n      jumpi\n      returndatasize\n      0x00\n      dup1\n      returndatacopy\n      revert(0x00, returndatasize)\n    tag_33:\n      pop\n      pop\n      pop\n      pop\n      mload(0x40)\n      returndatasize\n      not(0x1f)\n      0x1f\n      dup3\n      add\n      and\n      dup3\n      add\n      dup1\n      0x40\n      mstore\n      pop\n      dup2\n      add\n      swap1\n      tag_34\n      swap2\n      swap1\n      tag_35\n      jump\t// in\n    tag_34:\n        /* \"wasser/registry.sol\":752:795  bytes4 data = Byt.createBytes(functionName) */\n      swap1\n      pop\n        /* \"wasser/registry.sol\":829:844  _implementation */\n      dup2\n        /* \"wasser/registry.sol\":805:820  implementations */\n      0x00\n        /* \"wasser/registry.sol\":805:826  implementations[data] */\n      dup1\n        /* \"wasser/registry.sol\":821:825  data */\n      dup4\n        /* \"wasser/registry.sol\":805:826  implementations[data] */\n      not(0xffffffffffffffffffffffffffffffffffffffffffffffffffffffff)\n      and\n      not(0xffffffffffffffffffffffffffffffffffffffffffffffffffffffff)\n      and\n      dup2\n      mstore\n      0x20\n      add\n      swap1\n      dup2\n      mstore\n      0x20\n      add\n      0x00\n      keccak256\n      0x00\n        /* \"wasser/registry.sol\":805:844  implementations[data] = _implementation */\n      0x0100\n      exp\n      dup2\n      sload\n      dup2\n      0xffffffffffffffffffffffffffffffffffffffff\n      mul\n      not\n      and\n      swap1\n      dup4\n      0xffffffffffffffffffffffffffffffffffffffff\n      and\n      mul\n      or\n      swap1\n      sstore\n      pop\n        /* \"wasser/registry.sol\":742:851  {... */\n      pop\n        /* \"wasser/registry.sol\":653:851  function setImplementation(string memory functionName, address _implementation) external {... */\n      pop\n      pop\n      jump\t// out\n        /* \"wasser/registry.sol\":539:588  mapping(bytes4 => address) public implementations */\n    tag_23:\n      mstore(0x20, 0x00)\n      dup1\n      0x00\n      mstore\n      keccak256(0x00, 0x40)\n      0x00\n      swap2\n      pop\n      sload\n      swap1\n      0x0100\n      exp\n      swap1\n      div\n      0xffffffffffffffffffffffffffffffffffffffff\n      and\n      dup2\n      jump\t// out\n        /* \"#utility.yul\":7:176   */\n    tag_36:\n        /* \"#utility.yul\":91:102   */\n      0x00\n        /* \"#utility.yul\":125:131   */\n      dup3\n        /* \"#utility.yul\":120:123   */\n      dup3\n        /* \"#utility.yul\":113:132   */\n      mstore\n        /* \"#utility.yul\":165:169   */\n      0x20\n        /* \"#utility.yul\":160:163   */\n      dup3\n        /* \"#utility.yul\":156:170   */\n      add\n        /* \"#utility.yul\":141:170   */\n      swap1\n      pop\n        /* \"#utility.yul\":7:176   */\n      swap3\n      swap2\n      pop\n      pop\n      jump\t// out\n        /* \"#utility.yul\":182:356   */\n    tag_37:\n        /* \"#utility.yul\":322:348   */\n      0x496d706c656d656e746174696f6e206e6f7420666f756e640000000000000000\n        /* \"#utility.yul\":318:319   */\n      0x00\n        /* \"#utility.yul\":310:316   */\n      dup3\n        /* \"#utility.yul\":306:320   */\n      add\n        /* \"#utility.yul\":299:349   */\n      mstore\n        /* \"#utility.yul\":182:356   */\n      pop\n      jump\t// out\n        /* \"#utility.yul\":362:728   */\n    tag_38:\n        /* \"#utility.yul\":504:507   */\n      0x00\n        /* \"#utility.yul\":525:592   */\n      tag_69\n        /* \"#utility.yul\":589:591   */\n      0x18\n        /* \"#utility.yul\":584:587   */\n      dup4\n        /* \"#utility.yul\":525:592   */\n      tag_36\n      jump\t// in\n    tag_69:\n        /* \"#utility.yul\":518:592   */\n      swap2\n      pop\n        /* \"#utility.yul\":601:694   */\n      tag_70\n        /* \"#utility.yul\":690:693   */\n      dup3\n        /* \"#utility.yul\":601:694   */\n      tag_37\n      jump\t// in\n    tag_70:\n        /* \"#utility.yul\":719:721   */\n      0x20\n        /* \"#utility.yul\":714:717   */\n      dup3\n        /* \"#utility.yul\":710:722   */\n      add\n        /* \"#utility.yul\":703:722   */\n      swap1\n      pop\n        /* \"#utility.yul\":362:728   */\n      swap2\n      swap1\n      pop\n      jump\t// out\n        /* \"#utility.yul\":734:1153   */\n    tag_11:\n        /* \"#utility.yul\":900:904   */\n      0x00\n        /* \"#utility.yul\":938:940   */\n      0x20\n        /* \"#utility.yul\":927:936   */\n      dup3\n        /* \"#utility.yul\":923:941   */\n      add\n        /* \"#utility.yul\":915:941   */\n      swap1\n      pop\n        /* \"#utility.yul\":987:996   */\n      dup2\n        /* \"#utility.yul\":981:985   */\n      dup2\n        /* \"#utility.yul\":977:997   */\n      sub\n        /* \"#utility.yul\":973:974   */\n      0x00\n        /* \"#utility.yul\":962:971   */\n      dup4\n        /* \"#utility.yul\":958:975   */\n      add\n        /* \"#utility.yul\":951:998   */\n      mstore\n        /* \"#utility.yul\":1015:1146   */\n      tag_72\n        /* \"#utility.yul\":1141:1145   */\n      dup2\n        /* \"#utility.yul\":1015:1146   */\n      tag_38\n      jump\t// in\n    tag_72:\n        /* \"#utility.yul\":1007:1146   */\n      swap1\n      pop\n        /* \"#utility.yul\":734:1153   */\n      swap2\n      swap1\n      pop\n      jump\t// out\n        /* \"#utility.yul\":1159:1234   */\n    tag_39:\n        /* \"#utility.yul\":1192:1198   */\n      0x00\n        /* \"#utility.yul\":1225:1227   */\n      0x40\n        /* \"#utility.yul\":1219:1228   */\n      mload\n        /* \"#utility.yul\":1209:1228   */\n      swap1\n      pop\n        /* \"#utility.yul\":1159:1234   */\n      swap1\n      jump\t// out\n        /* \"#utility.yul\":1240:1357   */\n    tag_40:\n        /* \"#utility.yul\":1349:1350   */\n      0x00\n        /* \"#utility.yul\":1346:1347   */\n      dup1\n        /* \"#utility.yul\":1339:1351   */\n      revert\n        /* \"#utility.yul\":1363:1480   */\n    tag_41:\n        /* \"#utility.yul\":1472:1473   */\n      0x00\n        /* \"#utility.yul\":1469:1470   */\n      dup1\n        /* \"#utility.yul\":1462:1474   */\n      revert\n        /* \"#utility.yul\":1486:1603   */\n    tag_42:\n        /* \"#utility.yul\":1595:1596   */\n      0x00\n        /* \"#utility.yul\":1592:1593   */\n      dup1\n        /* \"#utility.yul\":1585:1597   */\n      revert\n        /* \"#utility.yul\":1609:1726   */\n    tag_43:\n        /* \"#utility.yul\":1718:1719   */\n      0x00\n        /* \"#utility.yul\":1715:1716   */\n      dup1\n        /* \"#utility.yul\":1708:1720   */\n      revert\n        /* \"#utility.yul\":1732:1834   */\n    tag_44:\n        /* \"#utility.yul\":1773:1779   */\n      0x00\n        /* \"#utility.yul\":1824:1826   */\n      0x1f\n        /* \"#utility.yul\":1820:1827   */\n      not\n        /* \"#utility.yul\":1815:1817   */\n      0x1f\n        /* \"#utility.yul\":1808:1813   */\n      dup4\n        /* \"#utility.yul\":1804:1818   */\n      add\n        /* \"#utility.yul\":1800:1828   */\n      and\n        /* \"#utility.yul\":1790:1828   */\n      swap1\n      pop\n        /* \"#utility.yul\":1732:1834   */\n      swap2\n      swap1\n      pop\n      jump\t// out\n        /* \"#utility.yul\":1840:2020   */\n    tag_45:\n        /* \"#utility.yul\":1888:1965   */\n      0x4e487b7100000000000000000000000000000000000000000000000000000000\n        /* \"#utility.yul\":1885:1886   */\n      0x00\n        /* \"#utility.yul\":1878:1966   */\n      mstore\n        /* \"#utility.yul\":1985:1989   */\n      0x41\n        /* \"#utility.yul\":1982:1983   */\n      0x04\n        /* \"#utility.yul\":1975:1990   */\n      mstore\n        /* \"#utility.yul\":2009:2013   */\n      0x24\n        /* \"#utility.yul\":2006:2007   */\n      0x00\n        /* \"#utility.yul\":1999:2014   */\n      revert\n        /* \"#utility.yul\":2026:2307   */\n    tag_46:\n        /* \"#utility.yul\":2109:2136   */\n      tag_81\n        /* \"#utility.yul\":2131:2135   */\n      dup3\n        /* \"#utility.yul\":2109:2136   */\n      tag_44\n      jump\t// in\n    tag_81:\n        /* \"#utility.yul\":2101:2107   */\n      dup2\n        /* \"#utility.yul\":2097:2137   */\n      add\n        /* \"#utility.yul\":2239:2245   */\n      dup2\n        /* \"#utility.yul\":2227:2237   */\n      dup2\n        /* \"#utility.yul\":2224:2246   */\n      lt\n        /* \"#utility.yul\":2203:2221   */\n      0xffffffffffffffff\n        /* \"#utility.yul\":2191:2201   */\n      dup3\n        /* \"#utility.yul\":2188:2222   */\n      gt\n        /* \"#utility.yul\":2185:2247   */\n      or\n        /* \"#utility.yul\":2182:2270   */\n      iszero\n      tag_82\n      jumpi\n        /* \"#utility.yul\":2250:2268   */\n      tag_83\n      tag_45\n      jump\t// in\n    tag_83:\n        /* \"#utility.yul\":2182:2270   */\n    tag_82:\n        /* \"#utility.yul\":2290:2300   */\n      dup1\n        /* \"#utility.yul\":2286:2288   */\n      0x40\n        /* \"#utility.yul\":2279:2301   */\n      mstore\n        /* \"#utility.yul\":2069:2307   */\n      pop\n        /* \"#utility.yul\":2026:2307   */\n      pop\n      pop\n      jump\t// out\n        /* \"#utility.yul\":2313:2442   */\n    tag_47:\n        /* \"#utility.yul\":2347:2353   */\n      0x00\n        /* \"#utility.yul\":2374:2394   */\n      tag_85\n      tag_39\n      jump\t// in\n    tag_85:\n        /* \"#utility.yul\":2364:2394   */\n      swap1\n      pop\n        /* \"#utility.yul\":2403:2436   */\n      tag_86\n        /* \"#utility.yul\":2431:2435   */\n      dup3\n        /* \"#utility.yul\":2423:2429   */\n      dup3\n        /* \"#utility.yul\":2403:2436   */\n      tag_46\n      jump\t// in\n    tag_86:\n        /* \"#utility.yul\":2313:2442   */\n      swap2\n      swap1\n      pop\n      jump\t// out\n        /* \"#utility.yul\":2448:2756   */\n    tag_48:\n        /* \"#utility.yul\":2510:2514   */\n      0x00\n        /* \"#utility.yul\":2600:2618   */\n      0xffffffffffffffff\n        /* \"#utility.yul\":2592:2598   */\n      dup3\n        /* \"#utility.yul\":2589:2619   */\n      gt\n        /* \"#utility.yul\":2586:2642   */\n      iszero\n      tag_88\n      jumpi\n        /* \"#utility.yul\":2622:2640   */\n      tag_89\n      tag_45\n      jump\t// in\n    tag_89:\n        /* \"#utility.yul\":2586:2642   */\n    tag_88:\n        /* \"#utility.yul\":2660:2689   */\n      tag_90\n        /* \"#utility.yul\":2682:2688   */\n      dup3\n        /* \"#utility.yul\":2660:2689   */\n      tag_44\n      jump\t// in\n    tag_90:\n        /* \"#utility.yul\":2652:2689   */\n      swap1\n      pop\n        /* \"#utility.yul\":2744:2748   */\n      0x20\n        /* \"#utility.yul\":2738:2742   */\n      dup2\n        /* \"#utility.yul\":2734:2749   */\n      add\n        /* \"#utility.yul\":2726:2749   */\n      swap1\n      pop\n        /* \"#utility.yul\":2448:2756   */\n      swap2\n      swap1\n      pop\n      jump\t// out\n        /* \"#utility.yul\":2762:2908   */\n    tag_49:\n        /* \"#utility.yul\":2859:2865   */\n      dup3\n        /* \"#utility.yul\":2854:2857   */\n      dup2\n        /* \"#utility.yul\":2849:2852   */\n      dup4\n        /* \"#utility.yul\":2836:2866   */\n      calldatacopy\n        /* \"#utility.yul\":2900:2901   */\n      0x00\n        /* \"#utility.yul\":2891:2897   */\n      dup4\n        /* \"#utility.yul\":2886:2889   */\n      dup4\n        /* \"#utility.yul\":2882:2898   */\n      add\n        /* \"#utility.yul\":2875:2902   */\n      mstore\n        /* \"#utility.yul\":2762:2908   */\n      pop\n      pop\n      pop\n      jump\t// out\n        /* \"#utility.yul\":2914:3339   */\n    tag_50:\n        /* \"#utility.yul\":2992:2997   */\n      0x00\n        /* \"#utility.yul\":3017:3083   */\n      tag_93\n        /* \"#utility.yul\":3033:3082   */\n      tag_94\n        /* \"#utility.yul\":3075:3081   */\n      dup5\n        /* \"#utility.yul\":3033:3082   */\n      tag_48\n      jump\t// in\n    tag_94:\n        /* \"#utility.yul\":3017:3083   */\n      tag_47\n      jump\t// in\n    tag_93:\n        /* \"#utility.yul\":3008:3083   */\n      swap1\n      pop\n        /* \"#utility.yul\":3106:3112   */\n      dup3\n        /* \"#utility.yul\":3099:3104   */\n      dup2\n        /* \"#utility.yul\":3092:3113   */\n      mstore\n        /* \"#utility.yul\":3144:3148   */\n      0x20\n        /* \"#utility.yul\":3137:3142   */\n      dup2\n        /* \"#utility.yul\":3133:3149   */\n      add\n        /* \"#utility.yul\":3182:3185   */\n      dup5\n        /* \"#utility.yul\":3173:3179   */\n      dup5\n        /* \"#utility.yul\":3168:3171   */\n      dup5\n        /* \"#utility.yul\":3164:3180   */\n      add\n        /* \"#utility.yul\":3161:3186   */\n      gt\n        /* \"#utility.yul\":3158:3270   */\n      iszero\n      tag_95\n      jumpi\n        /* \"#utility.yul\":3189:3268   */\n      tag_96\n      tag_43\n      jump\t// in\n    tag_96:\n        /* \"#utility.yul\":3158:3270   */\n    tag_95:\n        /* \"#utility.yul\":3279:3333   */\n      tag_97\n        /* \"#utility.yul\":3326:3332   */\n      dup5\n        /* \"#utility.yul\":3321:3324   */\n      dup3\n        /* \"#utility.yul\":3316:3319   */\n      dup6\n        /* \"#utility.yul\":3279:3333   */\n      tag_49\n      jump\t// in\n    tag_97:\n        /* \"#utility.yul\":2998:3339   */\n      pop\n        /* \"#utility.yul\":2914:3339   */\n      swap4\n      swap3\n      pop\n      pop\n      pop\n      jump\t// out\n        /* \"#utility.yul\":3359:3699   */\n    tag_51:\n        /* \"#utility.yul\":3415:3420   */\n      0x00\n        /* \"#utility.yul\":3464:3467   */\n      dup3\n        /* \"#utility.yul\":3457:3461   */\n      0x1f\n        /* \"#utility.yul\":3449:3455   */\n      dup4\n        /* \"#utility.yul\":3445:3462   */\n      add\n        /* \"#utility.yul\":3441:3468   */\n      slt\n        /* \"#utility.yul\":3431:3553   */\n      tag_99\n      jumpi\n        /* \"#utility.yul\":3472:3551   */\n      tag_100\n      tag_42\n      jump\t// in\n    tag_100:\n        /* \"#utility.yul\":3431:3553   */\n    tag_99:\n        /* \"#utility.yul\":3589:3595   */\n      dup2\n        /* \"#utility.yul\":3576:3596   */\n      calldataload\n        /* \"#utility.yul\":3614:3693   */\n      tag_101\n        /* \"#utility.yul\":3689:3692   */\n      dup5\n        /* \"#utility.yul\":3681:3687   */\n      dup3\n        /* \"#utility.yul\":3674:3678   */\n      0x20\n        /* \"#utility.yul\":3666:3672   */\n      dup7\n        /* \"#utility.yul\":3662:3679   */\n      add\n        /* \"#utility.yul\":3614:3693   */\n      tag_50\n      jump\t// in\n    tag_101:\n        /* \"#utility.yul\":3605:3693   */\n      swap2\n      pop\n        /* \"#utility.yul\":3421:3699   */\n      pop\n        /* \"#utility.yul\":3359:3699   */\n      swap3\n      swap2\n      pop\n      pop\n      jump\t// out\n        /* \"#utility.yul\":3705:3831   */\n    tag_52:\n        /* \"#utility.yul\":3742:3749   */\n      0x00\n        /* \"#utility.yul\":3782:3824   */\n      0xffffffffffffffffffffffffffffffffffffffff\n        /* \"#utility.yul\":3775:3780   */\n      dup3\n        /* \"#utility.yul\":3771:3825   */\n      and\n        /* \"#utility.yul\":3760:3825   */\n      swap1\n      pop\n        /* \"#utility.yul\":3705:3831   */\n      swap2\n      swap1\n      pop\n      jump\t// out\n        /* \"#utility.yul\":3837:3933   */\n    tag_53:\n        /* \"#utility.yul\":3874:3881   */\n      0x00\n        /* \"#utility.yul\":3903:3927   */\n      tag_104\n        /* \"#utility.yul\":3921:3926   */\n      dup3\n        /* \"#utility.yul\":3903:3927   */\n      tag_52\n      jump\t// in\n    tag_104:\n        /* \"#utility.yul\":3892:3927   */\n      swap1\n      pop\n        /* \"#utility.yul\":3837:3933   */\n      swap2\n      swap1\n      pop\n      jump\t// out\n        /* \"#utility.yul\":3939:4061   */\n    tag_54:\n        /* \"#utility.yul\":4012:4036   */\n      tag_106\n        /* \"#utility.yul\":4030:4035   */\n      dup2\n        /* \"#utility.yul\":4012:4036   */\n      tag_53\n      jump\t// in\n    tag_106:\n        /* \"#utility.yul\":4005:4010   */\n      dup2\n        /* \"#utility.yul\":4002:4037   */\n      eq\n        /* \"#utility.yul\":3992:4055   */\n      tag_107\n      jumpi\n        /* \"#utility.yul\":4051:4052   */\n      0x00\n        /* \"#utility.yul\":4048:4049   */\n      dup1\n        /* \"#utility.yul\":4041:4053   */\n      revert\n        /* \"#utility.yul\":3992:4055   */\n    tag_107:\n        /* \"#utility.yul\":3939:4061   */\n      pop\n      jump\t// out\n        /* \"#utility.yul\":4067:4206   */\n    tag_55:\n        /* \"#utility.yul\":4113:4118   */\n      0x00\n        /* \"#utility.yul\":4151:4157   */\n      dup2\n        /* \"#utility.yul\":4138:4158   */\n      calldataload\n        /* \"#utility.yul\":4129:4158   */\n      swap1\n      pop\n        /* \"#utility.yul\":4167:4200   */\n      tag_109\n        /* \"#utility.yul\":4194:4199   */\n      dup2\n        /* \"#utility.yul\":4167:4200   */\n      tag_54\n      jump\t// in\n    tag_109:\n        /* \"#utility.yul\":4067:4206   */\n      swap3\n      swap2\n      pop\n      pop\n      jump\t// out\n        /* \"#utility.yul\":4212:4866   */\n    tag_17:\n        /* \"#utility.yul\":4290:4296   */\n      0x00\n        /* \"#utility.yul\":4298:4304   */\n      dup1\n        /* \"#utility.yul\":4347:4349   */\n      0x40\n        /* \"#utility.yul\":4335:4344   */\n      dup4\n        /* \"#utility.yul\":4326:4333   */\n      dup6\n        /* \"#utility.yul\":4322:4345   */\n      sub\n        /* \"#utility.yul\":4318:4350   */\n      slt\n        /* \"#utility.yul\":4315:4434   */\n      iszero\n      tag_111\n      jumpi\n        /* \"#utility.yul\":4353:4432   */\n      tag_112\n      tag_40\n      jump\t// in\n    tag_112:\n        /* \"#utility.yul\":4315:4434   */\n    tag_111:\n        /* \"#utility.yul\":4501:4502   */\n      0x00\n        /* \"#utility.yul\":4490:4499   */\n      dup4\n        /* \"#utility.yul\":4486:4503   */\n      add\n        /* \"#utility.yul\":4473:4504   */\n      calldataload\n        /* \"#utility.yul\":4531:4549   */\n      0xffffffffffffffff\n        /* \"#utility.yul\":4523:4529   */\n      dup2\n        /* \"#utility.yul\":4520:4550   */\n      gt\n        /* \"#utility.yul\":4517:4634   */\n      iszero\n      tag_113\n      jumpi\n        /* \"#utility.yul\":4553:4632   */\n      tag_114\n      tag_41\n      jump\t// in\n    tag_114:\n        /* \"#utility.yul\":4517:4634   */\n    tag_113:\n        /* \"#utility.yul\":4658:4721   */\n      tag_115\n        /* \"#utility.yul\":4713:4720   */\n      dup6\n        /* \"#utility.yul\":4704:4710   */\n      dup3\n        /* \"#utility.yul\":4693:4702   */\n      dup7\n        /* \"#utility.yul\":4689:4711   */\n      add\n        /* \"#utility.yul\":4658:4721   */\n      tag_51\n      jump\t// in\n    tag_115:\n        /* \"#utility.yul\":4648:4721   */\n      swap3\n      pop\n        /* \"#utility.yul\":4444:4731   */\n      pop\n        /* \"#utility.yul\":4770:4772   */\n      0x20\n        /* \"#utility.yul\":4796:4849   */\n      tag_116\n        /* \"#utility.yul\":4841:4848   */\n      dup6\n        /* \"#utility.yul\":4832:4838   */\n      dup3\n        /* \"#utility.yul\":4821:4830   */\n      dup7\n        /* \"#utility.yul\":4817:4839   */\n      add\n        /* \"#utility.yul\":4796:4849   */\n      tag_55\n      jump\t// in\n    tag_116:\n        /* \"#utility.yul\":4786:4849   */\n      swap2\n      pop\n        /* \"#utility.yul\":4741:4859   */\n      pop\n        /* \"#utility.yul\":4212:4866   */\n      swap3\n      pop\n      swap3\n      swap1\n      pop\n      jump\t// out\n        /* \"#utility.yul\":4872:5021   */\n    tag_56:\n        /* \"#utility.yul\":4908:4915   */\n      0x00\n        /* \"#utility.yul\":4948:5014   */\n      0xffffffff00000000000000000000000000000000000000000000000000000000\n        /* \"#utility.yul\":4941:4946   */\n      dup3\n        /* \"#utility.yul\":4937:5015   */\n      and\n        /* \"#utility.yul\":4926:5015   */\n      swap1\n      pop\n        /* \"#utility.yul\":4872:5021   */\n      swap2\n      swap1\n      pop\n      jump\t// out\n        /* \"#utility.yul\":5027:5147   */\n    tag_57:\n        /* \"#utility.yul\":5099:5122   */\n      tag_119\n        /* \"#utility.yul\":5116:5121   */\n      dup2\n        /* \"#utility.yul\":5099:5122   */\n      tag_56\n      jump\t// in\n    tag_119:\n        /* \"#utility.yul\":5092:5097   */\n      dup2\n        /* \"#utility.yul\":5089:5123   */\n      eq\n        /* \"#utility.yul\":5079:5141   */\n      tag_120\n      jumpi\n        /* \"#utility.yul\":5137:5138   */\n      0x00\n        /* \"#utility.yul\":5134:5135   */\n      dup1\n        /* \"#utility.yul\":5127:5139   */\n      revert\n        /* \"#utility.yul\":5079:5141   */\n    tag_120:\n        /* \"#utility.yul\":5027:5147   */\n      pop\n      jump\t// out\n        /* \"#utility.yul\":5153:5290   */\n    tag_58:\n        /* \"#utility.yul\":5198:5203   */\n      0x00\n        /* \"#utility.yul\":5236:5242   */\n      dup2\n        /* \"#utility.yul\":5223:5243   */\n      calldataload\n        /* \"#utility.yul\":5214:5243   */\n      swap1\n      pop\n        /* \"#utility.yul\":5252:5284   */\n      tag_122\n        /* \"#utility.yul\":5278:5283   */\n      dup2\n        /* \"#utility.yul\":5252:5284   */\n      tag_57\n      jump\t// in\n    tag_122:\n        /* \"#utility.yul\":5153:5290   */\n      swap3\n      swap2\n      pop\n      pop\n      jump\t// out\n        /* \"#utility.yul\":5296:5623   */\n    tag_22:\n        /* \"#utility.yul\":5354:5360   */\n      0x00\n        /* \"#utility.yul\":5403:5405   */\n      0x20\n        /* \"#utility.yul\":5391:5400   */\n      dup3\n        /* \"#utility.yul\":5382:5389   */\n      dup5\n        /* \"#utility.yul\":5378:5401   */\n      sub\n        /* \"#utility.yul\":5374:5406   */\n      slt\n        /* \"#utility.yul\":5371:5490   */\n      iszero\n      tag_124\n      jumpi\n        /* \"#utility.yul\":5409:5488   */\n      tag_125\n      tag_40\n      jump\t// in\n    tag_125:\n        /* \"#utility.yul\":5371:5490   */\n    tag_124:\n        /* \"#utility.yul\":5529:5530   */\n      0x00\n        /* \"#utility.yul\":5554:5606   */\n      tag_126\n        /* \"#utility.yul\":5598:5605   */\n      dup5\n        /* \"#utility.yul\":5589:5595   */\n      dup3\n        /* \"#utility.yul\":5578:5587   */\n      dup6\n        /* \"#utility.yul\":5574:5596   */\n      add\n        /* \"#utility.yul\":5554:5606   */\n      tag_58\n      jump\t// in\n    tag_126:\n        /* \"#utility.yul\":5544:5606   */\n      swap2\n      pop\n        /* \"#utility.yul\":5500:5616   */\n      pop\n        /* \"#utility.yul\":5296:5623   */\n      swap3\n      swap2\n      pop\n      pop\n      jump\t// out\n        /* \"#utility.yul\":5629:5747   */\n    tag_59:\n        /* \"#utility.yul\":5716:5740   */\n      tag_128\n        /* \"#utility.yul\":5734:5739   */\n      dup2\n        /* \"#utility.yul\":5716:5740   */\n      tag_53\n      jump\t// in\n    tag_128:\n        /* \"#utility.yul\":5711:5714   */\n      dup3\n        /* \"#utility.yul\":5704:5741   */\n      mstore\n        /* \"#utility.yul\":5629:5747   */\n      pop\n      pop\n      jump\t// out\n        /* \"#utility.yul\":5753:5975   */\n    tag_25:\n        /* \"#utility.yul\":5846:5850   */\n      0x00\n        /* \"#utility.yul\":5884:5886   */\n      0x20\n        /* \"#utility.yul\":5873:5882   */\n      dup3\n        /* \"#utility.yul\":5869:5887   */\n      add\n        /* \"#utility.yul\":5861:5887   */\n      swap1\n      pop\n        /* \"#utility.yul\":5897:5968   */\n      tag_130\n        /* \"#utility.yul\":5965:5966   */\n      0x00\n        /* \"#utility.yul\":5954:5963   */\n      dup4\n        /* \"#utility.yul\":5950:5967   */\n      add\n        /* \"#utility.yul\":5941:5947   */\n      dup5\n        /* \"#utility.yul\":5897:5968   */\n      tag_59\n      jump\t// in\n    tag_130:\n        /* \"#utility.yul\":5753:5975   */\n      swap3\n      swap2\n      pop\n      pop\n      jump\t// out\n        /* \"#utility.yul\":5981:6080   */\n    tag_60:\n        /* \"#utility.yul\":6033:6039   */\n      0x00\n        /* \"#utility.yul\":6067:6072   */\n      dup2\n        /* \"#utility.yul\":6061:6073   */\n      mload\n        /* \"#utility.yul\":6051:6073   */\n      swap1\n      pop\n        /* \"#utility.yul\":5981:6080   */\n      swap2\n      swap1\n      pop\n      jump\t// out\n        /* \"#utility.yul\":6086:6263   */\n    tag_61:\n        /* \"#utility.yul\":6178:6189   */\n      0x00\n        /* \"#utility.yul\":6212:6218   */\n      dup3\n        /* \"#utility.yul\":6207:6210   */\n      dup3\n        /* \"#utility.yul\":6200:6219   */\n      mstore\n        /* \"#utility.yul\":6252:6256   */\n      0x20\n        /* \"#utility.yul\":6247:6250   */\n      dup3\n        /* \"#utility.yul\":6243:6257   */\n      add\n        /* \"#utility.yul\":6228:6257   */\n      swap1\n      pop\n        /* \"#utility.yul\":6086:6263   */\n      swap3\n      swap2\n      pop\n      pop\n      jump\t// out\n        /* \"#utility.yul\":6269:6515   */\n    tag_62:\n        /* \"#utility.yul\":6350:6351   */\n      0x00\n        /* \"#utility.yul\":6360:6473   */\n    tag_134:\n        /* \"#utility.yul\":6374:6380   */\n      dup4\n        /* \"#utility.yul\":6371:6372   */\n      dup2\n        /* \"#utility.yul\":6368:6381   */\n      lt\n        /* \"#utility.yul\":6360:6473   */\n      iszero\n      tag_136\n      jumpi\n        /* \"#utility.yul\":6459:6460   */\n      dup1\n        /* \"#utility.yul\":6454:6457   */\n      dup3\n        /* \"#utility.yul\":6450:6461   */\n      add\n        /* \"#utility.yul\":6444:6462   */\n      mload\n        /* \"#utility.yul\":6440:6441   */\n      dup2\n        /* \"#utility.yul\":6435:6438   */\n      dup5\n        /* \"#utility.yul\":6431:6442   */\n      add\n        /* \"#utility.yul\":6424:6463   */\n      mstore\n        /* \"#utility.yul\":6396:6398   */\n      0x20\n        /* \"#utility.yul\":6393:6394   */\n      dup2\n        /* \"#utility.yul\":6389:6399   */\n      add\n        /* \"#utility.yul\":6384:6399   */\n      swap1\n      pop\n        /* \"#utility.yul\":6360:6473   */\n      jump(tag_134)\n    tag_136:\n        /* \"#utility.yul\":6507:6508   */\n      0x00\n        /* \"#utility.yul\":6498:6504   */\n      dup5\n        /* \"#utility.yul\":6493:6496   */\n      dup5\n        /* \"#utility.yul\":6489:6505   */\n      add\n        /* \"#utility.yul\":6482:6509   */\n      mstore\n        /* \"#utility.yul\":6331:6515   */\n      pop\n        /* \"#utility.yul\":6269:6515   */\n      pop\n      pop\n      pop\n      jump\t// out\n        /* \"#utility.yul\":6521:6914   */\n    tag_63:\n        /* \"#utility.yul\":6617:6620   */\n      0x00\n        /* \"#utility.yul\":6645:6684   */\n      tag_138\n        /* \"#utility.yul\":6678:6683   */\n      dup3\n        /* \"#utility.yul\":6645:6684   */\n      tag_60\n      jump\t// in\n    tag_138:\n        /* \"#utility.yul\":6700:6779   */\n      tag_139\n        /* \"#utility.yul\":6772:6778   */\n      dup2\n        /* \"#utility.yul\":6767:6770   */\n      dup6\n        /* \"#utility.yul\":6700:6779   */\n      tag_61\n      jump\t// in\n    tag_139:\n        /* \"#utility.yul\":6693:6779   */\n      swap4\n      pop\n        /* \"#utility.yul\":6788:6853   */\n      tag_140\n        /* \"#utility.yul\":6846:6852   */\n      dup2\n        /* \"#utility.yul\":6841:6844   */\n      dup6\n        /* \"#utility.yul\":6834:6838   */\n      0x20\n        /* \"#utility.yul\":6827:6832   */\n      dup7\n        /* \"#utility.yul\":6823:6839   */\n      add\n        /* \"#utility.yul\":6788:6853   */\n      tag_62\n      jump\t// in\n    tag_140:\n        /* \"#utility.yul\":6878:6907   */\n      tag_141\n        /* \"#utility.yul\":6900:6906   */\n      dup2\n        /* \"#utility.yul\":6878:6907   */\n      tag_44\n      jump\t// in\n    tag_141:\n        /* \"#utility.yul\":6873:6876   */\n      dup5\n        /* \"#utility.yul\":6869:6908   */\n      add\n        /* \"#utility.yul\":6862:6908   */\n      swap2\n      pop\n        /* \"#utility.yul\":6621:6914   */\n      pop\n        /* \"#utility.yul\":6521:6914   */\n      swap3\n      swap2\n      pop\n      pop\n      jump\t// out\n        /* \"#utility.yul\":6920:7249   */\n    tag_31:\n        /* \"#utility.yul\":7041:7045   */\n      0x00\n        /* \"#utility.yul\":7079:7081   */\n      0x20\n        /* \"#utility.yul\":7068:7077   */\n      dup3\n        /* \"#utility.yul\":7064:7082   */\n      add\n        /* \"#utility.yul\":7056:7082   */\n      swap1\n      pop\n        /* \"#utility.yul\":7128:7137   */\n      dup2\n        /* \"#utility.yul\":7122:7126   */\n      dup2\n        /* \"#utility.yul\":7118:7138   */\n      sub\n        /* \"#utility.yul\":7114:7115   */\n      0x00\n        /* \"#utility.yul\":7103:7112   */\n      dup4\n        /* \"#utility.yul\":7099:7116   */\n      add\n        /* \"#utility.yul\":7092:7139   */\n      mstore\n        /* \"#utility.yul\":7156:7242   */\n      tag_143\n        /* \"#utility.yul\":7237:7241   */\n      dup2\n        /* \"#utility.yul\":7228:7234   */\n      dup5\n        /* \"#utility.yul\":7156:7242   */\n      tag_63\n      jump\t// in\n    tag_143:\n        /* \"#utility.yul\":7148:7242   */\n      swap1\n      pop\n        /* \"#utility.yul\":6920:7249   */\n      swap3\n      swap2\n      pop\n      pop\n      jump\t// out\n        /* \"#utility.yul\":7255:7396   */\n    tag_64:\n        /* \"#utility.yul\":7311:7316   */\n      0x00\n        /* \"#utility.yul\":7342:7348   */\n      dup2\n        /* \"#utility.yul\":7336:7349   */\n      mload\n        /* \"#utility.yul\":7327:7349   */\n      swap1\n      pop\n        /* \"#utility.yul\":7358:7390   */\n      tag_145\n        /* \"#utility.yul\":7384:7389   */\n      dup2\n        /* \"#utility.yul\":7358:7390   */\n      tag_57\n      jump\t// in\n    tag_145:\n        /* \"#utility.yul\":7255:7396   */\n      swap3\n      swap2\n      pop\n      pop\n      jump\t// out\n        /* \"#utility.yul\":7402:7751   */\n    tag_35:\n        /* \"#utility.yul\":7471:7477   */\n      0x00\n        /* \"#utility.yul\":7520:7522   */\n      0x20\n        /* \"#utility.yul\":7508:7517   */\n      dup3\n        /* \"#utility.yul\":7499:7506   */\n      dup5\n        /* \"#utility.yul\":7495:7518   */\n      sub\n        /* \"#utility.yul\":7491:7523   */\n      slt\n        /* \"#utility.yul\":7488:7607   */\n      iszero\n      tag_147\n      jumpi\n        /* \"#utility.yul\":7526:7605   */\n      tag_148\n      tag_40\n      jump\t// in\n    tag_148:\n        /* \"#utility.yul\":7488:7607   */\n    tag_147:\n        /* \"#utility.yul\":7646:7647   */\n      0x00\n        /* \"#utility.yul\":7671:7734   */\n      tag_149\n        /* \"#utility.yul\":7726:7733   */\n      dup5\n        /* \"#utility.yul\":7717:7723   */\n      dup3\n        /* \"#utility.yul\":7706:7715   */\n      dup6\n        /* \"#utility.yul\":7702:7724   */\n      add\n        /* \"#utility.yul\":7671:7734   */\n      tag_64\n      jump\t// in\n    tag_149:\n        /* \"#utility.yul\":7661:7734   */\n      swap2\n      pop\n        /* \"#utility.yul\":7617:7744   */\n      pop\n        /* \"#utility.yul\":7402:7751   */\n      swap3\n      swap2\n      pop\n      pop\n      jump\t// out\n\n    auxdata: 0xa2646970667358221220f630fbe03ebc55eee131c100f56d7039dc5b91dcdfc03b9c38e15f907193005c64736f6c63430008180033\n}\n",
				"bytecode": {
					"linkReferences": {
						"wasser/registry.sol": {
							"Byt": [
								{
									"length": 20,
									"start": 988
								}
							],
							"StorageSlot": [
								{
									"length": 20,
									"start": 39
								}
							]
						}
					},
					"object": "608060405234801561000f575f80fd5b5061001f3361002460201b60201c565b610209565b8073__$f51207402882d2f98d3fa15877cadd0469$__63e8ff0b1d60017fb53127684a568b3173ae13b9f8a6016e243e63b6e8ee1178d6a717850b5d61045f1c61006e9190610143565b5f1b6040518263ffffffff1660e01b815260040161008c919061018e565b602060405180830381865af41580156100a7573d5f803e3d5ffd5b505050506040513d601f19601f820116820180604052508101906100cb91906101de565b5f015f6101000a81548173ffffffffffffffffffffffffffffffffffffffff021916908373ffffffffffffffffffffffffffffffffffffffff16021790555050565b5f819050919050565b7f4e487b71000000000000000000000000000000000000000000000000000000005f52601160045260245ffd5b5f61014d8261010d565b91506101588361010d565b92508282039050818111156101705761016f610116565b5b92915050565b5f819050919050565b61018881610176565b82525050565b5f6020820190506101a15f83018461017f565b92915050565b5f80fd5b5f819050919050565b6101bd816101ab565b81146101c7575f80fd5b50565b5f815190506101d8816101b4565b92915050565b5f602082840312156101f3576101f26101a7565b5b5f610200848285016101ca565b91505092915050565b61072c806102165f395ff3fe60806040526004361061002c575f3560e01c806306419fe514610140578063e91db8e51461016857610033565b3661003357005b5f805f80357fffffffff00000000000000000000000000000000000000000000000000000000167bffffffffffffffffffffffffffffffffffffffffffffffffffffffff19167bffffffffffffffffffffffffffffffffffffffffffffffffffffffff191681526020019081526020015f205f9054906101000a900473ffffffffffffffffffffffffffffffffffffffff1690505f73ffffffffffffffffffffffffffffffffffffffff168173ffffffffffffffffffffffffffffffffffffffff1603610135576040517f08c379a000000000000000000000000000000000000000000000000000000000815260040161012c90610356565b60405180910390fd5b61013e816101a4565b005b34801561014b575f80fd5b506101666004803603810190610161919061051b565b6101c3565b005b348015610173575f80fd5b5061018e600480360381019061018991906105ca565b6102cd565b60405161019b9190610604565b60405180910390f35b365f80375f80365f845af43d5f803e805f81146101bf573d5ff35b3d5ffd5b5f73__$87ea436f10a21ab2d7daa6ea4b7ccde175$__6396c79577846040518263ffffffff1660e01b81526004016101fb9190610697565b602060405180830381865af4158015610216573d5f803e3d5ffd5b505050506040513d601f19601f8201168201806040525081019061023a91906106cb565b9050815f80837bffffffffffffffffffffffffffffffffffffffffffffffffffffffff19167bffffffffffffffffffffffffffffffffffffffffffffffffffffffff191681526020019081526020015f205f6101000a81548173ffffffffffffffffffffffffffffffffffffffff021916908373ffffffffffffffffffffffffffffffffffffffff160217905550505050565b5f602052805f5260405f205f915054906101000a900473ffffffffffffffffffffffffffffffffffffffff1681565b5f82825260208201905092915050565b7f496d706c656d656e746174696f6e206e6f7420666f756e6400000000000000005f82015250565b5f6103406018836102fc565b915061034b8261030c565b602082019050919050565b5f6020820190508181035f83015261036d81610334565b9050919050565b5f604051905090565b5f80fd5b5f80fd5b5f80fd5b5f80fd5b5f601f19601f8301169050919050565b7f4e487b71000000000000000000000000000000000000000000000000000000005f52604160045260245ffd5b6103d38261038d565b810181811067ffffffffffffffff821117156103f2576103f161039d565b5b80604052505050565b5f610404610374565b905061041082826103ca565b919050565b5f67ffffffffffffffff82111561042f5761042e61039d565b5b6104388261038d565b9050602081019050919050565b828183375f83830152505050565b5f61046561046084610415565b6103fb565b90508281526020810184848401111561048157610480610389565b5b61048c848285610445565b509392505050565b5f82601f8301126104a8576104a7610385565b5b81356104b8848260208601610453565b91505092915050565b5f73ffffffffffffffffffffffffffffffffffffffff82169050919050565b5f6104ea826104c1565b9050919050565b6104fa816104e0565b8114610504575f80fd5b50565b5f81359050610515816104f1565b92915050565b5f80604083850312156105315761053061037d565b5b5f83013567ffffffffffffffff81111561054e5761054d610381565b5b61055a85828601610494565b925050602061056b85828601610507565b9150509250929050565b5f7fffffffff0000000000000000000000000000000000000000000000000000000082169050919050565b6105a981610575565b81146105b3575f80fd5b50565b5f813590506105c4816105a0565b92915050565b5f602082840312156105df576105de61037d565b5b5f6105ec848285016105b6565b91505092915050565b6105fe816104e0565b82525050565b5f6020820190506106175f8301846105f5565b92915050565b5f81519050919050565b5f82825260208201905092915050565b5f5b83811015610654578082015181840152602081019050610639565b5f8484015250505050565b5f6106698261061d565b6106738185610627565b9350610683818560208601610637565b61068c8161038d565b840191505092915050565b5f6020820190508181035f8301526106af818461065f565b905092915050565b5f815190506106c5816105a0565b92915050565b5f602082840312156106e0576106df61037d565b5b5f6106ed848285016106b7565b9150509291505056fea2646970667358221220f630fbe03ebc55eee131c100f56d7039dc5b91dcdfc03b9c38e15f907193005c64736f6c63430008180033",
					"opcodes": "PUSH1 0x80 PUSH1 0x40 MSTORE CALLVALUE DUP1 ISZERO PUSH2 0xF JUMPI PUSH0 DUP1 REVERT JUMPDEST POP PUSH2 0x1F CALLER PUSH2 0x24 PUSH1 0x20 SHL PUSH1 0x20 SHR JUMP JUMPDEST PUSH2 0x209 JUMP JUMPDEST DUP1 PUSH20 0x0 PUSH4 0xE8FF0B1D PUSH1 0x1 PUSH32 0xB53127684A568B3173AE13B9F8A6016E243E63B6E8EE1178D6A717850B5D6104 PUSH0 SHR PUSH2 0x6E SWAP2 SWAP1 PUSH2 0x143 JUMP JUMPDEST PUSH0 SHL PUSH1 0x40 MLOAD DUP3 PUSH4 0xFFFFFFFF AND PUSH1 0xE0 SHL DUP2 MSTORE PUSH1 0x4 ADD PUSH2 0x8C SWAP2 SWAP1 PUSH2 0x18E JUMP JUMPDEST PUSH1 0x20 PUSH1 0x40 MLOAD DUP1 DUP4 SUB DUP2 DUP7 GAS DELEGATECALL ISZERO DUP1 ISZERO PUSH2 0xA7 JUMPI RETURNDATASIZE PUSH0 DUP1 RETURNDATACOPY RETURNDATASIZE PUSH0 REVERT JUMPDEST POP POP POP POP PUSH1 0x40 MLOAD RETURNDATASIZE PUSH1 0x1F NOT PUSH1 0x1F DUP3 ADD AND DUP3 ADD DUP1 PUSH1 0x40 MSTORE POP DUP2 ADD SWAP1 PUSH2 0xCB SWAP2 SWAP1 PUSH2 0x1DE JUMP JUMPDEST PUSH0 ADD PUSH0 PUSH2 0x100 EXP DUP2 SLOAD DUP2 PUSH20 0xFFFFFFFFFFFFFFFFFFFFFFFFFFFFFFFFFFFFFFFF MUL NOT AND SWAP1 DUP4 PUSH20 0xFFFFFFFFFFFFFFFFFFFFFFFFFFFFFFFFFFFFFFFF AND MUL OR SWAP1 SSTORE POP POP JUMP JUMPDEST PUSH0 DUP2 SWAP1 POP SWAP2 SWAP1 POP JUMP JUMPDEST PUSH32 0x4E487B7100000000000000000000000000000000000000000000000000000000 PUSH0 MSTORE PUSH1 0x11 PUSH1 0x4 MSTORE PUSH1 0x24 PUSH0 REVERT JUMPDEST PUSH0 PUSH2 0x14D DUP3 PUSH2 0x10D JUMP JUMPDEST SWAP2 POP PUSH2 0x158 DUP4 PUSH2 0x10D JUMP JUMPDEST SWAP3 POP DUP3 DUP3 SUB SWAP1 POP DUP2 DUP2 GT ISZERO PUSH2 0x170 JUMPI PUSH2 0x16F PUSH2 0x116 JUMP JUMPDEST JUMPDEST SWAP3 SWAP2 POP POP JUMP JUMPDEST PUSH0 DUP2 SWAP1 POP SWAP2 SWAP1 POP JUMP JUMPDEST PUSH2 0x188 DUP2 PUSH2 0x176 JUMP JUMPDEST DUP3 MSTORE POP POP JUMP JUMPDEST PUSH0 PUSH1 0x20 DUP3 ADD SWAP1 POP PUSH2 0x1A1 PUSH0 DUP4 ADD DUP5 PUSH2 0x17F JUMP JUMPDEST SWAP3 SWAP2 POP POP JUMP JUMPDEST PUSH0 DUP1 REVERT JUMPDEST PUSH0 DUP2 SWAP1 POP SWAP2 SWAP1 POP JUMP JUMPDEST PUSH2 0x1BD DUP2 PUSH2 0x1AB JUMP JUMPDEST DUP2 EQ PUSH2 0x1C7 JUMPI PUSH0 DUP1 REVERT JUMPDEST POP JUMP JUMPDEST PUSH0 DUP2 MLOAD SWAP1 POP PUSH2 0x1D8 DUP2 PUSH2 0x1B4 JUMP JUMPDEST SWAP3 SWAP2 POP POP JUMP JUMPDEST PUSH0 PUSH1 0x20 DUP3 DUP5 SUB SLT ISZERO PUSH2 0x1F3 JUMPI PUSH2 0x1F2 PUSH2 0x1A7 JUMP JUMPDEST JUMPDEST PUSH0 PUSH2 0x200 DUP5 DUP3 DUP6 ADD PUSH2 0x1CA JUMP JUMPDEST SWAP2 POP POP SWAP3 SWAP2 POP POP JUMP JUMPDEST PUSH2 0x72C DUP1 PUSH2 0x216 PUSH0 CODECOPY PUSH0 RETURN INVALID PUSH1 0x80 PUSH1 0x40 MSTORE PUSH1 0x4 CALLDATASIZE LT PUSH2 0x2C JUMPI PUSH0 CALLDATALOAD PUSH1 0xE0 SHR DUP1 PUSH4 0x6419FE5 EQ PUSH2 0x140 JUMPI DUP1 PUSH4 0xE91DB8E5 EQ PUSH2 0x168 JUMPI PUSH2 0x33 JUMP JUMPDEST CALLDATASIZE PUSH2 0x33 JUMPI STOP JUMPDEST PUSH0 DUP1 PUSH0 DUP1 CALLDATALOAD PUSH32 0xFFFFFFFF00000000000000000000000000000000000000000000000000000000 AND PUSH28 0xFFFFFFFFFFFFFFFFFFFFFFFFFFFFFFFFFFFFFFFFFFFFFFFFFFFFFFFF NOT AND PUSH28 0xFFFFFFFFFFFFFFFFFFFFFFFFFFFFFFFFFFFFFFFFFFFFFFFFFFFFFFFF NOT AND DUP2 MSTORE PUSH1 0x20 ADD SWAP1 DUP2 MSTORE PUSH1 0x20 ADD PUSH0 KECCAK256 PUSH0 SWAP1 SLOAD SWAP1 PUSH2 0x100 EXP SWAP1 DIV PUSH20 0xFFFFFFFFFFFFFFFFFFFFFFFFFFFFFFFFFFFFFFFF AND SWAP1 POP PUSH0 PUSH20 0xFFFFFFFFFFFFFFFFFFFFFFFFFFFFFFFFFFFFFFFF AND DUP2 PUSH20 0xFFFFFFFFFFFFFFFFFFFFFFFFFFFFFFFFFFFFFFFF AND SUB PUSH2 0x135 JUMPI PUSH1 0x40 MLOAD PUSH32 0x8C379A000000000000000000000000000000000000000000000000000000000 DUP2 MSTORE PUSH1 0x4 ADD PUSH2 0x12C SWAP1 PUSH2 0x356 JUMP JUMPDEST PUSH1 0x40 MLOAD DUP1 SWAP2 SUB SWAP1 REVERT JUMPDEST PUSH2 0x13E DUP2 PUSH2 0x1A4 JUMP JUMPDEST STOP JUMPDEST CALLVALUE DUP1 ISZERO PUSH2 0x14B JUMPI PUSH0 DUP1 REVERT JUMPDEST POP PUSH2 0x166 PUSH1 0x4 DUP1 CALLDATASIZE SUB DUP2 ADD SWAP1 PUSH2 0x161 SWAP2 SWAP1 PUSH2 0x51B JUMP JUMPDEST PUSH2 0x1C3 JUMP JUMPDEST STOP JUMPDEST CALLVALUE DUP1 ISZERO PUSH2 0x173 JUMPI PUSH0 DUP1 REVERT JUMPDEST POP PUSH2 0x18E PUSH1 0x4 DUP1 CALLDATASIZE SUB DUP2 ADD SWAP1 PUSH2 0x189 SWAP2 SWAP1 PUSH2 0x5CA JUMP JUMPDEST PUSH2 0x2CD JUMP JUMPDEST PUSH1 0x40 MLOAD PUSH2 0x19B SWAP2 SWAP1 PUSH2 0x604 JUMP JUMPDEST PUSH1 0x40 MLOAD DUP1 SWAP2 SUB SWAP1 RETURN JUMPDEST CALLDATASIZE PUSH0 DUP1 CALLDATACOPY PUSH0 DUP1 CALLDATASIZE PUSH0 DUP5 GAS DELEGATECALL RETURNDATASIZE PUSH0 DUP1 RETURNDATACOPY DUP1 PUSH0 DUP2 EQ PUSH2 0x1BF JUMPI RETURNDATASIZE PUSH0 RETURN JUMPDEST RETURNDATASIZE PUSH0 REVERT JUMPDEST PUSH0 PUSH20 0x0 PUSH4 0x96C79577 DUP5 PUSH1 0x40 MLOAD DUP3 PUSH4 0xFFFFFFFF AND PUSH1 0xE0 SHL DUP2 MSTORE PUSH1 0x4 ADD PUSH2 0x1FB SWAP2 SWAP1 PUSH2 0x697 JUMP JUMPDEST PUSH1 0x20 PUSH1 0x40 MLOAD DUP1 DUP4 SUB DUP2 DUP7 GAS DELEGATECALL ISZERO DUP1 ISZERO PUSH2 0x216 JUMPI RETURNDATASIZE PUSH0 DUP1 RETURNDATACOPY RETURNDATASIZE PUSH0 REVERT JUMPDEST POP POP POP POP PUSH1 0x40 MLOAD RETURNDATASIZE PUSH1 0x1F NOT PUSH1 0x1F DUP3 ADD AND DUP3 ADD DUP1 PUSH1 0x40 MSTORE POP DUP2 ADD SWAP1 PUSH2 0x23A SWAP2 SWAP1 PUSH2 0x6CB JUMP JUMPDEST SWAP1 POP DUP2 PUSH0 DUP1 DUP4 PUSH28 0xFFFFFFFFFFFFFFFFFFFFFFFFFFFFFFFFFFFFFFFFFFFFFFFFFFFFFFFF NOT AND PUSH28 0xFFFFFFFFFFFFFFFFFFFFFFFFFFFFFFFFFFFFFFFFFFFFFFFFFFFFFFFF NOT AND DUP2 MSTORE PUSH1 0x20 ADD SWAP1 DUP2 MSTORE PUSH1 0x20 ADD PUSH0 KECCAK256 PUSH0 PUSH2 0x100 EXP DUP2 SLOAD DUP2 PUSH20 0xFFFFFFFFFFFFFFFFFFFFFFFFFFFFFFFFFFFFFFFF MUL NOT AND SWAP1 DUP4 PUSH20 0xFFFFFFFFFFFFFFFFFFFFFFFFFFFFFFFFFFFFFFFF AND MUL OR SWAP1 SSTORE POP POP POP POP JUMP JUMPDEST PUSH0 PUSH1 0x20 MSTORE DUP1 PUSH0 MSTORE PUSH1 0x40 PUSH0 KECCAK256 PUSH0 SWAP2 POP SLOAD SWAP1 PUSH2 0x100 EXP SWAP1 DIV PUSH20 0xFFFFFFFFFFFFFFFFFFFFFFFFFFFFFFFFFFFFFFFF AND DUP2 JUMP JUMPDEST PUSH0 DUP3 DUP3 MSTORE PUSH1 0x20 DUP3 ADD SWAP1 POP SWAP3 SWAP2 POP POP JUMP JUMPDEST PUSH32 0x496D706C656D656E746174696F6E206E6F7420666F756E640000000000000000 PUSH0 DUP3 ADD MSTORE POP JUMP JUMPDEST PUSH0 PUSH2 0x340 PUSH1 0x18 DUP4 PUSH2 0x2FC JUMP JUMPDEST SWAP2 POP PUSH2 0x34B DUP3 PUSH2 0x30C JUMP JUMPDEST PUSH1 0x20 DUP3 ADD SWAP1 POP SWAP2 SWAP1 POP JUMP JUMPDEST PUSH0 PUSH1 0x20 DUP3 ADD SWAP1 POP DUP2 DUP2 SUB PUSH0 DUP4 ADD MSTORE PUSH2 0x36D DUP2 PUSH2 0x334 JUMP JUMPDEST SWAP1 POP SWAP2 SWAP1 POP JUMP JUMPDEST PUSH0 PUSH1 0x40 MLOAD SWAP1 POP SWAP1 JUMP JUMPDEST PUSH0 DUP1 REVERT JUMPDEST PUSH0 DUP1 REVERT JUMPDEST PUSH0 DUP1 REVERT JUMPDEST PUSH0 DUP1 REVERT JUMPDEST PUSH0 PUSH1 0x1F NOT PUSH1 0x1F DUP4 ADD AND SWAP1 POP SWAP2 SWAP1 POP JUMP JUMPDEST PUSH32 0x4E487B7100000000000000000000000000000000000000000000000000000000 PUSH0 MSTORE PUSH1 0x41 PUSH1 0x4 MSTORE PUSH1 0x24 PUSH0 REVERT JUMPDEST PUSH2 0x3D3 DUP3 PUSH2 0x38D JUMP JUMPDEST DUP2 ADD DUP2 DUP2 LT PUSH8 0xFFFFFFFFFFFFFFFF DUP3 GT OR ISZERO PUSH2 0x3F2 JUMPI PUSH2 0x3F1 PUSH2 0x39D JUMP JUMPDEST JUMPDEST DUP1 PUSH1 0x40 MSTORE POP POP POP JUMP JUMPDEST PUSH0 PUSH2 0x404 PUSH2 0x374 JUMP JUMPDEST SWAP1 POP PUSH2 0x410 DUP3 DUP3 PUSH2 0x3CA JUMP JUMPDEST SWAP2 SWAP1 POP JUMP JUMPDEST PUSH0 PUSH8 0xFFFFFFFFFFFFFFFF DUP3 GT ISZERO PUSH2 0x42F JUMPI PUSH2 0x42E PUSH2 0x39D JUMP JUMPDEST JUMPDEST PUSH2 0x438 DUP3 PUSH2 0x38D JUMP JUMPDEST SWAP1 POP PUSH1 0x20 DUP2 ADD SWAP1 POP SWAP2 SWAP1 POP JUMP JUMPDEST DUP3 DUP2 DUP4 CALLDATACOPY PUSH0 DUP4 DUP4 ADD MSTORE POP POP POP JUMP JUMPDEST PUSH0 PUSH2 0x465 PUSH2 0x460 DUP5 PUSH2 0x415 JUMP JUMPDEST PUSH2 0x3FB JUMP JUMPDEST SWAP1 POP DUP3 DUP2 MSTORE PUSH1 0x20 DUP2 ADD DUP5 DUP5 DUP5 ADD GT ISZERO PUSH2 0x481 JUMPI PUSH2 0x480 PUSH2 0x389 JUMP JUMPDEST JUMPDEST PUSH2 0x48C DUP5 DUP3 DUP6 PUSH2 0x445 JUMP JUMPDEST POP SWAP4 SWAP3 POP POP POP JUMP JUMPDEST PUSH0 DUP3 PUSH1 0x1F DUP4 ADD SLT PUSH2 0x4A8 JUMPI PUSH2 0x4A7 PUSH2 0x385 JUMP JUMPDEST JUMPDEST DUP2 CALLDATALOAD PUSH2 0x4B8 DUP5 DUP3 PUSH1 0x20 DUP7 ADD PUSH2 0x453 JUMP JUMPDEST SWAP2 POP POP SWAP3 SWAP2 POP POP JUMP JUMPDEST PUSH0 PUSH20 0xFFFFFFFFFFFFFFFFFFFFFFFFFFFFFFFFFFFFFFFF DUP3 AND SWAP1 POP SWAP2 SWAP1 POP JUMP JUMPDEST PUSH0 PUSH2 0x4EA DUP3 PUSH2 0x4C1 JUMP JUMPDEST SWAP1 POP SWAP2 SWAP1 POP JUMP JUMPDEST PUSH2 0x4FA DUP2 PUSH2 0x4E0 JUMP JUMPDEST DUP2 EQ PUSH2 0x504 JUMPI PUSH0 DUP1 REVERT JUMPDEST POP JUMP JUMPDEST PUSH0 DUP2 CALLDATALOAD SWAP1 POP PUSH2 0x515 DUP2 PUSH2 0x4F1 JUMP JUMPDEST SWAP3 SWAP2 POP POP JUMP JUMPDEST PUSH0 DUP1 PUSH1 0x40 DUP4 DUP6 SUB SLT ISZERO PUSH2 0x531 JUMPI PUSH2 0x530 PUSH2 0x37D JUMP JUMPDEST JUMPDEST PUSH0 DUP4 ADD CALLDATALOAD PUSH8 0xFFFFFFFFFFFFFFFF DUP2 GT ISZERO PUSH2 0x54E JUMPI PUSH2 0x54D PUSH2 0x381 JUMP JUMPDEST JUMPDEST PUSH2 0x55A DUP6 DUP3 DUP7 ADD PUSH2 0x494 JUMP JUMPDEST SWAP3 POP POP PUSH1 0x20 PUSH2 0x56B DUP6 DUP3 DUP7 ADD PUSH2 0x507 JUMP JUMPDEST SWAP2 POP POP SWAP3 POP SWAP3 SWAP1 POP JUMP JUMPDEST PUSH0 PUSH32 0xFFFFFFFF00000000000000000000000000000000000000000000000000000000 DUP3 AND SWAP1 POP SWAP2 SWAP1 POP JUMP JUMPDEST PUSH2 0x5A9 DUP2 PUSH2 0x575 JUMP JUMPDEST DUP2 EQ PUSH2 0x5B3 JUMPI PUSH0 DUP1 REVERT JUMPDEST POP JUMP JUMPDEST PUSH0 DUP2 CALLDATALOAD SWAP1 POP PUSH2 0x5C4 DUP2 PUSH2 0x5A0 JUMP JUMPDEST SWAP3 SWAP2 POP POP JUMP JUMPDEST PUSH0 PUSH1 0x20 DUP3 DUP5 SUB SLT ISZERO PUSH2 0x5DF JUMPI PUSH2 0x5DE PUSH2 0x37D JUMP JUMPDEST JUMPDEST PUSH0 PUSH2 0x5EC DUP5 DUP3 DUP6 ADD PUSH2 0x5B6 JUMP JUMPDEST SWAP2 POP POP SWAP3 SWAP2 POP POP JUMP JUMPDEST PUSH2 0x5FE DUP2 PUSH2 0x4E0 JUMP JUMPDEST DUP3 MSTORE POP POP JUMP JUMPDEST PUSH0 PUSH1 0x20 DUP3 ADD SWAP1 POP PUSH2 0x617 PUSH0 DUP4 ADD DUP5 PUSH2 0x5F5 JUMP JUMPDEST SWAP3 SWAP2 POP POP JUMP JUMPDEST PUSH0 DUP2 MLOAD SWAP1 POP SWAP2 SWAP1 POP JUMP JUMPDEST PUSH0 DUP3 DUP3 MSTORE PUSH1 0x20 DUP3 ADD SWAP1 POP SWAP3 SWAP2 POP POP JUMP JUMPDEST PUSH0 JUMPDEST DUP4 DUP2 LT ISZERO PUSH2 0x654 JUMPI DUP1 DUP3 ADD MLOAD DUP2 DUP5 ADD MSTORE PUSH1 0x20 DUP2 ADD SWAP1 POP PUSH2 0x639 JUMP JUMPDEST PUSH0 DUP5 DUP5 ADD MSTORE POP POP POP POP JUMP JUMPDEST PUSH0 PUSH2 0x669 DUP3 PUSH2 0x61D JUMP JUMPDEST PUSH2 0x673 DUP2 DUP6 PUSH2 0x627 JUMP JUMPDEST SWAP4 POP PUSH2 0x683 DUP2 DUP6 PUSH1 0x20 DUP7 ADD PUSH2 0x637 JUMP JUMPDEST PUSH2 0x68C DUP2 PUSH2 0x38D JUMP JUMPDEST DUP5 ADD SWAP2 POP POP SWAP3 SWAP2 POP POP JUMP JUMPDEST PUSH0 PUSH1 0x20 DUP3 ADD SWAP1 POP DUP2 DUP2 SUB PUSH0 DUP4 ADD MSTORE PUSH2 0x6AF DUP2 DUP5 PUSH2 0x65F JUMP JUMPDEST SWAP1 POP SWAP3 SWAP2 POP POP JUMP JUMPDEST PUSH0 DUP2 MLOAD SWAP1 POP PUSH2 0x6C5 DUP2 PUSH2 0x5A0 JUMP JUMPDEST SWAP3 SWAP2 POP POP JUMP JUMPDEST PUSH0 PUSH1 0x20 DUP3 DUP5 SUB SLT ISZERO PUSH2 0x6E0 JUMPI PUSH2 0x6DF PUSH2 0x37D JUMP JUMPDEST JUMPDEST PUSH0 PUSH2 0x6ED DUP5 DUP3 DUP6 ADD PUSH2 0x6B7 JUMP JUMPDEST SWAP2 POP POP SWAP3 SWAP2 POP POP JUMP INVALID LOG2 PUSH5 0x6970667358 0x22 SLT KECCAK256 0xF6 ADDRESS 0xFB 0xE0 RETURNDATACOPY 0xBC SSTORE 0xEE 0xE1 BALANCE 0xC1 STOP CREATE2 PUSH14 0x7039DC5B91DCDFC03B9C38E15F90 PUSH18 0x93005C64736F6C6343000818003300000000 "
				},
				"gasEstimates": {
					"creation": {
						"codeDepositCost": "367200",
						"executionCost": "infinite",
						"totalCost": "infinite"
					},
					"external": {
						"": "infinite",
						"implementations(bytes4)": "2832",
						"setImplementation(string,address)": "infinite"
					},
					"internal": {
						"_delegate(address)": "infinite",
						"_getAdmin()": "infinite",
						"_setAdmin(address)": "infinite"
					}
				},
				"methodIdentifiers": {
					"implementations(bytes4)": "e91db8e5",
					"setImplementation(string,address)": "06419fe5"
				}
			},
			"storageLayout": {
				"storage": [
					{
						"astId": 51,
						"contract": "wasser/registry.sol:Registry",
						"label": "implementations",
						"offset": 0,
						"slot": "0",
						"type": "t_mapping(t_bytes4,t_address)"
					}
				],
				"types": {
					"t_address": {
						"encoding": "inplace",
						"label": "address",
						"numberOfBytes": "20"
					},
					"t_bytes4": {
						"encoding": "inplace",
						"label": "bytes4",
						"numberOfBytes": "4"
					},
					"t_mapping(t_bytes4,t_address)": {
						"encoding": "mapping",
						"key": "t_bytes4",
						"label": "mapping(bytes4 => address)",
						"numberOfBytes": "32",
						"value": "t_address"
					}
				}
			},
			"userdoc": {
				"kind": "user",
				"methods": {},
				"version": 1
			}
		}
	}
}